:020000040800F2
:10000000301E0020C1010008DB660008792E0008C0
:10001000D9660008E1100008D97D00080000000042
:10002000000000000000000000000000D16B00088C
:10003000E310000800000000C3690008516D0008CB
:10004000DB010008DB010008DB010008DB01000820
:10005000DB010008DB010008DB010008DB01000810
:10006000DB010008DB010008DB010008DB01000800
:10007000DB010008DB010008DB010008DB010008F0
:10008000DB010008DB010008DB010008DB010008E0
:10009000DB010008DB010008DB010008DB010008D0
:1000A000DB010008DB010008DB010008DB010008C0
:1000B000116E0008DB010008DB010008DB0100080D
:1000C000DB010008DB010008DB010008DB010008A0
:1000D000DB010008857D0008917D00089D7D0008FA
:1000E000DB010008DB010008DB010008DB01000880
:1000F000DB010008DB010008DB010008DB01000870
:10010000DB010008DB010008DB010008DB0100085F
:10011000DB010008DB010008DB010008DB0100084F
:10012000DB010008DB010008DB010008DB0100083F
:10013000DB010008DB010008DB010008DB0100082F
:10014000DB010008DB010008DB010008DB0100081F
:10015000DB010008DB010008DB010008DB0100080F
:10016000DB010008DB010008DB010008DB010008FF
:10017000DB010008DB010008DB01000800000000D3
:10018000DB010008DB010008DB010008DB010008DF
:10019000DB010008DB010008DB010008DB010008CF
:1001A0000000000000000000DB010008DFF80CD0B8
:1001B00000F0D0FB0048004751990008301E002095
:1001C0000648804706480047FEE7FEE7FEE7FEE7F1
:1001D000FEE7FEE7FEE7FEE7FEE7FEE7016E00084A
:1001E000AD0100082DE9F05F0546002092469B46D0
:1001F00088460646814640241BE02846414647463D
:10020000224600F038FA53465A46C01A914110D39C
:1002100011461846224600F01FFA2D1A67EB010816
:100220004F4622460120002100F016FA17EB000984
:100230004E41201EA4F10104DFDC484631462A4627
:100240004346BDE8F09FA0F14101192900D82030B4
:100250007047D2B201E000F8012B491EFBD2704773
:100260000022F6E710B513460A4604461946FFF782
:10027000F0FF204610BD30B505462A460B4612F861
:10028000010B13F8014B08B1A042F8D01CB10028B3
:1002900002D06D1CF1E7284630BD421C10F8011B4E
:1002A0000029FBD1801A704730B50546002003466F
:1002B00000E05B1C934205D2EC5CC85C201A01D1C3
:1002C000002CF6D130BD2DE9FE4F804681EA0300B7
:1002D000C00F0C46009021F0004123F00045B8EB20
:1002E0000200A94105D24046214690461C460B46D5
:1002F000024623F00040104347D0270DC7F30A0001
:10030000C3F30A510290401A019040286BDAC3F3FC
:10031000130040F4801B0098924620B10023D2EBDA
:10032000030A63EB0B0B01985946C0F1400250469B
:1003300000F092F906460D4650465946019A00F0E3
:10034000AAF910EB08006141002487EA115284EAFF
:10035000E7731A4340D0009A62B3019A012A4FEA28
:10036000075215DC001B61EB02014FF0004202EA6C
:100370000752CDE90042001C41F5801132462B4660
:1003800000F0AAF903B0BDE8F08F40462146F9E736
:10039000001B61EB0201001C41F5801300185B415A
:1003A0002018A2F5001747EB030140EAD570B619F3
:1003B0006D4111E06D084FEA360645EAC0754FEA17
:1003C0000752001B61EB0201001C41F58011490836
:1003D0004FEA30000019514132462B4603B0BDE8C8
:1003E000F04F00F06AB90098012240000023D0EBE2
:1003F000020263EBE073009821464FEAE074B8EB29
:10040000000061EB0401E9E783F000435BE781F062
:10041000004158E72DE9FE4F81EA030404F000444F
:1004200021F0004100944FF0000B23F0004350EA0C
:1004300001045ED052EA03045BD0C3F30A54C1F353
:100440000A552C44A4F2F3340194A0FB0254C1F3E6
:10045000130141F48011C3F3130343F4801301FB30
:10046000024400FB034E840A970A44EA815447EA97
:100470008357A4FB076802958D0A05FB07854FEAA1
:10048000932C04FB0C542705029D4FEA065847EABB
:100490001637B5EB08056EEB070C870E920E47EA90
:1004A000811742EA8312A7FB0201B6EB0B0164EB52
:1004B00000042B0D43EA0C335E1844EB1C50DA4663
:1004C0005146E7FB0201C5F313044FEA0B3343EA3D
:1004D00014534FEA0432019C43EA0603A4F10C04CE
:1004E0000294009CCDE900B400F0F6F803B0BDE83A
:1004F000F08F00200146F9E70EB5C10F80EAE070E9
:100500000844CA07002140F233438DE80E000A4632
:100510000B4600F0E1F803B000BD0EB540F23341E8
:1005200002910021CDE900110A460B4600F0D4F8F3
:1005300003B000BD70B5C1F30A5201F000450024BC
:10054000C1F3130140F2FF3341F480119A4201DA02
:10055000002070BD40F233439A42A2F2334203DCE2
:10056000524200F088F800E090402C43F1D0404225
:1005700070BDC1F30A5210B5C1F3130140F2FF334D
:1005800041F480119A4201DA002010BD40F2334359
:100590009A42A2F2334203DC524200F06CF810BDE2
:1005A000904010BD00F0004230F000400AD0C10D74
:1005B00001F56071C0F3160042EA0151C20840071C
:1005C00011437047002001467047000030B5041EFB
:1005D00071F1000404DB4FF00044404264EB010180
:1005E000141E73F1000405DB1C464FF00043524219
:1005F00063EB04038B4208BF824230BD30B5041E5A
:1006000071F1000404DB4FF00044404264EB01014F
:10061000141E73F1000405DB1C464FF000435242E8
:1006200063EB0403994208BF904230BD30B50B46DE
:10063000014600202022012409E021FA02F59D4212
:1006400005D303FA02F5491B04FA02F52844151EE6
:10065000A2F10102F1DC30BD202A04DB203A00FACD
:1006600002F1002070479140C2F1200320FA03F309
:10067000194390407047202A04DB203A21FA02F007
:100680000021704721FA02F3D040C2F120029140CC
:10069000084319467047202A06DBCB17203A41FA57
:1006A00002F043EAE07306E041FA02F3D040C2F1FF
:1006B0002002914008431946704710B5141E73F18B
:1006C000000408DA401C41F1000192185B411A4312
:1006D00001D120F0010010BD2DE9F04D92469B465E
:1006E00011B1B1FA81F202E0B0FA80F22032904604
:1006F000FFF7B2FF04460F4640EA0A0041EA0B0149
:1007000053465A46084313D0114653EA010019D004
:10071000C8F140025046FFF7AEFF05460E46504670
:1007200059464246FFF798FF084305D0012004E0F0
:1007300020463946BDE8F08D0020054346EAE076C4
:100740002C4337430A986305E40AA0EB0800002213
:10075000FD0A44EA47540A3002D500200146E9E781
:10076000010510196941DDE9084500196941BDE835
:10077000F04DA2E72DE9F04D81EA030404F0004BAF
:1007800021F0004514464FF0000A23F0004150EAE2
:10079000050220D054EA01021DD0C5F30A570246D3
:1007A000C5F31303C1F31300C1F30A5640F48015D7
:1007B00043F48013A7EB0608101BD64608F2FD3859
:1007C00073EB050002D308F1010801E092185B41C8
:1007D000B8F1000F03DA00200146BDE8F08D0020DB
:1007E0004FF48011064684460EE0171B73EB050795
:1007F00005D3121B63EB050306434CEA010C4908C1
:100800004FEA300092185B4150EA0107EDD152EAFD
:10081000030012D082EA040083EA0501084305D0F0
:10082000101BAB4106D20122002306E000224FF04C
:10083000004302E06FF0010253101AEB06004CEB8C
:10084000085110EB0A0041EB0B01BDE8F04DFFF73A
:1008500034BF70B521F0004303430CD0C1F30A55F7
:100860000024D5EB040564EB0403D617AD1AB3419D
:1008700002DB0020014670BD201841EB025170BD23
:100880002DE9F04D00231A461B1A8A4103DB002094
:100890000146BDE8F08DC1F30A52C1F3130141F4E2
:1008A00080154FF0000BD10702D100186D41521E88
:1008B0000027044640F2FF11384601EB620A3E462B
:1008C0008046024600204FF48011FFF7D4FEC21983
:1008D0007141BB1846EB0100B4EB030C75EB000C47
:1008E00004D3E41A65EB000517460E46241908F1F7
:1008F00001006D4180463428E3DDF91946EB06001E
:10090000091BA84103D24FF0FF32134601E0002239
:1009100013461BEB070046EB0A51BDE8F04DFFF70D
:10092000CCBEC1F30A52C1F3130140F2FF3341F4CC
:1009300080119A4202DA00200146704740F23343A8
:100940009A42A2F2334202DC5242FFF794BEFFF712
:1009500083BE0000064C074D06E0E06840F001034E
:1009600094E8070098471034AC42F6D3FFF722FC16
:100970007CAE00089CAE000870B58D1810F8014BD5
:1009800014F0030201D110F8012B231106D110F845
:10099000013B03E010F8016B01F8016B521EF9D125
:1009A000ABB110F8012B04F00C048A1A0C2C03D004
:1009B000A2EB84129B1C08E010F8014BA2EB04226E
:1009C000F8E712F8014B01F8014B5B1EF9D5A9427B
:1009D000D4D3002070BD00002DE9F35F324E002417
:1009E00082467168A0462046884796F82000000697
:1009F0003FD500252C49019BC5EB051603EB460BA3
:100A00008A89B1F8163000200BF11E0900EB80072F
:100A10000AEB071606F15007BA4222D2B24220D999
:100A20004B451ED25B451CD905EB45021044401CCA
:100A300000F0FF0802E04168002088471A488189D9
:100A4000B94206D2B14204D9C18A494501D25945B9
:100A5000F1D8B8F1000F08D0444514D14FF0000888
:100A600007E0401C80B20328D0D36D1CADB2052D29
:100A7000C0D3641EE2B200235046019900F016F87C
:100A80004046BDE8FC9F641EE2B200235046019937
:100A900000F00CF84446601EC2B201235046019992
:100AA00000F004F8E5E70000E81200202DE9F84323
:100AB000804603200F46B2FBF0F1B2FBF0F614467D
:100AC00000FB1145102A46D8BBB1012C43D04FF48E
:100AD000FC600090C6EB061007EB400101F11C0022
:100AE00083B205EB850208EB021000F14E02491CAF
:100AF000401C92B289B280B217E0012C2BD00020AA
:100B00000090C6EB061007EB400000F11C018BB211
:100B100005EB850208EB021101F14E02401C1FFAA1
:100B200080FC491C88B292B2614602F055FB50200D
:100B300000900A4805EB8503006850F82420C6EBB6
:100B4000061007EB4000C01D81B208EB031080B215
:100B5000102306F0D9F8BDE8F8830000F800002063
:100B60002DE9F84F054641484FF4784ADFF800B1C7
:100B7000A0F800A04FF00009CBF8002001F1960882
:100B800005F1F0070C4656461FFA88F3BAB228461C
:100B9000CDF8009002F020FB1FFA88F3BAB221468C
:100BA0002846009602F0F6FA05F1A00082B250380D
:100BB0001FFA88F380B22146009602F0EBFA04F1A6
:100BC0003C0083B21E3881B2BAB22846009602F0C9
:100BD000E1FA04F1780083B21E3881B2BAB2284635
:100BE000009602F0D7FA0026D84603274FF0500BA4
:100BF00001E0012E1FD0B6FBF7F0C0EB001004EBB4
:100C00004000C01D81B2B6FBF7F007FB1060CDF8C5
:100C100000B0D8F8002000EB800005EB001080B297
:100C200052F82620102306F06FF8761CB6B20F2E6D
:100C3000DFD3BDE8F88FB6FBF7F0C0EB001004EB94
:100C40004000C01D81B2B6FBF7F007FB1060CDF885
:100C5000009000EB8000D8F8002005EB0010801C0D
:100C600080B25268534605F079FBDEE7DC120020C3
:100C7000F80000202DE9F04F0026CB4DDFF82C9333
:100C80008DB037464FF4FA7B34464FF0F008052F0D
:100C90007ED2DFE807F0033E86DCFC00761CF6B26D
:100CA000C3A1C74809F008FB00942A88A023642147
:100CB000002002F091FA1023C2A264210020CDF896
:100CC000008006F021F805F070FD5FEA000A05D00B
:100CD0004FF4967008F0ACFD50465FE0012005F03F
:100CE00046FD00285AD1BBA1B54809F0E5FA0094A9
:100CF0002A88A0236421002002F06EFA1023B8A2F3
:100D000064210020CDF8008005F0FEFF00260127B9
:100D10003DE0761CF6B2B5A1A94809F0CDFA0094E1
:100D20002A88A0237821002002F056FA1023B3A2CB
:100D300078210020CDF8008005F0E6FF05F035FDB4
:100D40008246584608F074FDBAF1000026D1022010
:100D500005F00DFD10BB9FA1994809F0ADFA009474
:100D60002A88A0236421002002F036FA00942A8801
:100D7000A0237821002002F02FFA102398A26421EA
:100D80000020CDF8008005F0BFFF0026022700E01C
:100D900080E04FF4487008F04BFD78E705F08CFFD9
:100DA00078E099A1864809F087FA00942A88A02360
:100DB0006421002002F010FA102397A26421002081
:100DC000CDF8008005F0A0FF05F04BFD0746584622
:100DD00008F02EFDFFB194A1794809F06DFA009456
:100DE0002A88A0236421002002F0F6F9102391A2A2
:100DF00064210020CDF8008005F086FF384605F01C
:100E00005BFF00263746584608F012FD4FF4487045
:100E100008F00EFD42E78AA1694809F04DFA0094F6
:100E20002A88A0236421002002F0D6F9102387A28B
:100E300064210020CDF8008005F066FF584608F0D8
:100E4000F7FC4FF4487008F0F3FC052E29D282A17C
:100E50005B4809F031FA00942A88A023642100201D
:100E600002F0BAF9474610237FA264210020CDF892
:100E7000008005F049FF584608F0DAFC05F03DFD1A
:100E8000C8B1002705F018FF4FF47A7000E02EE09B
:100E900008F0CEFC4FF4487008F0CAFC052EFFF4B1
:100EA0007CAF00942A88A0236421002002F094F9EA
:100EB0000DB0BDE8F08F70A1414809F0FDF9009434
:100EC0002A88A0236421002002F086F910236FA253
:100ED00064210020009705F017FF4FF47A7008F0A6
:100EE000A7FC4FF4487008F0A3FC052ED9D200945B
:100EF0002A88A0236421002002F06EF947461023BF
:100F000067A264210020CDF8008005F0FDFE1023CB
:100F10006AA278210020009705F0F6FE00F09CFC04
:100F2000B9F800100746B942F8D90146022005F089
:100F3000FEFC08B1002731E700942A88A023642131
:100F4000002002F049F93A4660A103A806F07EFFAE
:100F5000102303AA64210020CDF8008005F0D4FE00
:100F60000BA805F00DFD4FF478401021CDE90010DD
:100F70000294B9F80010BDF82C0003230A1A3C2192
:100F8000402005F0B1F940F2DC5008F051FC00942B
:100F90002A88A0236421002002F01EF90094A023D7
:100FA0002A88782181E700002018002014180020EA
:100FB000C7EBB0B4C2BCC8EBD6B8CEC60D0A0000B1
:100FC000CC130020C7EBB0B4C2BCC8EBD6B8CEC6B9
:100FD00000000000D6B8CEC6D5FDB3A30D0A0000B0
:100FE000D6B8CEC6D5FDB3A300000000C7EBD4D958
:100FF000B0B4D2BBB4CE0D0A00000000C7EBD4D908
:10100000B0B4D2BBB4CE0000B6D4B1C8C1BDB4CE6A
:10101000D6B8CEC60D0A0000B6D4B1C8C1BDB4CE94
:10102000D6B8CEC600000000B6D4B1C8CAA7B0DC9E
:101030000D0A0000B6D4B1C8CAA7B0DC0000000099
:10104000B6D4B1C8B3C9B9A60D0A0000B6D4B1C8A8
:10105000B3C9B9A600000000C9FAB3C9D6B8CEC654
:10106000C4A3B0E50D0A0000C9FAB3C9D6B8CEC60C
:10107000C4A3B0E500000000C9FAB3C9D6B8CEC613
:10108000C4A3B0E5B3C9B9A60D0A0000C9FAB3C933
:10109000D6B8CEC6C4A3B0E5B3C9B9A60000000057
:1010A000C7EBCAE4C8EBB4A2B4E649442CB0B445DB
:1010B0006E746572B1A3B4E600000000303D3C20C0
:1010C0004944203C3D32393900000000C2BCC8EB25
:1010D000D6B8CEC6B3C9B9A62049443A2025640083
:1010E000FEE770472DE9F0418CB00025414F009597
:1010F000A0233A885021284602F06EF8F0261023EB
:101100003DA278210020009605F0FEFD102341A2AB
:101110008C210020009605F0F7FD322008F088FBB6
:10112000404AAA210020FFF71BFD00F095FBA0F527
:101130007F410446FF3925D04FF47F48444502D112
:1011400005F0FBFA02E0012105F0C8FA60B305F0F2
:10115000B3FD00BF4FF4966008F06AFB324805F01B
:101160000FFC4FF478401021CDE900102E492F4894
:101170000295891E008849880323421A3C21402099
:1011800005F0B2F800953A88A0235021002002F023
:1011900023F8322008F04CFB254AAA210020FFF753
:1011A000DFFC0CB0BDE8F08144450BD100953A88D6
:1011B000A0235021002002F00FF81EA103A806F082
:1011C00045FE0BE022461FA103A806F03FFE009556
:1011D0003A88A0235021002001F0FEFF102303AA2B
:1011E0008C210020009605F08FFD1BA11E4809F000
:1011F00063F8AFE720180020C7EBCAE4C8EBD6B805
:10120000CEC649442CB0B4456E746572B7A2CBCD3E
:1012100000000000303D3C204944203C3D3239393B
:1012200000000000A8000020E600002014180020A4
:101230006C000020C7E5BFD5D6B8CEC6BFE2B3C9A3
:10124000B9A60000C9BEB3FDD6B8CEC6B3C9B9A60B
:1012500049443A2025640000C9BEB3FDD6B8CEC6C5
:10126000B3C9B9A6200D0A00CC1300202DE9FF4F09
:10127000804600251446032082B00F46A0EB4406AA
:1012800051E0381B81B208EB050A01901FFA8AF081
:10129000059A01F073FF781B009081B208EB0409F6
:1012A0001FFA89F0059A01F069FF07EB050B1FFA99
:1012B0008BF11FFA89F0059A01F060FF07EB040932
:1012C0001FFA89F11FFA8AF0059A01F057FFA8EB7F
:1012D000050A1FFA89F11FFA8AF0059A01F04EFFFC
:1012E000A8EB04091FFA8BF11FFA89F0059A01F0A7
:1012F00045FF0198059A81B21FFA8AF001F03EFF7E
:101300000098059A81B21FFA89F001F037FF6D1C31
:10131000002E03DA06EB8506B61D04E0281B06EB5B
:101320008006641E0A36A542ABDD06B0BDE8F08F2C
:1013300021283CD2DFE800F011131517191B1D1FDF
:10134000212325273B3B3B3B27293B3B3B2B3B3B7F
:101350002D2F3133353B3B37390016A0704716A08F
:1013600070471AA070471DA0704721A0704724A0A5
:10137000704727A070472AA070472DA070472FA064
:10138000704732A0704735A0704738A070473BA027
:1013900070473FA0704742A0704744A0704747A0E5
:1013A00070474AA070474DA070474FA0704751A0AA
:1013B000704700004F4B000020CAFDBEDDB0FCBDF1
:1013C000D3CAD5B4EDCEF32000000000C7EBB0B413
:1013D000D1B9B4ABB8D0C6F700000000C2BCC8EBAE
:1013E000D6B8CEC6CDBCCFF1CAA7B0DC0000000095
:1013F000D6B8CEC6CCABB8C9BBF2CCABB5AD00004D
:10140000D6B8CEC6CCABCAAABBF2CCABBAFD0000F4
:10141000D6B8CEC6CDBCCFF1CCABC2D20000000056
:10142000D6B8CEC6CCD8D5F7B5E3CCABC9D9000079
:10143000D6B8CEC6B2BBC6A5C5E40000C3BBD3D0E8
:10144000CBD1CBF7B5BDD6B8CEC60000CCD8D5F73A
:10145000BACFB2A2CAA7B0DC00000000C9BEB3FD7B
:10146000C4A3B0E5CAA7B0DC00000000C7E5BFD543
:10147000D6B8CEC6BFE2CAA7B0DC0000BBBAB3E59F
:10148000C7F8C4DACEDED3D0D0A7CDBC00000000B0
:10149000B6C1D0B4464C415348B3F6B4ED00000099
:1014A000CEB4B6A8D2E5B4EDCEF30000CEDED0A720
:1014B000BCC4B4E6C6F7BAC500000000BCC4B4E6BC
:1014C000C6F7C4DAC8DDB4EDCEF30000BCC7CAC2AB
:1014D000B1BED2B3C2EBB4EDCEF30000D6B8CEC6E7
:1014E000BFE2C2FA00000000B5D8D6B7B4EDCEF323
:1014F00000000000B7B5BBD8C8B7C8CFC2EBD3D087
:10150000CEF3000072B6FEE7002229B101291DD0FA
:1015100002291ED04FF440720B2800D9001D0E493D
:101520000B6823F440730B600B6813430B600A686D
:1015300022F0F8020A600A68022303EBC0000243AB
:101540000A60086840F48030086070474FF4807289
:10155000E2E74FF40072DFE7103C024013480168F5
:1015600089050FD5016821F400710160016841F41B
:1015700000610160016821F400610160016841F4CB
:1015800000710160016849050FD5016821F480618F
:101590000160016841F480510160016821F48051CB
:1015A0000160016841F4806101607047003C0240C5
:1015B0000E4A136823F44073136003290DD00129E8
:1015C00011680FD041F40041116011684FF480336D
:1015D00043EA0020014311607047116848F2040398
:1015E0001943F1E741F00401EEE70000103C02402E
:1015F000064A136823F4407313601368136013687A
:1016000043F001031360017070470000103C02407A
:10161000094910B50C6824F440740C600C6844F45B
:1016200040740C600C6844F001040C600260BFF36D
:101630006F8F436010BD0000103C0240074A1368E2
:1016400023F440731360136843F4807313601368CA
:1016500043F001031360018070470000103C02401A
:10166000074A136823F440731360136843F400734C
:101670001360136843F001031360016070470000BA
:10168000103C02401C490868C2061C4805D5C269C6
:1016900042F01002C26110220A600A68920605D563
:1016A000C26942F00802C26120220A600A6852063A
:1016B00005D5C26942F00402C26140220A600A688C
:1016C000120605D5C26942F00202C26180220A6098
:1016D0000A68D20506D5C26942F00102C2614FF420
:1016E00080720A600A68920705D5C26942F020023A
:1016F000C2610220086070470C3C02409814002030
:1017000070B5114904460020C86100F05DFB064633
:101710000E4D09E0601C07D024B100F055FB801B82
:10172000A04201D9032070BD2868C003F2D4286804
:10173000C00701D001202860286810F4F970F2D0A9
:10174000FFF7A0FF012070BD981400200C3C024060
:1017500070B5B3F5804F05D06FF0704140F822109E
:10176000002070BD50F82240084B8E891C40D1E902
:10177000003543EA05138D6889692D0245EA06455F
:101780002B430B43234340F82230E9E70000F0CF1E
:10179000F0B50C6850F82430174A1340D1E9012500
:1017A000D1E903672A433E4332434E6932438E698F
:1017B0003243CE6932430E6A32434E6A32438E6AF6
:1017C0003243CE6A3243CE6B32430E6B32434E6BA2
:1017D00032431A43082D01D142F0400240F8242040
:1017E0004A6BB2F5801F05D1096819B1016841F44F
:1017F000801101600020F0BD8000E0FFF0B500EB3B
:101800008204626802F04045D1E9002342EA0312F3
:101810008B688E891B0243EA06431A430E8A0D4BDE
:1018200003EB065632430E7D5F0107EB066632433B
:101830008E6932432A4362600268D20207D5426849
:10184000098A22F4700203EB015111434160002028
:10185000F0BD00000000F0FF3EB500244FF6FF751C
:10186000AA210020FFF7B8F820B3012813D00328DD
:1018700013D0011F092907D2632C05D204EB840180
:1018800000EB4101C91E8CB20D2809D00E280BD0E7
:101890000F281CD00EE028463EBD4FF47F403EBDD1
:1018A0000A20B4FBF0F405E0632C03D204EB8400BF
:1018B00005EA400400224FF4784110208DE807002B
:1018C00006232246B1215F2004F00EFDC8E7204622
:1018D0003EBD2DE9F0410446876D00F075FA0646DD
:1018E00094F835000025022806D08020606584F831
:1018F00034500120BDE8F0812068016821F0160114
:1019000001602068416921F080014161206C08B9C3
:10191000A06C20B12068016821F0080101602068F6
:10192000016821F0010101600CE000F04DFA801B1C
:10193000052807D920206065032084F8350084F845
:101940003450D7E720680068C007EED194F85C10E7
:101950003F208840B860012084F8350084F8345076
:101960000020C7E790F83510022903D08021416597
:1019700001207047052180F835100068016821F0CA
:10198000010101600020704770B5044600F01CFAA8
:101990000546601C02D004480078044400F014FAA4
:1019A000401BA042FAD370BD0C0000202DE9F04787
:1019B000044623480F46017E01290AD001218046B2
:1019C00001764CF250394846FFF79AFE020003D0E8
:1019D00030E00220BDE8F0874FF0FF30386020682B
:1019E000184D012801D0A6681DE0207C6168FFF732
:1019F000DFFD4846FFF784FE0246286848F20401EE
:101A00008843286014E0217C3046FFF77DFD48467E
:101A1000FFF776FE0200286820F0FA00286001D067
:101A20003E6005E0761CD4E902100844B042EAD8D2
:101A3000FFF794FD002188F818101046CAE700004F
:101A400098140020103C02400348016841F0004116
:101A50000160002070470000103C02402DE9F04773
:101A60001B4E05461446307E1F468946012808D085
:101A7000012030764CF250384046FFF741FE18B155
:101A800014E00220BDE8F0879DB1012D16D0022D93
:101A900019D022463B464846FFF7BAFD4046FFF7BD
:101AA0002FFE0C490A6822F001020A6000213176FB
:101AB000E8E7E1B24846FFF79BFDEFE7A1B24846F1
:101AC000FFF7BCFDEAE721464846FFF7C9FDE5E719
:101AD00098140020103C0240074900200A68002AA0
:101AE00009DA054A054B0C3A1360054B1360096887
:101AF000002900DA01207047103C024023016745AD
:101B0000AB89EFCDF0B587B014216846FEF7A8FB8E
:101B100015480168002924D10121016013480024DF
:101B2000016841F0010101600068022500F0010038
:101B300005904FF68070CDE9000502AA03260C2718
:101B400082E8D00069460A4800F016F84EF2B370F9
:101B5000CDE9000502AA694682E8D000054800F0F8
:101B60000BF807B0F0BD000000000020383802403C
:101B700000100240000C02402DE9F84FDFF8F8A1F8
:101B8000002201240AF1040B03254FF00F090BF189
:101B9000040E00BF0B6804FA02F63340B34270D162
:101BA0000F7907F00307012F01D0022F16D18768A4
:101BB0004FEA420805FA08FC27EA0C07D1F80CC0E6
:101BC0000CFA08FC4CEA070CC0F808C04768B74399
:101BD0000E79C6F3001696403E4346600E79F643F2
:101BE000B6070AD0C7684FEA420C05FA0CF6B743AD
:101BF0008E6806FA0CF63E43C6600E7906F00306C0
:101C0000022E10D1D60800EB8608D8F820605707BE
:101C10004FEAD76C09FA0CF7BE430F6907FA0CF7C5
:101C20003743C8F8207006684FEA420C05FA0CF7F3
:101C3000BE430F7907F0030707FA0CF73743076035
:101C40004E6816F4403F1CD04C4E376847F480472E
:101C50003760366822F0030706F480460096484E47
:101C600007EB060CDCF8086897073F0F09FA07F83E
:101C700026EA0806DFF80C81404503D14FF0000842
:101C800041E072E0DFF80081404502D14FF00108E9
:101C900039E0DFF8F880404502D14FF0020832E029
:101CA000DFF8EC80404502D14FF003082BE0DFF86D
:101CB000E480404502D14FF0040824E0DFF8D880EA
:101CC000404502D14FF005081DE0DFF8D0804045C7
:101CD00002D14FF0060816E0DFF8C480404502D17B
:101CE0004FF007080FE0DFF8BC80404502D14FF00D
:101CF000080808E0DFF8B080404502D14FF009083D
:101D000001E04FF00A0808FA07F848EA0608CCF89C
:101D10000888DAF800605746D1F804C09E435FEAAD
:101D2000CC3C00D51E433E60DBF800605F46D1F836
:101D300004C09E435FEA8C3C00D51E433E60DEF843
:101D400000607746D1F804C09E435FEACC2C00D5F2
:101D50001E433E60084F0C373E68D1F804C09E43D6
:101D60005FEA8C2C00D51E433E60521C102AFFF403
:101D700011AFBDE8F88F0000003C0140443802403C
:101D80000030014000000240000402400008024010
:101D9000000C0240001002400014024000180240F3
:101DA000001C02400020024000240240426921EA57
:101DB00002030A4043EA0241816170470AB181612E
:101DC00070470904FBE70000014880687047000085
:101DD0000C0000200248816802781144816070473D
:101DE0000C0000200B4810B5016841F4007101603F
:101DF000016841F480610160016841F48071016013
:101E0000032000F06FF8002000F006F800F024F83E
:101E1000002010BD003C024070B50D4D04464FF44B
:101E20007A712878B1FBF0F00A490968B1FBF0F04B
:101E300000F07BFB48B9102C07D200222146501E2F
:101E400000F030F800206C6070BD012070BD000013
:101E50000C000020180000200A4808B5016841F471
:101E600080410160006800F4804000900548001F38
:101E7000016841F080510160006800F080500090DE
:101E800008BD000044380240002809DB00F01F02B2
:101E9000012191404009800000F1E020C0F80011CC
:101EA00070470000F0B40E4B1B680C46C3F30223CE
:101EB000C3F10705042D00D90425191D072901D2F6
:101EC000002300E0DB1E012606FA05F1491E214031
:101ED00099409E40761E16403143F0BC05F0F4BF99
:101EE0000CED00E0064900F0070208684FF6FF031A
:101EF000184040EA0220034A10430860704700007F
:101F00000CED00E00000FA052DE9F84317480168E0
:101F100041F0805101600068154F00F080500126AB
:101F200000903E64FFF750FF05464FF47A78114C5D
:101F300005E000BFFFF748FF401B40450DD8606833
:101F4000C003F7D57E64FFF73FFF0546464607E02E
:101F5000FFF73AFF401BB04202D90320BDE8F883E7
:101F600060688003F4D50020F8E7000040380240A4
:101F700000000E42007000402DE9F0470E460500BB
:101F800065D0DFF81481D8F80000F7B200F00F0038
:101F9000B04207D288F80070D8F8000000F00F00B7
:101FA000B04254D128683D4C810712D5400703D573
:101FB000206840F4E05020602878000703D52068AE
:101FC00040F4604020602068A96820F0F0000843D9
:101FD00020602878C0072DD030496868083901286A
:101FE00012D0022813D0032811D0096889070029CC
:101FF0002DDA216821F0030101432160FFF7E4FE9F
:10200000814641F2883A0EE009688903EFE70968E2
:102010008901ECE7FFF7D8FEA0EB0901514502D991
:102020000320BDE8F0872068696800F00C00B0EB81
:10203000810FEFD1D8F80010404601F00F01B142F6
:1020400007D90770006800F00F00B04201D00120EE
:10205000E7E72878400705D52068E96820F4E050D4
:10206000084320602878000706D52068296920F4F5
:10207000604040EAC100206000F038F82168084A5A
:10208000C1F30311515CC840064908600648006866
:10209000FFF7C2FE0020C4E7003C024008380240BF
:1020A000F0A2000818000020100000200448054994
:1020B00000680968044AC1F38221515CC840704736
:1020C000180000200838024000A300080448054911
:1020D00000680968044AC1F34231515CC840704746
:1020E000180000200838024000A30008154810B569
:1020F000006810F00C02144813D04110042A0FD0CD
:10210000082A0ED10F4C241F2268236802F03F02D8
:102110005B0207D52068C0F38810A0FB010106E030
:10212000084610BD2168C1F38811A1FB00010023FE
:10213000FEF758F82168C1F30141491C4900B0FB82
:10214000F1F010BD083802400024F4002DE9F84FEA
:1021500004006ED02078DFF84C93C007A9F1040585
:102160004AD009F104000168C1F38101012908D0B6
:102170000068C0F3810002280AD1D9F800004002AB
:1021800006D52868800337D560680028E1D033E0A1
:102190006068B0F5803F10D0B0F5A02F286810D04F
:1021A00020F480302860286820F48020286060684F
:1021B000A8B1FFF709FE06460DE0286840F480301C
:1021C000F4E740F480202860F7E700BFFFF7FCFD4C
:1021D000801B642873D828688003F7D50CE0FFF7CC
:1021E000F3FD064605E000BFFFF7EEFD801B642807
:1021F000F0D828688003F7D42078DFF8AC82800715
:102200004FF0000A3ED5A748001D016811F00C0FE1
:1022100008D00068C0F3810002280BD1D9F8000073
:10222000400207D42868800716D5E068012800D14D
:1022300012E033E1E068B8B10120C8F80000FFF710
:10224000C3FD064605E000BFFFF7BEFD801B022868
:10225000C0D828688007F7D52868216920F0F800E1
:1022600040EAC10028600DE0C8F800A0FFF7ACFD0F
:10227000064604E0FFF7A8FD801B02281FD8286847
:102280008007F7D42078000722D5864F87486169F8
:10229000703771B101210160FFF796FD064604E039
:1022A000FFF792FD801B022809D838688007F7D510
:1022B0000EE0C0F800A0FFF787FD064605E082E0CB
:1022C000FFF782FD801B02287DD838688007F7D48D
:1022D0002078400768D5DFF8CCB100270BF13C0B24
:1022E000DBF80000C0000BD4DBF8001041F0805197
:1022F000CBF80010DBF80000012700F080500090C0
:102300006B4E3068C00510D4306840F48070306087
:10231000FFF75AFD009005E0FFF756FD0099401ABF
:10232000022850D83068C005F6D55E4EA0686C36DD
:1023300001280FD00528306810D020F0010030604F
:10234000306820F004003060A068B8B1FFF73CFDB1
:1023500000900FE0306840F00100F4E740F0040026
:102360003060F7E7FFF730FD0099411A41F28830FD
:10237000814266D830688007F4D50EE0FFF724FD6F
:10238000009007E0FFF720FD0099411A41F28830E4
:10239000814256D830688007F4D42FB1DBF80010A2
:1023A00021F08051CBF80010A069C8B33D49091D48
:1023B0000968C1F3810102294AD00228504607D09A
:1023C000C8F8600000E03CE0FFF7FEFC04463BE09C
:1023D0004746C8F86000FFF7F7FC064605E000BF77
:1023E000FFF7F2FC801B02282BD828688001F7D465
:1023F000D4E907010843A16A2E4A490802EB0141CA
:10240000626A41EA8211084394F82C1040EA0161A3
:10241000C9F8001001203866FFF7D6FC044606E034
:102420003EE000BFFFF7D0FC001B022809D8286857
:102430008001F7D534E000BFFFF7C6FC001B02287F
:1024400002D90320BDE8F88F28688001F4D427E082
:102450000128F7D0D9F80000E26900F48001914228
:102460001CD1226A00F03F01914217D147F6C0719A
:10247000626A0140B1EB821F10D1A26A4FF0FF33B4
:1024800000F4403103EB5202B1EB024F06D194F855
:102490002C1000F07060B0EB016F01D00120D1E78B
:1024A0000020CFE70438024000004742800E474238
:1024B000007000400000FFFF70B515460E46040096
:1024C00003D094F8490010B107E0012070BD00204E
:1024D00084F84800204600F01AF804F1080120684A
:1024E000FFF756F93146A2682068FFF787F9D4E96B
:1024F00001022946236BFFF72BF9A168206850F8E9
:10250000212042F0010240F82120002070BDFFF799
:10251000F9BA4FF0E0210428086903D020F0040044
:102520000861704740F00400FAE710B5401EB0F1B2
:10253000807F01D3012010BD4FF0E02460610F21A6
:10254000601705F0C1FC0020A06107202061002079
:1025500010BD70477047000070B590F83C20012A0C
:1025600032D0012480F83C40022280F83D200368EC
:102570005A689D6822F070060A6832435A60134B0D
:1025800002689A4214D0B2F1804F11D0104B9A4297
:102590000ED0104B9A420BD00F4B9A4208D00F4BE3
:1025A0009A4205D00E4B9A4202D00E4B9A4204D169
:1025B000496825F080031943916080F83D4000216F
:1025C00080F83C10084670BD022070BD000001403C
:1025D0000004004000080040000C004000040140DE
:1025E000004001400018004010B5040003D094F8EA
:1025F0003D0010B107E0012010BD002084F83C0030
:10260000204600F01FF8022084F83D00211D2068BC
:1026100004F004FC012084F8460084F83E0084F8AD
:102620003F0084F8400084F8410084F8420084F8B8
:10263000430084F8440084F8450084F83D000020FD
:1026400010BD000008B50068B0F1804F12D10A48F3
:10265000016841F0010101600068002200F0010002
:10266000009011461C20FFF71DFCBDE808401C200F
:10267000FFF70ABC08BD00004038024090F83D104A
:10268000012901D001207047022180F83D10016826
:10269000CA6842F00102CA6000681149884214D039
:1026A000B0F1804F11D00F4988420ED00E498842B8
:1026B0000BD00E49884208D00D49884205D00D49FB
:1026C000884202D00C49884204D1816801F0070198
:1026D000062903D0016841F0010101600020704724
:1026E000000001400004004000080040000C0040D1
:1026F00000040140004001400018004070B504464D
:1027000090F83C000025012817D0012684F83C6091
:10271000022084F83D002068826822F0770222F4CB
:102720007F4282600868502838D00DDC20284FD0C6
:1027300005DC90B3102811D14AE0022070BD30288A
:1027400046D040280AD13BE060282FD070280DD019
:10275000B0F5805F03D0B0F5005F12D0012584F89A
:102760003D60002084F83C00284670BDCB68D1E96C
:102770000121206804F0B6FB2068816841F07701F0
:1027800009E0CB68D1E90121206804F0ABFB2068A7
:10279000816841F480418160E1E719E0CA684968D5
:1027A000206804F0B1FB5021206806E0CA6849683F
:1027B000206804F0BAFB6021206804F09DFBCEE79E
:1027C000CA684968206804F09FFB40212068F4E74C
:1027D000226801461046F0E7704770B5044600686D
:1027E00001694FF00005C943890715D4C168C94381
:1027F000890711D4E91E01610120207720688069D2
:102800008007204602D0FFF7E7FF04E000F098F8C9
:10281000204600F096F8257720680169C9434907EA
:1028200017D4C168C943490713D46FF0040101618B
:10283000022020772068806910F4407F204602D073
:10284000FFF7CAFF04E000F07BF8204600F079F8BB
:10285000257720680169C943090716D4C168C943AF
:10286000090712D46FF00801016104202077206865
:10287000C0698007204602D0FFF7AEFF04E000F0F9
:102880005FF8204600F05DF8257720680169C943AC
:10289000C90617D4C168C943C90613D46FF0100123
:1028A0000161082020772068C06910F4407F20462D
:1028B00002D0FFF791FF04E000F042F8204600F05C
:1028C00040F8257720680169C943C90708D1C16864
:1028D000C943C90704D1891E0161204600F032F8BE
:1028E00020680169C943090609D4C168C9430906BA
:1028F00005D46FF0800101612046FFF72AFE2068B1
:102900000169C943490609D4C168C943490605D4C8
:102910006FF040010161204600F020F82068016955
:10292000C94389060BD4C168C943890607D46FF02F
:10293000200101612046BDE87040FFF70BBE70BD6D
:10294000704770470068B0F1804F03D10249088892
:10295000401C088070470000080000207047704746
:1029600070470000F8B5016804460868CA684B69FA
:1029700010F00F0F4FF0000559D003F0010602F4DC
:102980009077374365D0C10705D0D10503D5216CB9
:1029900041F001012164410705D5D90703D0216C1D
:1029A00041F002012164810705D5D90703D0216CCC
:1029B00041F004012164010707D502F020013143F1
:1029C00003D0216C41F008012164216C00293AD028
:1029D000800604D5900602D5204605F094F82068BC
:1029E0004069216CC0F38010090700D460B3204611
:1029F00005F062F820684069400621D5206814304F
:102A000050E8001F21F0400140E80012002AF5D1F3
:102A1000A06BA8B16C490165A06BFEF7A3FF00286D
:102A200011D0A06B016D01B0BDE8F04008478306EE
:102A30000FD593060DD52046BDE8F84005F063B8E4
:102A40002046FFF78DFFF8BD2046FFF789FF25647C
:102A5000F8BD266B2023012E79D1C60677D5D60680
:102A600075D50868486800904869400640D5A16B54
:102A7000086840680004000CEAD0A28D8242E7D9C1
:102A8000E085C869B0F5807F2DD020680C3050E813
:102A9000001F21F4807140E80012002AF5D120685F
:102AA000143050E8001F21F0010140E80012002A14
:102AB000F5D12068143050E8001F21F0400140E8B3
:102AC0000012002AF5D184F83E30256320680C30CE
:102AD00050E8001F21F0100140E80012002AF5D153
:102AE000A06BFEF7F6FEA08DE18D401A81B229E0C1
:102AF000A08DE18D401A81B2E08D0028A8D0002978
:102B0000A6D020680C3050E8002F22F4907240E8E4
:102B10000026002EF5D12068143050E8002F22F056
:102B2000010240E80026002EF5D184F83E302563EE
:102B300020680C3050E8002F22F0100240E80023FB
:102B4000002BF5D12046FFF70AFFF8BDFFE7050689
:102B50002BD5150629D594F83D002128F5D1A0687C
:102B6000B0F5805F01D12069B0B1206A411C2162BB
:102B7000216800784860E08C401E0004000CE0846E
:102B8000E3D12068C16821F08001C1602068C1687C
:102B900041F04001C160D8E7206A0088C0F3080016
:102BA0004860206A801C2062E5E74006CDD55006CB
:102BB000CBD5CA68204622F04002CA6084F83D3076
:102BC00000F059F9C1E70000A97A000870B50400C7
:102BD00004D094F83D00002510B106E0012070BD3E
:102BE00084F83C50204600F023F8242084F83D006F
:102BF0002068C16821F40051C160204604F0E4FF60
:102C00002068016921F4904101612068416921F047
:102C10002A0141612068C16841F40051C160256406
:102C2000202084F83D0084F83E00002070BD0000A4
:102C3000F0B587B0044614216846FDF711FB3D4B03
:102C4000276800223C490224032507263B489F426F
:102C500021D1394B14331F6847F010071F601B68E0
:102C600003F0100305930B6843F001030B60096840
:102C700002AB01F0010105916902CDE9001483E87E
:102C800064006946FEF778FF002211462520FFF711
:102C900009F9252024E0284BDFF8A4C0103367454C
:102CA00022D11F6847F400371F601B6803F400330C
:102CB00005930B6843F001030B60096802AF01F054
:102CC000010105910C21CDE9001487E864006946F3
:102CD000FEF752FF002211462620FFF7E3F82620D8
:102CE000FFF7D2F807B0F0BD16488742FAD118684E
:102CF00040F480201860186800F48020059008686F
:102D000040F002000860086802AF00F00200059081
:102D10004FF44060CDE9000487E8640069460A4842
:102D2000FEF72AFF002211462720FFF7BBF82720D5
:102D3000D6E7000000100140303802400000024099
:102D400000440040004800400004024090F83E303B
:102D5000202B0ED159B152B190F83C30012B08D044
:102D6000012380F83C300023036304F0B3BF01204B
:102D7000704702207047000010B500680C49884277
:102D800003D10C48007806F021FD012209490A48C8
:102D9000FFF7DCFF07490122491C0848FFF7D6FF6F
:102DA00004490122BDE81040891C0548FFF7CEBF49
:102DB000001001401C000020CC1300201014002043
:102DC000541400202DE9F843044690F83D001F46B6
:102DD00016460D4620284CD1C5B1BEB194F83C0032
:102DE000012846D0012084F83C004FF00008C4F8C8
:102DF0004080212084F83D00FEF7E6FFA68481464E
:102E0000E684A068B0F5805F03D004E00120BDE84F
:102E1000F883206928B12E465FF0000584F83C80D5
:102E20000EE00026FAE78021204604F06EFFA0B9EC
:102E3000AEB116F8010B21684860E08C401EE084BA
:102E4000E08C4B464FF0000200970028EBD14FF08A
:102E50004001204604F059FF30B10320D7E735F890
:102E6000020BC0F30800E6E7202084F83D000020B4
:102E7000CDE70220CBE77047FEE700007CB50546B2
:102E8000EF208DF80000154C01208DF801006168DD
:102E9000080E8DF80200080C8DF80300080A8DF862
:102EA000040007208DF805108DF8060000268DF827
:102EB000076026700BE0012006F0BAFC207830B1E4
:102EC000267069460648FDF7D6F9002804D16D1E24
:102ED0002D042D0CEFD100207CBD0000E40000206B
:102EE0008416002000B589B0104803F049FD08B1F0
:102EF00003F0E2FE0E4803F0CEFC18B103F0DCFE56
:102F000009B000BD0A48094900880988421A09A188
:102F100001A804F09BFF002000904FF4784301AA21
:102F20003C21082003F01AFAEAE70000E60000203E
:102F300014180020BFE2C8DDC1BF3A2564000000BC
:102F40002DE9F043174C81460025208866884643CA
:102F5000A088A0F5D041043902D1A079012807D07A
:102F60000021084603F0DEF803F034FA0E4814E0BE
:102F70000020A0712A2767814FF02B08A4F80C804D
:102F8000014603F0CFF80120A071A4F80A80A781C0
:102F9000EAE700BFA0F800906D1CB542FAD3BDE887
:102FA000F083000020180020000008602DE9F04F99
:102FB0004A492A242B25898845F2105A4FF4305B60
:102FC0004FF4285E4FF448764FF0F00C49F2413947
:102FD0004FF4A07345F210374FF4F07280B13F48C0
:102FE0004FF00108494580F806800380A0F802C030
:102FF00001D0B9423ED12C2606814481858157E01B
:1030000036484FF00008494580F80680A0F800C017
:10301000438006D0A1F5D04CBCF1040C01D0B942DC
:103020000CD12C2606814481A1F5D0448581043C35
:1030300001D0B94244D10380428041E0514507D1DB
:10304000A0F808B0A0F80AE04FF42C5181810EE0FE
:10305000A1F5C853633B06D0222101812021418183
:10306000212181812CE02C210181458184810280F4
:10307000468025E0A1F5D04CBCF1040C09D05145A7
:103080000BD1A0F808B0A0F80AE04FF42C548481CA
:1030900021E02C260681458109E0A1F5C85CBCF140
:1030A000630C12D0222404812124448120248481B1
:1030B000A1F5D044043C01D0B94201D10280438043
:1030C000BDE8F04F002002F059BF4FF02C0CA0F8E3
:1030D00008C04481858106804280E9E720180020ED
:1030E0002DE9FE4F161ACDE900104FF000085D1AC9
:1030F00047464FF0FF30002E02DD4FF0010102E0A5
:1031000003D14FF000018B4602E08346C6F1000672
:10311000002D02DD4FF0010002E003D14FF000006E
:10312000824602E08246C5F10005AE4201DD34462A
:1031300000E02C46601C4FF00009029019E0009856
:103140000C9A81B2019880B200F018F8B0442F4474
:10315000A04504DD0198A8EB040858440190A7425B
:1031600003DD00983F1B5044009009F101001FFA55
:1031700080F902998945E2DDBDE8FE8F10B514465D
:1031800002F0D0FF03F026F90148048010BD0000D2
:10319000000008602DE9F8411D46079C1646884648
:1031A00007460B460094FFF79BFF3A462B464146E5
:1031B00010460094FFF794FF2B46324619463846D6
:1031C0000094FFF78DFF32462B464146104600948F
:1031D000FFF786FFBDE8F8812DE9F8431F4C1E4636
:1031E0008046A388089FA3F5D040043802D1A07977
:1031F000012807D0A2EB0800401C84B20D46DFF87E
:10320000609028E025880846A91AA5EB0803002548
:10321000A57132462A2565812B26491E5B1EA68193
:1032200089B29BB20097FFF7D7FF0120A07166819A
:10323000A581BDE8F8832946404602F073FF03F0FC
:10324000C9F80020494602E00F80401C80B2A0422D
:10325000FAD36D1CADB2B542EDD9EAE720180020D3
:10326000000008602DE9F05F3220FEF78DFB0121A0
:10327000002003F0B9F83220FEF786FB002002F0B0
:1032800071FEFC49FC4D45F21058AC1C888049F297
:10329000413346F6040C4FF6FF7245F21037FF2813
:1032A00004D3904202D0B0F5134F37D1D3202880F9
:1032B000208820882088268802EA002006438E8005
:1032C0009E422BD0BF2028802088208820882088FC
:1032D000268802EA002006438E8066451ED0D42050
:1032E0002880208820882088268802EA002006433B
:1032F0008E80BE4212D04FF45A40288020884FF46E
:103300005B402880208802EA00204FF45C422A803B
:10331000228802438A80B2F5004F7DD08888984287
:103320007BD1CF20288000202080C1202080302029
:103330002080ED202880642020800320208012201F
:10334000208081202080E820288085202080102077
:1033500020807A202080CB202880392020802C20BB
:103360002080002020803420208002202080F72030
:10337000288020202080EA202880002020802080B3
:10338000C02028801B202080C12028800120208090
:10339000C5202880302020802080C7202880B720AA
:1033A000208036202880482020803A202880552000
:1033B0002080B1202880002020801A202080B62084
:1033C00028800A202080A2202080F220288000204F
:1033D00020802620288001202080E02028800F20C7
:1033E00020802A20208028202080082020800E2075
:1033F00020800820208054202080A9202080432085
:1034000020800A2020800F20208000202080208023
:1034100020802080E12001E032E034E0288000209C
:103420002080152020801720208007202080112058
:103430002080062020802B202080562020803C20C9
:10344000208005202080102020800F2020803F2019
:10345000208020800F2020802B20288000202080AA
:103460002080012020803F2020802A2028800020EA
:10347000208020802080EF202080112028806FE095
:10348000A1F80480FEE3604571D11120288014204A
:10349000FEF77AFAD0202880072020804220208062
:1034A0001D202080D1202880002020801A2020800C
:1034B00009202080D2202880012020802220208006
:1034C000C0202880102020803B20208000202080E9
:1034D0000220208011202080C52028800320208009
:1034E000C8202880002020802520208021202080C6
:1034F00005202080002020800A2020806520208058
:103500002520208077202080502020800F202080C0
:1035100000202080F820288001202080FE202880A4
:103520000020208002202080202028803620288033
:10353000082020803A202880552020802B202880B9
:10354000002020802080012020803F2020802A2011
:10355000288000202080208001202080DF20208003
:103560007820FEF711FA292001F035BCFFE7B842B8
:103570007ED1ED20288001202080FE202080EE20BA
:103580002880DE20208021202080F120288001203A
:103590002080DF20288010202080C42028808F20D9
:1035A0002080C620288000202080E22020802080EB
:1035B0002080BF202880AA202080B02028800D20D5
:1035C0002080002020800D202080002020801120DD
:1035D00020800020208019202080002020802120B1
:1035E0002080002020802D202080002020803D2071
:1035F0002080002020805D202080002020805D2011
:10360000208000202080B120288080202080002081
:1036100020808B2020800020208096202080002089
:103620002080B2202880002020802080022020805E
:10363000002020800320208000202080B3202880CC
:1036400000202080208020802080208020802080FA
:10365000208020802080208020802080208020806A
:10366000208020802080208020802080208005E015
:10367000FEE3000020180020FEFF0760208020806D
:10368000B42028808B20208000202080962020805D
:1036900000202080A120208000202080B5202880CC
:1036A0000220208000202080032020800020208015
:1036B0000420208000202080B62028800020208048
:1036C0002080B72028800020208020803F2020807C
:1036D000002020805E202080002020806420208028
:1036E000002020808C20208000202080AC202080A2
:1036F00000202080DC20208000202080702020807E
:10370000002020809020208000202080EB2020803E
:1037100000202080DC20208000202080B82028800D
:103720000020208020802080208020802080208019
:103730002080BA2028802420208000202080208023
:103740002080C1202880202020800020208054203C
:10375000208000202080FF20208000202080C220A8
:1037600028800A2020800020208004202080002043
:103770002080C32028803C202080002020803A2008
:1037800020800020208039202080002020803720C9
:103790002080002020803C202080002020803620B7
:1037A00020800020208032202080002020802F20B8
:1037B0002080002020802C202080002020802920B4
:1037C00020800020208026202080002020802420AF
:1037D00020800020208024202080002020802320A2
:1037E0002080002020803C20208000202080362067
:1037F00020800020208032202080002020802F2068
:103800002080002020802C20208000202080292063
:10381000208000202080262020800020208024205E
:103820002080002020802420208000202080232051
:10383000208000202080C42028806220208000205A
:1038400020800520208000202080842020800020EF
:103850002080F02020800020208018202080002060
:103860002080A4202080002020801820208000209C
:10387000208050202080002020800C2020800020EC
:10388000208017202080002020809520208000208C
:103890002080F320208000202080E620208000204F
:1038A0002080C520288032202080002020804420D5
:1038B000208000202080652020800020208076202D
:1038C0002080002020808820208000202080C620AA
:1038D00028802020208000202080172020800020A9
:1038E00020800120208000202080C7202880002008
:1038F0002080208020802080C820288000202080F8
:10390000208020802080C9202880002020802080E6
:1039100020802080208020802080208020802080A7
:10392000208020802080208020802080E02028802F
:1039300016202080002020801C2020800020208055
:103940002120208000202080362020800020208020
:1039500046202080002020805220208000202080CF
:1039600064202080002020807A2020800020208079
:103970008B20208000202080992020800020208023
:10398000A820208000202080B920208000202080D6
:10399000C420208000202080CA2020800020208099
:1039A000D220208000202080D9202080002020806C
:1039B000E020208000202080F32020800020208034
:1039C000E120288016202080002020801C202080DC
:1039D000002020802220208000202080362020808F
:1039E0000020208045202080002020805220208040
:1039F0000020208064202080002020807A202080E9
:103A0000002020808B202080002020809920208092
:103A100000202080A820208000202080B920208045
:103A200000202080C420208000202080CA20208008
:103A300000202080D220208000202080D8202080DC
:103A400000202080E020208000202080F3202080A3
:103A500000202080E2202880052020800020208077
:103A60000B202080002020801B2020800020208030
:103A700034202080002020804420208000202080CE
:103A80004F20208000202080612020800020208086
:103A90007920208000202080882020800020208025
:103AA0009720208000202080A620208000202080D9
:103AB000B720208000202080C2202080002020808D
:103AC000C720208000202080D1202080002020805E
:103AD000D620208000202080DD2020800020208033
:103AE000F320208000202080E320288005202080F3
:103AF000002020800A202080002020801C202080A0
:103B0000002020803320208000202080442020803E
:103B100000202080502020800020208062202080F3
:103B20000020208078202080002020808820208095
:103B3000002020809720208000202080A620208048
:103B400000202080B720208000202080C2202080FC
:103B500000202080C720208000202080D1202080CD
:103B600000202080D520208000202080DD202080A3
:103B700000202080F320208000202080E420288066
:103B80000120208000202080012020800020208033
:103B900002202080002020802A20208000202080F9
:103BA0003C202080002020804B202080002020808E
:103BB0005D20208000202080742020800020208034
:103BC00084202080002020809320208000202080DE
:103BD000A220208000202080B32020800020208090
:103BE000BE20208000202080C42020800020208053
:103BF000CD20208000202080D32020800020208025
:103C0000DD20208000202080F320208000202080E4
:103C1000E520288000202080208020802080022035
:103C200020800020208029202080002020803C202F
:103C30002080002020804B202080002020805D20DC
:103C4000208000202080742020800020208084207C
:103C50002080002020809320208000202080A2202F
:103C6000208000202080B320208000202080BE20E3
:103C7000208000202080C420208000202080CD20B3
:103C8000208000E02AE100202080D3202080002036
:103C90002080DC20208000202080F3202080002055
:103CA0002080E620288011202080002020803420E1
:103CB0002080002020805620208000202080762038
:103CC0002080002020807720208000202080662017
:103CD00020800020208088202080002020809920C3
:103CE000208000202080BB20208000202080992080
:103CF0002080002020806620208000202080552009
:103D00002080002020805520208000202080452019
:103D1000208000202080432020800020208044201C
:103D2000208000202080E720288032202080002072
:103D300020805520208000202080762020800020B8
:103D400020806620208000202080672020800020A6
:103D50002080672020800020208087202080002075
:103D600020809920208000202080BB2020800020FF
:103D70002080992020800020208077202080002033
:103D80002080442020800020208056202080002099
:103D900020802320208000202080332020800020CD
:103DA00020804520208000202080E82028800020DE
:103DB0002080208099202080002020808720208063
:103DC00000202080882020800020208077202080F4
:103DD00000202080662020800020208088202080F5
:103DE00000202080AA20208000202080BB2020806E
:103DF00000202080992020800020208066202080C4
:103E00000020208055202080002020805520208008
:103E1000002020804420208000202080442020801A
:103E2000002020805520208000202080E92028804C
:103E3000AA20208000202080208020802880AA20A6
:103E40002080CF202880002020802080208020809B
:103E50002080208020802080208020802080208062
:103E600020802080208020802080F020288000E09A
:103E700032E0002020805020208000202080208000
:103E80002080F320288000202080F9202880062030
:103E900020801020208029202080002020803A20AF
:103EA000288055202080112028806420FDF76CFD9B
:103EB000292028803520288000202080512028803B
:103EC000FF202080532028802C202080552028800F
:103ED000822020802C20FDE340457CD14FF47043AC
:103EE0005521184602F080FA4FF20104AA2120461B
:103EF00002F07AFA661C5221304602F075FAA71CCD
:103F00000821384602F070FA4FF2040801214046B9
:103F100002F06AFA0D214FF4304002F065FA0D21EB
:103F20004BF2010002F060FA0D214BF2020002F0A8
:103F30005BFA4FF436493421484602F055FA3421F1
:103F40004BF2016002F050FA34214BF2026002F0B1
:103F50004BFA4FF4314A0D21504602F045FA4BF22C
:103F6000011B0D21584602F03FFA0D214BF20210C1
:103F700002F03AFA34214FF4374002F035FA342196
:103F80004BF2017002F030FA34214BF2027002F071
:103F90002BFA00214FF4324002F026FA00214BF2B6
:103FA000012002F021FA00214BF2022002F01CFA5B
:103FB00024214FF4384002F017FA24214BF6010077
:103FC00002F012FA24214BF6020002F00DFA012150
:103FD0004FF43F4000E0FCE302F006FA0F214FF4FB
:103FE000334002F001FA0F214BF2013002F0FCF9EC
:103FF0000F214BF2023002F0F7F934214FF439402F
:1040000002F0F2F934214BF6011002F0EDF93421FF
:104010004BF6021002F0E8F908214FF4354002F0A7
:10402000E3F908214BF2015002F0DEF908214BF2CE
:10403000025002F0D9F903214FF4424002F0D4F9C2
:1040400024214FF43A4002F0CFF924214BF601200D
:1040500002F0CAF924214BF6022002F0C5F9002132
:104060004FF43C4002F0C0F978214BF6014002F0D9
:10407000BBF900214BF6024002F0B6F900214FF4E3
:104080003D4002F0B1F978214BF6015002F0ACF955
:1040900000214BF6025002F0A7F900214FF43E40F8
:1040A00002F0A2F964214BF6016002F09DF90021B3
:1040B0004FF4514002F098F933214DF2011002F013
:1040C00093F900214DF2021002F08EF934214DF2E5
:1040D000031002F089F900214DF2041002F084F976
:1040E0003A214DF2051002F07FF900214DF2061041
:1040F00002F07AF94A214DF2071002F075F9002119
:104100004DF2081002F070F95C214DF2091002F036
:104110006BF900214DF20A1002F066F981214DF28F
:104120000B1002F061F900214DF20C1002F05CF965
:10413000A6214DF20D1002F057F900214DF20E109C
:1041400002F052F9E5214DF20F1002F04DF9012174
:104150004DF2101002F048F913214DF2111002F047
:1041600043F901214DF2121002F03EF954214DF2B3
:10417000131002F039F901214DF2141002F034F954
:1041800082214DF2151002F02FF901214DF2161087
:1041900002F02AF9CA214DF2171002F025F9022186
:1041A0004DF2181002F020F900214DF2191002F022
:1041B0001BF902214DF21A1002F016F901214DF2FD
:1041C0001B1002F011F902214DF21C1002F00CF943
:1041D00034214DF21D1002F007F902214DF21E109C
:1041E00002F002F967214DF21F1002F0FDF80221E2
:1041F0004DF2201002F0F8F884214DF2211002F067
:10420000F3F802214DF2221002F0EEF8A4214DF253
:10421000231002F0E9F802214DF2241002F0E4F834
:10422000B7214DF2251002F0DFF802214DF22610E1
:1042300002F0DAF8CF214DF2271002F0D5F8022172
:104240004DF2281002F0D0F8DE214DF2291002F0D4
:10425000CBF802214DF22A1002F0C6F8F2214DF2FD
:104260002B1002F0C1F802214DF22C1002F0BCF824
:10427000FE214DF22D1002F0B7F803214DF22E1061
:1042800002F0B2F810214DF22F1002F0ADF8032128
:104290004DF2301002F0A8F833214DF2311002F047
:1042A000A3F803214DF2321002F09EF86D214DF279
:1042B000331002F099F800214FF4524002F094F8C4
:1042C00033214DF2012002F08FF800214DF202203F
:1042D00002F08AF834214DF2032002F085F8002123
:1042E0004DF2042002F080F83A214DF2052002F050
:1042F0007BF800214DF2062002F076F84A214DF2BB
:10430000072002F071F800214DF2082002F06CF84D
:104310005C214DF2092002F067F800214DF20A20DD
:1043200002F062F881214DF20B2002F05DF80021CD
:104330004DF20C2002F058F8A6214DF20D2002F0AB
:1043400053F800214DF20E2002F04EF8E5214DF217
:104350000F2002F049F801214DF2102002F044F83C
:1043600013214DF2112002F03FF801214DF21220ED
:1043700002F03AF854214DF2132002F035F80121F1
:104380004DF2142002F030F882214DF2152002F097
:104390002BF801214DF2162002F026F8CA214DF229
:1043A000172002F021F802214DF2182002F01CF82B
:1043B00000214DF2192002F017F802214DF21A20C7
:1043C00002F012F801214DF21B2002F00DF802213B
:1043D0004DF21C2002F008F834214DF21D2002F0AD
:1043E00003F802214DF21E2001F0FEFF67214DF27D
:1043F0001F2001F0F9FF02214DF2202001F0F4FF0F
:1044000084214DF2212001F0EFFF02214DF2222004
:1044100001F0EAFFA4214DF2232001F0E5FF022183
:104420004DF2242001F0E0FFB7214DF2252001F0EC
:10443000DBFF02214DF2262001F0D6FFCF214DF205
:10444000272001F0D1FF02214DF2282001F0CCFFFE
:10445000DE214DF2292001F0C7FF02214DF22A2072
:1044600001F0C2FFF2214DF22B2001F0BDFF02212D
:104470004DF22C2001F0B8FFFE214DF22D2001F06D
:10448000B3FF03214DF22E2001F0AEFF10214DF2BB
:104490002F2001F0A9FF03214DF2302001F0A4FFED
:1044A00033214DF2312001F09FFF03214DF23220E4
:1044B00001F09AFF6D214DF2332001F095FF0021AC
:1044C0004FF4534001F090FF33214DF2013001F0E1
:1044D0008BFF00214DF2023001F086FF34214DF2B6
:1044E000033001F081FF00214DF2043001F07CFF28
:1044F0003A214DF2053001F077FF00214DF20630F0
:1045000001F072FF4A214DF2073001F06DFF0021EA
:104510004DF2083001F068FF5C214DF2093001F0E6
:1045200063FF00214DF20A3001F05EFF81214DF260
:104530000B3001F059FF00214DF20C3001F054FF17
:10454000A6214DF20D3001F04FFF00214DF20E304B
:1045500001F04AFFE5214DF20F3001F045FF012146
:104560004DF2103001F040FF13214DF2113001F0F7
:104570003BFF01214DF2123001F036FF54214DF284
:10458000133001F031FF01214DF2143001F02CFF06
:1045900082214DF2153001F027FF01214DF2163036
:1045A00001F022FFCA214DF2173001F01DFF022158
:1045B0004DF2183001F018FF00214DF2193001F0D2
:1045C00013FF02214DF21A3001F00EFF01214DF2CE
:1045D0001B3001F009FF02214DF21C3001F004FFF5
:1045E00034214DF21D3001F0FFFE02214DF21E304C
:1045F00001F0FAFE67214DF21F3001F0F5FE0221B5
:104600004DF2203001F0F0FE84214DF2213001F016
:10461000EBFE02214DF2223001F0E6FEA4214DF224
:10462000233001F0E1FE02214DF2243001F0DCFEE6
:10463000B7214DF2253001F0D7FE02214DF2263090
:1046400001F0D2FECF214DF2273001F0CDFE022144
:104650004DF2283001F0C8FEDE214DF2293001F084
:10466000C3FE02214DF22A3001F0BEFEF2214DF2CE
:104670002B3001F0B9FE02214DF22C3001F0B4FED6
:10468000FE214DF22D3001F0AFFE03214DF22E3010
:1046900001F0AAFE10214DF22F3001F0A5FE0321FA
:1046A0004DF2303001F0A0FE33214DF2313001F0F7
:1046B0009BFE03214DF2323001F096FE6D214DF24A
:1046C000333001F091FE00214FF4544001F08CFE94
:1046D000332100E07FE34DF2014001F085FE00212F
:1046E0004DF2024001F080FE34214DF2034001F012
:1046F0007BFE00214DF2044001F076FE3A214DF29E
:10470000054001F071FE00214DF2064001F06CFE03
:104710004A214DF2074001F067FE00214DF20840AA
:1047200001F062FE5C214DF2094001F05DFE0021C6
:104730004DF20A4001F058FE81214DF20B4001F08C
:1047400053FE00214DF20C4001F04EFEA6214DF229
:104750000D4001F049FE00214DF20E4001F044FEF3
:10476000E5214DF20F4001F03FFE01214DF21040D6
:1047700001F03AFE13214DF2114001F035FE012106
:104780004DF2124001F030FE54214DF2134001F081
:104790002BFE01214DF2144001F026FE82214DF244
:1047A000154001F021FE01214DF2164001F01CFEE2
:1047B000CA214DF2174001F017FE02214DF21840B8
:1047C00001F012FE00214DF2194001F00DFE022110
:1047D00000E002E34DF21A4001F006FE01214DF225
:1047E0001B4001F001FE02214DF21C4001F0FCFDD6
:1047F00034214DF21D4001F0F7FD02214DF21E4023
:1048000001F0F2FD67214DF21F4001F0EDFD0221A4
:104810004DF2204001F0E8FD84214DF2214001F0ED
:10482000E3FD02214DF2224001F0DEFDA4214DF214
:10483000234001F0D9FD02214DF2244001F0D4FDC6
:10484000B7214DF2254001F0CFFD02214DF2264067
:1048500001F0CAFDCF214DF2274001F0C5FD022134
:104860004DF2284001F0C0FDDE214DF2294001F05B
:10487000BBFD02214DF22A4001F0B6FDF2214DF2BE
:104880002B4001F0B1FD02214DF22C4001F0ACFDB6
:10489000FE214DF22D4001F0A7FD03214DF22E40E7
:1048A00001F0A2FD10214DF22F4001F09DFD0321EA
:1048B0004DF2304001F098FD33214DF2314001F0CE
:1048C00093FD03214DF2324001F08EFD6D214DF23A
:1048D000334001F089FD00214FF4554001F084FD83
:1048E00033214DF2015001F07FFD00214DF20250C5
:1048F00001F07AFD34214DF2035001F075FD0021E5
:104900004DF2045001F070FD3A214DF2055001F0D6
:104910006BFD00214DF2065001F066FD4A214DF27B
:10492000075001F061FD00214DF2085001F05CFDDF
:104930005C214DF2095001F057FD00214DF20A5063
:1049400001F052FD81214DF20B5001F04DFD00218F
:104950004DF20C5001F048FDA6214DF20D5001F032
:1049600043FD00214DF20E5001F03EFDE5214DF2D8
:104970000F5001F039FD01214DF2105001F034FDCE
:1049800013214DF2115001F02FFD01214DF2125073
:1049900001F02AFD54214DF2135001F025FD0121B3
:1049A0004DF2145001F020FD82214DF2155001F01E
:1049B0001BFD01214DF2165001F016FDCA214DF2EA
:1049C000175001F011FD02214DF2185001F00CFDBD
:1049D00000214DF2195001F007FD02214DF21A504D
:1049E00001F002FD01214DF21B5001F0FDFC0221FE
:1049F0004DF21C5001F0F8FC34214DF21D5001F035
:104A0000F3FC02214DF21E5001F0EEFC67214DF245
:104A10001F5001F0E9FC02214DF2205001F0E4FCAE
:104A200084214DF2215001F0DFFC02214DF2225091
:104A300001F0DAFCA4214DF2235001F0D5FC022153
:104A40004DF2245001F0D0FCB7214DF2255001F079
:104A5000CBFC02214DF2265001F0C6FCCF214DF2D5
:104A6000275001F0C1FC02214DF2285001F0BCFC9E
:104A7000DE214DF2295001F0B7FC02214DF22A50FF
:104A800001F0B2FCF2214DF22B5001F0ADFC0221FD
:104A90004DF22C5001F0A8FCFE214DF22D5001F0FA
:104AA000A3FC03214DF22E5001F09EFC10214DF28B
:104AB0002F5001F099FC03214DF2305001F094FC8D
:104AC00033214DF2315001F08FFC03214DF2325071
:104AD00001F08AFC6D214DF2335001F085FC00217C
:104AE0004FF4564001F080FC33214DF2016001F09B
:104AF0007BFC00214DF2026001F076FC34214DF286
:104B0000036001F071FC00214DF2046001F06CFCC7
:104B10003A214DF2056001F067FC00214DF206607C
:104B200001F062FC4A214DF2076001F05DFC0021BA
:104B30004DF2086001F058FC5C214DF2096001F073
:104B400053FC00214DF20A6001F04EFC81214DF230
:104B50000B6001F049FC00214DF20C6001F044FCB7
:104B6000A6214DF20D6001F03FFC00214DF20E60D8
:104B700001F03AFCE5214DF20F6001F035FC012116
:104B80004DF2106001F030FC13214DF2116001F084
:104B90002BFC01214DF2126001F026FC54214DF254
:104BA000136001F021FC01214DF2146001F01CFCA6
:104BB00082214DF2156001F017FC01214DF21660C3
:104BC00001F012FCCA214DF2176001F00DFC022128
:104BD0004DF2186001F008FC00214DF2196001F05F
:104BE00003FC02214DF21A6001F0FEFB01214DF29F
:104BF0001B6001F0F9FB02214DF21C6001F0F4FB97
:104C000034214DF21D6001F0EFFB02214DF21E60D8
:104C100001F0EAFB67214DF21F6001F0E5FB022184
:104C20004DF2206001F0E0FB84214DF2216001F0A3
:104C3000DBFB02214DF2226001F0D6FBA4214DF2F4
:104C4000236001F0D1FB02214DF2246001F0CCFB86
:104C5000B7214DF2256001F0C7FB02214DF226601D
:104C600001F0C2FBCF214DF2276001F0BDFB022114
:104C70004DF2286001F0B8FBDE214DF2296001F011
:104C8000B3FB02214DF22A6001F0AEFBF2214DF29E
:104C90002B6001F0A9FB02214DF22C6001F0A4FB76
:104CA000FE214DF22D6001F09FFB03214DF22E609D
:104CB00001F09AFB10214DF22F6001F095FB0321CA
:104CC0004DF2306001F090FB33214DF2316001F084
:104CD0008BFB03214DF2326001F086FB6D214DF21A
:104CE000336001F081FB5521184601F07DFBAA21BC
:104CF000204601F079FB5221304601F075FB082176
:104D0000384601F071FB0021404601F06DFBCC21DB
:104D1000504601F069FB0021584601F065FB052172
:104D2000484601F061FB70214FF4374001F05CFB15
:104D300070214BF2017001F057FB01214FF4384014
:104D400001F052FB03214BF6010001F04DFB032162
:104D50004BF6020001F048FB03214BF6030001F083
:104D600043FB02214FF43C4001F03EFB00214BF697
:104D7000014001F039FB00214BF6024001F034FB09
:104D8000D0214FF4494001F02FFB02214CF60110D5
:104D900001F02AFB50214CF6021001F025FB5021B6
:104DA0004CF6031001F020FB50214CF6041001F0EA
:104DB0001BFB00214FF4545001F016FB55214FF41A
:104DC000685001F011FB4FF488502880782004F0DF
:104DD0003DFD4FF424502880FEE3A0F513414FF42D
:104DE00080744FF4E06740F2022840F23F154FF420
:104DF000274A253931D0FE1DA0F513414FF4017922
:104E000028397DD0A0F513414FF4887B4FF41C5A0C
:104E1000203976D0A0F51341313973D0A0F5A841DF
:104E2000083970D0A0F5A8514FF4407B05396BD0FC
:104E3000A0F53541053968D0A0F5454105397CD04C
:104E4000A0F50941893979D0A0F58A41313976D068
:104E5000A0F58A41353973D0BEE747F6F001E52069
:104E600001F0C2FA2146012001F0BEFA39460220C3
:104E700001F0BAFA41F23001032001F0B5FA002145
:104E8000042001F0B1FA4146082001F0ADFA0021FA
:104E9000092001F0A9FA00210A2001F0A5FA002159
:104EA0000C2001F0A1FA00210D2001F09DFA002153
:104EB0000F2001F099FA0021102001F095FA072146
:104EC000112001F091FA0021122001F08DFA002149
:104ED000132001F089FA0021072001F085FA41F240
:104EE0009061102001F080FA40F22721112001F09A
:104EF0007BFA9D21122001F077FA4FF4C85105E0AA
:104F000082E02BE1CEE1A0E23AE3FDE3132001F0E1
:104F10006BFA2521292001F067FA0D212B2001F0E1
:104F200063FA0721302001F05FFA40F203313120AB
:104F300001F05AFA0321322003E0E6E3E6E3E6E378
:104F4000E6E301F051FA40F20621352001F04CFA77
:104F50000821362001F048FA40F20641372001F0DE
:104F600043FA4FF44171382001F03EFA072139200D
:104F700001F03AFA40F202613C2001F035FA0821D2
:104F80003D2001F031FA0021502001F02DFAEF21EF
:104F9000512001F029FA0021522001F025FA29467A
:104FA000532001F021FA5146602001F01DFA012141
:104FB000612001F019FA00216A2001F015FA0021A0
:104FC000802001F011FA0021812001F00DFA00216A
:104FD000822001F009FA0021832001F005FA002166
:104FE000842001F001FA0021852001F0FDF9102153
:104FF000902001F0F9F94FF4C061922001F0F4F92A
:1050000040F233110720FCE341F28F01EC2001F064
:10501000EBF941F23421EF2001F0E6F921460120BD
:1050200001F0E2F93946022001F0DEF941F23001E7
:10503000032001F0D9F90021042001F0D5F94146FF
:10504000082001F0D1F90021092001F0CDF900215B
:105050000A2001F0C9F901210C2001F0C5F9002155
:105060000D2001F0C1F900210F2001F0BDF9002150
:10507000102001F0B9F90721112001F0B5F9002144
:10508000122001F0B1F90021132001F0ADF9012146
:10509000072001F0A9F93220FCF776FC41F290419B
:1050A000102001F0A1F940F22721112001F09CF914
:1050B0003220FCF769FC8A21122001F095F9322098
:1050C000FCF762FC4FF4D051132001F08DF906215A
:1050D000292001F089F90D212B2001F085F93220DA
:1050E000FCF752FC0021202001F07EF90021212054
:1050F00001F07AF93220FCF747FC0021302001F062
:1051000073F940F20461312001F06EF940F205318B
:10511000322001F069F90021352001F065F940F6EF
:105120000941362001F060F94946372001F05CF969
:1051300040F20131382001F057F93146392001F0B1
:1051400053F900213C2001F04FF940F60A213D209F
:1051500001F04AF93220FCF717FC3AE10021084639
:1051600001F042F92146012001F03EF939460220C2
:1051700001F03AF941F23001032001F035F9002144
:10518000042001F031F94146082001F02DF90021F9
:10519000092001F029F900210A2001F025F9012157
:1051A0000C2001F021F900210D2001F01DF9002152
:1051B0000F2001F019F93220FCF7E6FB40F2011153
:1051C000072001F011F93220FCF7DEFB4FF4865185
:1051D000102001F009F90721112001F005F95B46C3
:1051E0005946122001F000F94FF43061132001F00C
:1051F000FBF80021292001F0F7F844F210012B20E0
:1052000001F0F2F80021502001F0EEF8EF215120DA
:1052100001F0EAF80021522001F0E6F82946532077
:1052200001F0E2F85146602001F0DEF80121612032
:1052300001F0DAF800216A2001F0D6F80021802080
:1052400001F0D2F80021812001F0CEF80021822067
:1052500001F0CAF80021832001F0C6F80021842063
:1052600001F0C2F80021852001F0BEF81021902045
:1052700001F0BAF80021922001F0B6F80121932044
:1052800001F0B2F81946952001F0AEF80021972000
:1052900001F0AAF80021982001F0A6F840F273115D
:1052A000072079E341F21401E72001F09DF821463F
:1052B000012001F099F84FF40071022001F094F8F8
:1052C00041F23801032001F08FF84146082001F037
:1052D0008BF80021092001F087F800210A2001F055
:1052E00083F800210C2001F07FF800210D2001F04F
:1052F0007BF800210F2001F077F80021102001F049
:1053000073F80721112001F06FF80021122001F03D
:105310006BF80021132001F067F8C820FCF734FB7C
:1053200041F29061102001F05FF840F22721112036
:1053300001F05AF83220FCF727FB0C21122001F073
:1053400053F83220FCF720FB4FF40061132001F0EA
:105350004BF81121292001F047F80B212B2001F0F7
:1053600043F83220FCF710FB0021202001F03CF82C
:105370002946212001F038F80021302001F034F8CE
:105380004FF483731946312001F02EF800213220AA
:1053900001F02AF84946352001F026F841F20A6169
:1053A000362001F021F83146372001F01DF819466A
:1053B000382001F019F83146392001F015F840F293
:1053C00002413C2001F010F840F60F413D2001F071
:1053D0000BF80021502001F007F8EF21512001F0D7
:1053E00003F80021522000F0FFFF2946532000F06F
:1053F000FBFF5146602000F0F7FF0121612000F023
:10540000F3FF00216A2000F0EFFF0021802000F070
:10541000EBFF0021812000F0E7FF0021822000F057
:10542000E3FF0021832000F0DFFF0021842000F053
:10543000DBFF0021852000F0D7FF1021902000F035
:10544000D3FF4FF4C0619220FEE32146012000F01B
:10545000CBFF3946022000F0C7FF41F230010320A4
:1054600000F0C2FF0021042000F0BEFF40F207213F
:10547000082000F0B9FF0021092000F0B5FF00214D
:105480000A2000F0B1FF00210C2000F0ADFF002148
:105490000D2000F0A9FF00210F2000F0A5FF14202F
:1054A000FCF772FA41F2B061102000F09DFF01217B
:1054B000112000F099FF0121172000F095FF4FF413
:1054C0009C71122000F090FF4FF40061132000F057
:1054D0008BFF0921292000F087FF09212A2000F0F5
:1054E00083FF0021A42000F07FFF0021502000F066
:1054F0007BFFEF21512000F077FF0021522000F0C8
:1055000073FF2946532000F06FFF5146602000F0E2
:105510006BFF0121612000F067FF00216A2000F08D
:1055200063FF0021802000F05FFF0021812000F058
:105530005BFF0021822000F057FF0021832000F054
:1055400053FF0021842000F04FFF0021852000F050
:105550004BFF1321902000F047FF0021922000F024
:1055600043FF0321932000F03FFF5946952000F0B0
:105570003BFF40F27311072000F036FF32200DE1AF
:105580000021072000F030FF3220FCF7FDF94FF436
:105590008E71122000F028FF0121A42000F024FFCA
:1055A0000F21082000F020FF08210A2000F01CFF36
:1055B00008210D2000F018FF3146302000F014FFC4
:1055C0000721312000F010FF40F20361322000F08B
:1055D0000BFF3946332000E0FEE300F005FF4146B3
:1055E000342000F001FF0221352000F0FDFE41F6DD
:1055F0000F71362000F0F8FE3146372000F0F4FE3F
:105600000021382000F0F0FE0021392000F0ECFEEF
:1056100031463A2000F0E8FE00213B2000F0E4FE95
:1056200007213C2000F0E0FE00213D2000F0DCFEE0
:105630003220FCF7A9F90121072000F0D5FE012155
:10564000172000F0D1FE3220FCF79EF94FF4BD5137
:10565000102000F0C9FE40F21721112000F0C4FE16
:105660004FF48F71122000F0BFFE4FF470611320D1
:1056700000F0BAFE00212A2000F0B6FE0A212920FF
:1056800000F0B2FE4FF49F71122000F0ADFE002139
:10569000502000F0A9FEEF21512000F0A5FE0021CE
:1056A000522000F0A1FE2946532000F09DFE5146F5
:1056B000602000F099FE0121612000F095FE00219C
:1056C0006A2000F091FE0021802000F08DFE002174
:1056D000812000F089FE0021822000F085FE00215B
:1056E000832000F081FE0021842000F07DFE002157
:1056F000852000F079FE1321902000F075FE5946B8
:10570000922000F071FE04E04BE046E10DE2C0E2C1
:1057100079E30521932000F067FE0021952000F039
:1057200063FE0021972000F05FFE0021982000F02A
:105730005BFE2146012000F057FE3946022000F0B2
:1057400053FE41F23801032000F04EFE00210420F8
:1057500000F04AFE00210C2000F046FE00210F2040
:1057600000F042FE0021202000F03EFE002121201A
:1057700000F03AFE2121072000F036FE1420FCF74D
:1057800003F96121072000F02FFE1420FCF7FCF83C
:1057900040F27311072000F027FE1420FCF7F4F804
:1057A0002CE30021084600F01FFE0021084600F00F
:1057B0001BFE0021084600F017FE0021084600F0FD
:1057C00013FE0121A42000F00FFE1420FCF7DCF8EA
:1057D0005146602000F008FE46464146082000F091
:1057E00003FE4FF40571302000F0FEFD43F2157109
:1057F000312000F0F9FD40F20461322000F0F4FDA8
:1058000000E0C5E040F61661332000F0EDFD42F205
:105810001121342000F0E8FD4FF4A851352000F0AC
:10582000E3FD48F20751362000F0DEFD41F207416A
:10583000372000F0D9FD41F20341382000F0D4FDBB
:105840002021392000F0D0FD1A21902000F0CCFD5D
:105850000021102000F0C8FD0721112000F0C4FD38
:105860000021122000F0C0FD0021132000F0BCFD3B
:105870001420FCF789F84FF4E661102000F0B4FD25
:1058800040F23711112000F0AFFD1420FCF77CF836
:105890004FF4DC71122000F0A7FD1420FCF774F81F
:1058A0004FF47061132000F09FFD80212A2000F04A
:1058B0009BFD4821292000F097FD1420FCF764F897
:1058C0002146012000F090FD3946022000F08CFDB9
:1058D00041F23801032000F087FD3146082000F036
:1058E00083FD00210A2000F07FFD00210C2000F044
:1058F0007BFD00210D2000F077FD30210E2000F00F
:1059000073FD0021502000F06FFDEF21512000F0C9
:105910006BFD0021522000F067FD2946532000F066
:1059200063FD5146602000F05FFD0121612000F021
:105930005BFD00216A2000F057FD1121902000F04E
:1059400053FD4FF4C061922000F04EFD40F2024141
:10595000932000F049FD0221942000F045FD142021
:10596000FCF712F80121072000F03EFD1420FCF79F
:105970000BF86121072000F037FD40F2731107207A
:1059800000F032FD0021202000F02EFD002121201A
:1059900000F02AFD222100202EE20021084600F01E
:1059A00023FD0021084600F01FFD1420FBF7ECFF4B
:1059B0000021084600F018FD0021084600F014FD03
:1059C0000021084600F010FD0021084600F00CFD03
:1059D0000121A42000F008FD1420FBF7D5FF51465B
:1059E000602000F001FD40F60601082000F0FCFCFC
:1059F00040F203731946302000F0F6FC01213120FB
:105A000000F0F2FC0421322000F0EEFC4FF4817132
:105A1000332000F0E9FC5E465946342000F0E4FCF7
:105A200040F20311352000F0DFFC1F21362000F08A
:105A3000DBFC1946372000F0D7FC0121382000F0AC
:105A4000D3FC0421392000F0CFFC1521902000F078
:105A5000CBFC4FF48261102000F0C6FC40F24721DD
:105A6000112000F0C1FC4FF4DE71122000F0BCFCEC
:105A70004FF46061132000F0B7FC7820FBF784FF3F
:105A80002146012000F0B0FC4FF40071022000F02C
:105A9000ABFC41F23001032000F0A6FC08210A20F3
:105AA00000F0A2FC00210C2000F09EFC20210E2022
:105AB00000F09AFC00210F2000F096FC002120202D
:105AC00000F092FC0021212000F08EFC3D212A20D4
:105AD00000F08AFC1420FBF757FF2D21292000F04D
