:020000040800F2
:1000000000000320552200088D1D00088F1D0008E8
:10001000911D0008931D0008951D000800000000B8
:10002000000000000000000000000000971D000814
:10003000991D0008000000009B1D00089D1D000880
:10004000A5220008A5220008A5220008A522000874
:10005000A5220008A5220008A5220008A522000864
:10006000A5220008A5220008A5220008A522000854
:10007000A5220008A5220008A5220008A522000844
:10008000B11D0008C11D0008A5220008A522000816
:10009000A5220008A5220008A5220008A522000824
:1000A000A5220008A5220008A5220008A522000814
:1000B000D11D0008A5220008A5220008A5220008DD
:1000C000A5220008A5220008A5220008A5220008F4
:1000D000A5220008E11D0008F11D0008011E00080E
:1000E000A5220008A5220008A5220008A5220008D4
:1000F000A5220008A5220008A5220008A5220008C4
:10010000A5220008A5220008A5220008A5220008B3
:10011000A5220008A5220008A5220008A5220008A3
:10012000A5220008A5220008A5220008A522000893
:10013000A5220008A5220008A5220008A522000883
:10014000A5220008A5220008A5220008A522000873
:10015000A5220008A5220008A5220008A522000863
:10016000A5220008A5220008A5220008A522000853
:10017000A5220008A5220008A52200080000000012
:10018000A5220008A5220008A5220008A522000833
:10019000A5220008A5220008A5220008A522000823
:0C01A0000000000000000000A522000884
:1001C00010B5054C237833B9044B13B10448AFF391
:1001D00000800123237010BDA81E00200000000035
:1001E0006433010808B5034B1BB103490348AFF35F
:1001F000008008BD00000000AC1E00206433010830
:1002000081F0004102E000BF83F0004330B54FEAC7
:1002100041044FEA430594EA050F08BF90EA020F34
:100220001FBF54EA000C55EA020C7FEA645C7FEAC7
:10023000655C00F0E2804FEA5454D4EB5555B8BFEA
:100240006D420CDD2C4480EA020281EA030382EA5B
:10025000000083EA010180EA020281EA0303362DED
:1002600088BF30BD11F0004F4FEA01314FF4801CC0
:100270004CEA113102D0404261EB410113F0004FD2
:100280004FEA03334CEA133302D0524263EB430389
:1002900094EA050F00F0A780A4F10104D5F1200E27
:1002A0000DDB02FA0EFC22FA05F2801841F1000182
:1002B00003FA0EF2801843FA05F359410EE0A5F156
:1002C00020050EF1200E012A03FA0EFC28BF4CF087
:1002D000020C43FA05F3C01851EBE37101F000453D
:1002E00007D54FF0000EDCF1000C7EEB00006EEB4A
:1002F0000101B1F5801F1BD3B1F5001F0CD34908D4
:100300005FEA30004FEA3C0C04F101044FEA44522A
:1003100012F5800F80F09A80BCF1004F08BF5FEAB1
:10032000500C50F1000041EB045141EA050130BD91
:100330005FEA4C0C404141EB0101013C28BFB1F5A3
:10034000801FE9D291F0000F04BF01460020B1FAEE
:1003500081F308BF2033A3F10B03B3F120020CDAC1
:100360000C3208DD02F1140CC2F10C0201FA0CF09F
:1003700021FA02F10CE002F11402D8BFC2F1200C04
:1003800001FA02F120FA0CFCDCBF41EA0C019040BA
:10039000E41AA2BF01EB0451294330BD6FEA040403
:1003A0001F3C1CDA0C340EDC04F11404C4F12002EE
:1003B00020FA04F001FA02F340EA030021FA04F300
:1003C00045EA030130BDC4F10C04C4F1200220FA57
:1003D00002F001FA04F340EA0300294630BD21FA95
:1003E00004F0294630BD94F0000F83F4801306BF5B
:1003F00081F480110134013D4EE77FEA645C18BF4F
:100400007FEA655C29D094EA050F08BF90EA020FE5
:1004100005D054EA000C04BF1946104630BD91EADD
:10042000030F1EBF0021002030BD5FEA545C05D1E0
:100430004000494128BF41F0004130BD14F580041F
:100440003CBF01F5801130BD01F0004545F0FE4193
:1004500041F470014FF0000030BD7FEA645C1ABFC8
:10046000194610467FEA655C1CBF0B46024650EAFF
:10047000013406BF52EA033591EA030F41F400212B
:1004800030BD00BF90F0000F04BF0021704730B5B1
:100490004FF4806404F132044FF000054FF0000186
:1004A00050E700BF90F0000F04BF0021704730B547
:1004B0004FF4806404F1320410F0004548BF40421C
:1004C0004FF000013EE700BF42004FEAE2014FEA71
:1004D00031014FEA02701FBF12F07F4393F07F4F4C
:1004E00081F06051704732F07F4208BF704793F04F
:1004F0007F4F04BF41F40021704730B54FF4607462
:1005000001F0004521F000411CE700BF50EA010264
:1005100008BF704730B54FF000050AE050EA01020D
:1005200008BF704730B511F0004502D5404261EB7D
:1005300041014FF4806404F132045FEA915C3FF4BE
:10054000D8AE4FF003025FEADC0C18BF03325FEA5B
:10055000DC0C18BF033202EBDC02C2F1200300FA0C
:1005600003FC20FA02F001FA03FE40EA0E0021FA31
:1005700002F11444BDE600BF4FF0FF3C06E000BFAF
:100580004FF0010C02E000BF4FF0010C4DF804CD1C
:100590004FEA410C7FEA6C5C4FEA430C18BF7FEADC
:1005A0006C5C1BD001B050EA410C0CBF52EA430C0A
:1005B00091EA030F02BF90EA020F0020704710F18A
:1005C000000F91EA030F58BF994208BF90422CBF19
:1005D000D8176FEAE37040F0010070474FEA410C12
:1005E0007FEA6C5C02D150EA013C07D14FEA430C30
:1005F0007FEA6C5CD6D152EA033CD3D05DF8040BA1
:10060000704700BF8446104662468C4619466346D2
:1006100000E000BF01B5FFF7B7FF002848BF10F1A9
:10062000000F01BD4DF808EDFFF7F4FF0CBF0120EE
:1006300000205DF808FB00BF4DF808EDFFF7EAFF6A
:1006400034BF012000205DF808FB00BF4DF808ED25
:10065000FFF7E0FF94BF012000205DF808FB00BF1A
:100660004DF808EDFFF7CEFF94BF012000205DF8A4
:1006700008FB00BF4DF808EDFFF7C4FF34BF0120B1
:1006800000205DF808FB00BF4FEA410212F500129E
:1006900015D211D56FF47873B3EB625212D94FEAC9
:1006A000C12343F0004343EA505311F0004F23FAB3
:1006B00002F018BF404270474FF00000704750EA08
:1006C000013005D111F0004008BF6FF000407047C5
:1006D0004FF00000704700BF4A0011D212F500121F
:1006E00011D20DD56FF47873B3EB62520ED44FEA8A
:1006F000C12343F0004343EA505323FA02F070470A
:100700004FF00000704750EA013002D14FF0FF3047
:1007100070474FF00000704780F0004002E000BFDB
:1007200081F0004142001FBF5FEA410392EA030FDC
:100730007FEA226C7FEA236C6AD04FEA1262D2EB26
:100740001363C1BFD218414048404140B8BF5B422B
:10075000192B88BF704710F0004F40F4000020F0C4
:100760007F4018BF404211F0004F41F4000121F0DA
:100770007F4118BF494292EA030F3FD0A2F1010224
:1007800041FA03FC10EB0C00C3F1200301FA03F162
:1007900000F0004302D5494260EB4000B0F5000F85
:1007A00013D3B0F1807F06D340084FEA310102F144
:1007B0000102FE2A51D2B1F1004F40EBC25008BFF6
:1007C00020F0010040EA03007047490040EB0000C0
:1007D000013A28BFB0F5000FEDD2B0FA80FCACF1C1
:1007E000080CB2EB0C0200FA0CF0AABF00EBC250EE
:1007F00052421843BCBFD0401843704792F0000FDC
:1008000081F4000106BF80F400000132013BB5E72E
:100810004FEA41037FEA226C18BF7FEA236C21D0A4
:1008200092EA030F04D092F0000F08BF0846704709
:1008300090EA010F1CBF0020704712F07F4F04D1D7
:10084000400028BF40F00040704712F100723CBFEA
:1008500000F50000704700F0004343F0FE4040F414
:10086000000070477FEA226216BF08467FEA2363D2
:100870000146420206BF5FEA412390EA010F40F4BD
:10088000800070474FF0000304E000BF10F0004309
:1008900048BF40425FEA000C08BF704743F09643F0
:1008A00001464FF000001CE050EA010208BF70470B
:1008B0004FF000030AE000BF50EA010208BF704792
:1008C00011F0004302D5404261EB41015FEA010CA7
:1008D00002BF84460146002043F0B64308BFA3F19F
:1008E0008053A3F50003BCFA8CF2083AA3EBC25381
:1008F00010DB01FA02FC634400FA02FCC2F12002A0
:10090000BCF1004F20FA02F243EB020008BF20F0D6
:100910000100704702F1200201FA02FCC2F120023C
:1009200050EA4C0021FA02F243EB020008BF20EA31
:10093000DC7070474FF0FF0C1CEAD0521EBF1CEA5F
:10094000D15392EA0C0F93EA0C0F6FD01A4480EA4D
:10095000010C400218BF5FEA41211ED04FF0006336
:1009600043EA501043EA5111A0FB01310CF0004062
:10097000B1F5000F3EBF490041EAD3715B0040EA88
:10098000010062F17F02FD2A1DD8B3F1004F40EB58
:10099000C25008BF20F00100704790F0000F0CF02B
:1009A000004C08BF49024CEA502040EA51207F3AEF
:1009B000C2BFD2F1FF0340EAC250704740F40000CA
:1009C0004FF00003013A5DDC12F1190FDCBF00F0BB
:1009D00000407047C2F10002410021FA02F1C2F169
:1009E000200200FA02FC5FEA310040F1000053EA05
:1009F0004C0308BF20EADC70704792F0000F00F053
:100A0000004C02BF400010F4000F013AF9D040EA58
:100A10000C0093F0000F01F0004C02BF490011F4EC
:100A2000000F013BF9D041EA0C018FE70CEAD153EA
:100A300092EA0C0F18BF93EA0C0F0AD030F0004C6A
:100A400018BF31F0004CD8D180EA010000F000401E
:100A5000704790F0000F17BF90F0004F084691F0DC
:100A6000000F91F0004F14D092EA0C0F01D1420216
:100A70000FD193EA0C0F03D14B0218BF084608D1DF
:100A800080EA010000F0004040F0FE4040F4000029
:100A9000704740F0FE4040F4400070474FF0FF0CBC
:100AA0001CEAD0521EBF1CEAD15392EA0C0F93EA03
:100AB0000C0F69D0A2EB030280EA010C49024FEA55
:100AC000402037D04FF0805343EA111143EA10130E
:100AD0000CF000408B4238BF5B0042F17D024FF4C6
:100AE000000C8B4224BF5B1A40EA0C00B3EB510FA1
:100AF00024BFA3EB510340EA5C00B3EB910F24BF8A
:100B0000A3EB910340EA9C00B3EBD10F24BFA3EB0E
:100B1000D10340EADC001B0118BF5FEA1C1CE0D1D6
:100B2000FD2A3FF650AF8B4240EBC25008BF20F089
:100B3000010070470CF0004C4CEA50207F32C2BFDD
:100B4000D2F1FF0340EAC250704740F400004FF07A
:100B50000003013A37E792F0000F00F0004C02BFAB
:100B6000400010F4000F013AF9D040EA0C0093F075
:100B7000000F01F0004C02BF490011F4000F013BCF
:100B8000F9D041EA0C0195E70CEAD15392EA0C0F37
:100B900008D142027FF47DAF93EA0C0F7FF470AF6F
:100BA000084676E793EA0C0F04D14B023FF44CAFB2
:100BB00008466EE730F0004C18BF31F0004CCAD147
:100BC00030F000427FF45CAF31F000437FF43CAF83
:100BD0005FE700BF4FEA4002B2F1FE4F0FD34FF084
:100BE0009E03B3EB12620DD94FEA002343F000439A
:100BF00010F0004F23FA02F018BF404270474FF048
:100C00000000704712F1610F01D1420205D110F0CE
:100C1000004008BF6FF0004070474FF00000704781
:100C200042000ED2B2F1FE4F0BD34FF09E03B3EB56
:100C3000126209D44FEA002343F0004323FA02F082
:100C400070474FF00000704712F1610F01D142026E
:100C500002D14FF0FF3070474FF00000704700BFE7
:100C600053B94AB9002908BF00281CBF4FF0FF3113
:100C70004FF0FF3000F074B9ADF1080C6DE904CE0F
:100C800000F006F8DDF804E0DDE9022304B0704767
:100C90002DE9F047089E0D4604468846002B4DD1AD
:100CA0008A42944668D9B2FA82F252B101FA02F34A
:100CB000C2F1200120FA01F10CFA02FC41EA03081A
:100CC00094404FEA1C45210CB8FBF5FE1FFA8CF747
:100CD00005FB1E8341EA03430EFB07F199420BD942
:100CE0001CEB03030EF1FF3080F01E81994240F2AD
:100CF0001B81AEF1020E63445B1AA4B2B3FBF5F0A4
:100D000005FB103344EA034400FB07F7A7420AD966
:100D10001CEB040400F1FF3380F00881A74240F28D
:100D2000058164440238E41B40EA0E4000211EB1F4
:100D3000D4400023C6E90043BDE8F0878B4208D9C0
:100D4000002E00F0EE800021C6E900050846BDE84F
:100D5000F087B3FA83F100294AD1AB4202D3824231
:100D600000F2F980841A65EB030301209846002EF7
:100D7000E2D0C6E90048DFE702B9FFDEB2FA82F24C
:100D8000002A40F09180A1EB0C054FEA1C471FFAA6
:100D90008CFE0121B5FBF7F307FB1350250C45EA48
:100DA00000450EFB03F0A84208D91CEB050503F132
:100DB000FF3802D2A84200F2CB8043462D1AA4B2DB
:100DC000B5FBF7F007FB105544EA05440EFB00FEA7
:100DD000A64508D91CEB040400F1FF3502D2A64554
:100DE00000F2BB802846A4EB0E0440EA03409EE7D5
:100DF000C1F120078B4022FA07FC4CEA030C20FAD1
:100E000007F405FA01F31C43FD404FEA1C4900FAC0
:100E100001F3B5FBF9F8200C1FFA8CFE09FB1855FD
:100E200040EA054508FB0EF0A84202FA01F20BD990
:100E30001CEB050508F1FF3A80F08880A84240F2DB
:100E40008580A8F1020865442D1AA4B2B5FBF9F01B
:100E500009FB105544EA054500FB0EFEAE4508D9D6
:100E60001CEB050500F1FF346CD2AE456AD902389F
:100E7000654440EA0840A0FB0294A5EB0E05A5429C
:100E8000C846A64656D353D05EB1B3EB080265EB15
:100E90000E0505FA07F722FA01F3CD401F43C6E914
:100EA00000750021BDE8F087C2F1200320FA03F1AC
:100EB0000CFA02FC25FA03F395400D434FEA1C4758
:100EC0001FFA8CFEB3FBF7F107FB11302B0C43EA42
:100ED000004301FB0EF0984204FA02F408D91CEB1F
:100EE000030301F1FF382FD298422DD90239634410
:100EF0001B1AADB2B3FBF7F007FB103345EA03450D
:100F000000FB0EF3AB4208D91CEB050500F1FF38DE
:100F100016D2AB4214D902386544ED1A40EA0141B9
:100F200038E73146304607E78646E5E61846FAE6F2
:100F30004B45A9D2B9EB020864EB0C0E0138A3E7CC
:100F40004046EAE7204694E74146D1E7D0467BE7B2
:100F5000023B654432E7084609E76444023842E749
:100F6000704700BF844641EA000313F003036DD1CC
:100F7000403A41D351F8043B40F8043B51F8043B5C
:100F800040F8043B51F8043B40F8043B51F8043B63
:100F900040F8043B51F8043B40F8043B51F8043B53
:100FA00040F8043B51F8043B40F8043B51F8043B43
:100FB00040F8043B51F8043B40F8043B51F8043B33
:100FC00040F8043B51F8043B40F8043B51F8043B23
:100FD00040F8043B51F8043B40F8043B51F8043B13
:100FE00040F8043B51F8043B40F8043B51F8043B03
:100FF00040F8043B403ABDD2303211D351F8043BA3
:1010000040F8043B51F8043B40F8043B51F8043BE2
:1010100040F8043B51F8043B40F8043B103AEDD251
:101020000C3205D351F8043B40F8043B043AF9D2A2
:10103000043208D0D2071CBF11F8013B00F8013B75
:1010400001D30B8803806046704700BF082A13D382
:101050008B078DD010F003038AD0C3F10403D21A9A
:10106000DB071CBF11F8013B00F8013B80D331F8CE
:10107000023B20F8023B7BE7043AD9D3013A11F84E
:10108000013B00F8013BF9D20B7803704B784370B9
:101090008B788370604670470000000000000000FD
:1010A000A2EB0300704700BF02780B78012A28BF2B
:1010B0009A42F5D16DE9044540EA0104CDE90267A1
:1010C0006FF0000C4FEA447212B380EA010414F08E
:1010D000070F6AD100F0070420F0070004F00305B1
:1010E00021F007014FEAC505F0E8042314F0040FCE
:1010F000F1E804670CFA05F462EA040266EA040601
:101100000AD063EA0403624667EA0407664603E01E
:10111000F0E80423F1E8046782FA4CF582EA060459
:10112000A4FA8CF46CBB83FA4CF583EA0705A5FAA4
:101130008CF595B950E9022351E9026782FA4CF522
:1011400082EA0604A4FA8CF483FA4CF583EA0705D4
:10115000A5FA8CF52543DBD09CB92DBAB5FA85F4F8
:1011600024F0070427FA04F1DDE9026723FA04F307
:1011700003F0FF0001F0FF01FDE80445A0EB0100D2
:10118000704724BAB4FA84F424F0070426FA04F170
:10119000DDE9026722FA04F202F0FF0001F0FF012C
:1011A000FDE80445A0EB0100704714F0030F3CD1AB
:1011B00010F0030428D150F8082B51F8083B82FAAC
:1011C0004CF582EA0305A5FA8CF55DB950F8042CBC
:1011D00051F8043C82FA4CF582EA0305A5FA8CF535
:1011E000002DE8D02DBAB5FA85F424F0070423FACF
:1011F00004F122FA04F202F0FF0001F0FF01FDE821
:101200000445A0EB010070474FEAC40420F003003E
:1012100050F8082B21F0030151F8083B0CFA04F4B4
:1012200062EA040263EA0403C9E710F003041AD077
:10123000A1EB040120F00300E40750F8042B06D0D2
:101240000FD28B785FFAA2F4E41A06D12BB1CB78D7
:101250005FFAB2F4E41A00D11BB920465DF8104BD6
:10126000704701F1040150F8042BCC0721F0030171
:1012700051F8043B48D824D222F07F4482FA4CF53E
:1012800094EA1325A5FA8CF50AD165B951F8043B07
:1012900084EA0204B4EB036F0ED150F8042BEBE7A1
:1012A0004FEA132355E035F07F454DD10878FDE82E
:1012B0000445C0F1000070474FEA126203F0FF03DB
:1012C00047E002EA1C4482FA4CF594EA1345A5FA79
:1012D0008CF50AD165B951F8043B84EA0204B4EBF9
:1012E000034F0CD150F8042BEBE74FEA134330E0E7
:1012F00015EA1C4528D10B884FEA124229E04FEA33
:10130000124203EA1C4324E002F0FF0482FA4CF587
:1013100094EA1365A5FA8CF50AD165B951F8043B36
:1013200084EA0204B4EB032F09D150F8042BEBE755
:101330004FEA13630DE015F0FF0F05D10B684FEA7C
:10134000122223F07F4304E04FF00000FDE8044543
:10135000704712BA1BBA82FA4CF482EA0304A4FA68
:101360008CF5B5FA85F402FA04F203FA04F34FEAB5
:101370001260FDE80445A0EB136070470000000018
:1013800090F800F06DE9024520F007016FF0000CC5
:1013900010F0070491F820F040F049804FF000046D
:1013A0006FF00700D1E9002391F840F000F1080048
:1013B00082FA4CF2A4FA8CF283FA4CF3A2FA8CF380
:1013C0004BBBD1E9022382FA4CF200F10800A4FAE7
:1013D0008CF283FA4CF3A2FA8CF3E3B9D1E904233B
:1013E00082FA4CF200F10800A4FA8CF283FA4CF372
:1013F000A2FA8CF37BB9D1E9062301F1200182FA2C
:101400004CF200F10800A4FA8CF283FA4CF3A2FA31
:101410008CF3002BC6D0002A04BF04301A4612BA3F
:10142000B2FA82F2FDE8024500EBD2007047D1E942
:10143000002304F00305C4F100004FEAC50514F0D1
:10144000040F91F840F00CFA05F562EA05021CBFA2
:1014500063EA050362464FF00004A9E700000000BC
:1014600001F0FF01102A2BDB10F0070F08D010F855
:10147000013B013A8B422DD010F0070F42B3F6D159
:10148000F0B441EA012141EA014122F007047FF072
:1014900000070023F0E80256083C85EA010586EAC9
:1014A000010685FA47F5A3FA87F586FA47F6A5FA05
:1014B00087F68EB9EED1F0BC01F0FF0102F0070211
:1014C00032B110F8013B013A83EA010313B1F8D1BC
:1014D0000020704701387047002D06BF354603389D
:1014E000073815F0010F07D1013015F4807F02BFD6
:1014F000013015F4C03F0130F0BC0138704700BF27
:1015000070B54FF0FF0C4CF4E06C1CEA11541DBF99
:101510001CEA135594EA0C0F95EA0C0F00F0DEF864
:101520002C4481EA030621EA4C5123EA4C5350EA49
:10153000013518BF52EA033541F4801143F480139A
:1015400038D0A0FB02CE4FF00005E1FB02E506F02B
:101550000042E0FB03E54FF00006E1FB03569CF080
:10156000000F18BF4EF0010EA4F1FF04B6F5007F86
:1015700064F5407404D25FEA4E0E6D4146EB0606F8
:1015800042EAC62141EA55514FEAC52040EA5E5081
:101590004FEACE2EB4F1FD0C88BFBCF5E06F1ED82B
:1015A000BEF1004F08BF5FEA500E50F1000041EB62
:1015B000045170BD06F0004646EA010140EA02000F
:1015C00081EA0301B4EB5C04C2BFD4EB0C0541EA31
:1015D000045170BD41F480114FF0000E013C00F346
:1015E000AB8014F1360FDEBF002001F0004170BD6A
:1015F000C4F10004203C35DA0C341BDC04F1140483
:10160000C4F1200500FA05F320FA04F001FA05F20E
:1016100040EA020001F0004221F0004110EBD370DB
:1016200021FA04F642EB06015EEA430E08BF20EA07
:10163000D37070BDC4F10C04C4F1200500FA04F3AA
:1016400020FA05F001FA04F240EA020001F000413C
:1016500010EBD37041F100015EEA430E08BF20EAAF
:10166000D37070BDC4F1200500FA05F24EEA020EF7
:1016700020FA04F301FA05F243EA020321FA04F026
:1016800001F0004121FA04F220EA020000EBD370DD
:101690005EEA430E08BF20EAD37070BD94F0000FDD
:1016A0000FD101F00046400041EB010111F4801F11
:1016B00008BF013CF7D041EA060195F0000F18BFC2
:1016C000704703F00046520043EB030313F4801FFE
:1016D00008BF013DF7D043EA0603704794EA0C0FB8
:1016E0000CEA135518BF95EA0C0F0CD050EA4106CE
:1016F00018BF52EA4306D1D181EA030101F000414B
:101700004FF0000070BD50EA410606BF1046194672
:1017100052EA430619D094EA0C0F02D150EA01367E
:1017200013D195EA0C0F05D152EA03361CBF1046BF
:1017300019460AD181EA030101F0004141F0FE415E
:1017400041F470014FF0000070BD41F0FE4141F4E2
:10175000780170BD70B54FF0FF0C4CF4E06C1CEAE2
:1017600011541DBF1CEA135594EA0C0F95EA0C0F97
:1017700000F0A7F8A4EB050481EA030E52EA033552
:101780004FEA013100F088804FEA03334FF0805573
:1017900045EA131343EA12634FEA022245EA1115A0
:1017A00045EA10654FEA00260EF000419D4208BF51
:1017B000964244F1FD0404F5407402D25B084FEAFE
:1017C0003202B61A65EB03055B084FEA32024FF4AA
:1017D00080104FF4002CB6EB020E75EB030E22BF07
:1017E000B61A754640EA0C005B084FEA3202B6EBC7
:1017F000020E75EB030E22BFB61A754640EA5C0076
:101800005B084FEA3202B6EB020E75EB030E22BF05
:10181000B61A754640EA9C005B084FEA3202B6EB06
:10182000020E75EB030E22BFB61A754640EADC00C5
:1018300055EA060E18D04FEA051545EA16754FEA27
:1018400006164FEAC30343EA52734FEAC2025FEA45
:101850001C1CC0D111F4801F0BD141EA00014FF0D4
:1018600000004FF0004CB6E711F4801F04BF0143A5
:101870000020B4F1FD0C88BFBCF5E06F3FF6AFAEC1
:10188000B5EB030C04BFB6EB020C5FEA500C50F151
:10189000000041EB045170BD0EF0004E4EEA1131D4
:1018A00014EB5C04C2BFD4EB0C0541EA045170BDDB
:1018B00041F480114FF0000E013C90E645EA060E1F
:1018C0008DE60CEA135594EA0C0F08BF95EA0C0F4D
:1018D0003FF43BAF94EA0C0F0AD150EA01347FF495
:1018E00034AF95EA0C0F7FF425AF104619462CE76C
:1018F00095EA0C0F06D152EA03353FF4FDAE1046CF
:10190000194622E750EA410618BF52EA43067FF41F
:10191000C5AE50EA41047FF40DAF52EA43057FF4AF
:10192000EBAE12E74FEA410C7FEA6C5C02D150EA61
:10193000013C0AD14FEA430C7FEA6C5C02D152EAC7
:10194000033C02D14FF0000070474FF00100704798
:1019500010B582B0002401940D4B1A6B42F40012B2
:101960001A631B6B03F400130193019B224621466B
:10197000102000F011FD102000F046FD2246214607
:10198000112000F009FD112000F03EFD02B010BD55
:1019900000380240F0B587B000230193029303930F
:1019A00004930593164B1B680BB107B0F0BD144BA5
:1019B00001221A6000260096124B9A6B42F0010237
:1019C0009A639B6B03F001030093009B4FF68073B7
:1019D000019302270297032504950C24059401A97D
:1019E000094801F0A5F94EF2B373019302970396EB
:1019F0000495059401A9054801F09AF9D5E700BFBF
:101A0000C41E00200038024000100240000C0240BA
:101A100010B588B0002201920292039204920592BE
:101A20000692079215484FF02043036003F5827336
:101A300043608260C2600261102141618261C261C3
:101A4000026242624FF480538362C2620263426365
:101A50008263C2634264042301930F2402940393BC
:101A6000049305911123069301A901F0E9FD08B93A
:101A700008B010BD00F08AF8FAE700BFC81E0020C9
:101A800008B5FFF787FF08BDF0B58BB000240594BB
:101A900006940794089409940094394B1A6B42F009
:101AA00080021A631A6B02F080020092009A01947D
:101AB0001A6B42F001021A631A6B02F001020192E2
:101AC000019A02941A6B42F002021A631A6B02F036
:101AD00002020292029A03941A6B42F010021A63F5
:101AE0001A6B02F010020392039A04941A6B42F0EC
:101AF00008021A631B6B03F008030493049B214F35
:101B000022464121384601F011FA1F4E224601219A
:101B1000304601F00BFA01224FF44051304601F0FB
:101B200005FA41230593012506950794089405A914
:101B3000384601F0FDF8102305930694079505A992
:101B4000384601F0F5F805950695079403230893A8
:101B500005A9304601F0ECF8062305930694079595
:101B600005A9304601F0E4F84FF44053059306957B
:101B70000794089405A9304601F0DAF80BB0F0BDDF
:101B800000380240000002400004024072B6FEE746
:101B900000B595B03022002108A80AF0E9FB002327
:101BA000039304930593069307930193224A116CC0
:101BB00041F080511164126C02F080520192019A3E
:101BC00002931E4B1A6842F440421A601B6803F4E9
:101BD00040430293029B012308934FF480330993FF
:101BE00002220E924FF480030F9304231093B4212A
:101BF00011911292139308A801F0E6F9B0B901F01F
:101C0000A5F9A8B90F230393022304930023059396
:101C10004FF4A05306934FF480530793052103A874
:101C200001F038FC30B915B05DF804FBFFF7AEFFEA
:101C3000FFF7ACFFFFF7AAFF00380240007000403A
:101C400000B583B000F056FBB42002F09DFDFFF715
:101C50009FFFFFF719FFFFF77BFE00F057F900F039
:101C6000C9F900F0FBF900F0DFF9FFF7D1FE2C48CD
:101C700001F040FD01222B492B4802F060FC0122BB
:101C80002A492B4802F0CCFC01222A492A4802F0BA
:101C900056FC03F0A7F8002006F03CFB274B1B681E
:101CA000984707F081FE01224021254801F03EF9C6
:101CB00007F066FF10BB002300934FF47843214ADE
:101CC0001421322006F0C8FD4FF47A7002F084FD32
:101CD000002006F01FFB002400944FF478431A4ABA
:101CE0002146362006F0B8FD08F054FD174AAA2117
:101CF000204608F07BFD07F075FEFCE70024009409
:101D00002823F0221421204606F03CFB00944FF4D7
:101D100078430F4A1421322006F09EFDD4E700BF1D
:101D2000201F0020E325002028200020E42500209B
:101D30006C200020E5250020B0200020EC130020BE
:101D40000000024080330108A8330108B4140020C9
:101D50009433010882B0002100910B4B5A6C42F47D
:101D600080425A645A6C02F480420092009A0191B7
:101D70001A6C42F080521A641B6C03F0805301937A
:101D8000019B02B0704700BF00380240FEE7FEE74B
:101D9000FEE7FEE7FEE770477047704708B500F0C2
:101DA000C3FA024A13680133136008BD38220020C9
:101DB00008B5024800F0D0FC08BD00BF681F002035
:101DC00008B5024800F0C8FC08BD00BFC81F0020CD
:101DD00008B5024801F0D6FC08BD00BF201F002056
:101DE00008B5024802F0F6F908BD00BF282000201F
:101DF00008B5024802F0EEF908BD00BF6C200020D3
:101E000000B583B00E4B1B681A6812F0100F12D089
:101E1000002201921A6801925B680193019B084BB2
:101E20004FF4C872DA85074A9A62074B01221A708A
:101E300003B05DF804FB024802F0CCF9F8E700BFFC
:101E4000B020002048220020D82300200120704725
:101E500008B509F0A3FF162303604FF0FF3008BD5B
:101E600008B54FF0FF31FFF7F3FFFEE770B50C4602
:101E70001646002506E0AFF30080214601F8010B6D
:101E800001350C46B542F6DB304670BD70B50C46E8
:101E90001646002504E014F8010BAFF3008001356D
:101EA000B542F8DB304670BD4FF0FF3070474FF45D
:101EB00000534B600020704701207047002070479E
:101EC00010B503460C4A0D490D48006840B10C4856
:101ED00000680344521A934206D8094A136010BDA1
:101EE0000748084C0460F2E709F058FF0C23036030
:101EF0004FF0FF30F3E700BF0000032000040000B4
:101F0000181F0020382600207047000000B587B059
:101F100000230293039304930593009301931548C0
:101F20004FF08042026009224260836042F2273211
:101F3000C2600361836101F047FD90B94FF48053A3
:101F4000029302A90B4801F077FD68B900230093C2
:101F500001936946074801F0EFFD40B907B05DF80D
:101F600004FBFFF713FEE9E7FFF710FEEEE7FFF7CC
:101F70000DFEF3E7201F00200368B3F1804F00D06F
:101F8000704700B583B00021019103F50E331A6C40
:101F900042F001021A641B6C03F001030193019BE0
:101FA0000A461C2000F0F8F91C2000F02DFA03B0BE
:101FB0005DF804FB08B50368B3F1804F00D008BD9D
:101FC000094A138801339BB21380084AA2FB03120B
:101FD0009209C82101FB12339BB2002BEFD10121E2
:101FE000034800F0A9FFEAE71C1F00201F85EB5102
:101FF0000000024008B50A480A4B03604FF4E13381
:10200000436000238360C36003610C2242618361EB
:10201000C36101F013FF00B908BDFFF7B7FDFBE78F
:10202000282000200010014008B50A480A4B036030
:102030004FF4E133436000238360C36003610C22EB
:1020400042618361C36101F0F9FE00B908BDFFF789
:102050009DFDFBE76C2000200044004008B50A48C5
:102060000A4B03604FF46143436000238360C36005
:1020700003610C2242618361C36101F0DFFE00B99C
:1020800008BDFFF783FDFBE7B020002000480040BB
:1020900030B58DB000230793089309930A930B93EF
:1020A0000368624A934209D00446614A934231D0A0
:1020B000604A934200F08D800DB030BD0024019441
:1020C0005D4B5A6C42F010025A645A6C02F01002D6
:1020D0000192019A02941A6B42F001021A631B6B7F
:1020E00003F001030293029B4FF4C06307930223A2
:1020F000089303230A9307230B9307A94F4800F083
:1021000017FE22462146252000F046F9252000F042
:102110007BF9D1E700250395474B1A6C42F4003256
:102120001A641A6C02F400320392039A04951A6B33
:1021300042F001021A631B6B03F001030493049B3A
:102140000C2307930223089303230A9307230B937B
:1021500007A93A4800F0ECFD39483A4B03604FF0CC
:102160000063436040238360C5604FF48063036174
:1021700045618561C5610562456200F0F5F910BBF6
:102180002F4B63639C633048304B03604FF0006318
:10219000436000238360C3604FF480620261436147
:1021A0008361C3610362436200F0DEF970B9264BBC
:1021B000A3639C6300221146262000F0EDF8262040
:1021C00000F022F978E7FFF7E1FCD9E7FFF7DEFC42
:1021D000EDE700240594184B1A6C42F480221A642F
:1021E0001A6C02F480220592059A06941A6B42F04A
:1021F00002021A631B6B03F002030693069B4FF463
:10220000406307930223089303230A9307230B9346
:1022100007A90F4800F08CFD22462146272000F038
:10222000BBF8272000F0F0F846E700BF001001409F
:1022300000440040004800400038024000000240D6
:10224000C81F0020A0600240681F00208860024074
:1022500000040240DFF834D00D480E490E4A002336
:1022600002E0D458C4500433C4188C42F9D30B4A4A
:102270000B4C002301E013600432A242FBD3FFF7B2
:1022800043FE09F091FDFFF7DBFC704700000320DF
:1022900000000020A81E0020BC470108A81E002046
:1022A00034260020FEE7000010B504460E4B1878D7
:1022B0004FF47A73B3FBF0F30C4A1068B0FBF3F001
:1022C00000F0B0F868B90F2C01D901200AE0002213
:1022D00021464FF0FF3000F05FF8054B1C600020F6
:1022E00000E0012010BD00BF04000020000000201D
:1022F0000800002008B50B4B1A6842F400721A60FF
:102300001A6842F480621A601A6842F480721A6095
:10231000032000F02FF80020FFF7C6FFFFF71AFD9B
:10232000002008BD003C0240034A1168034B1B78A3
:102330000B441360704700BFF4200020040000200D
:10234000014B1868704700BFF420002038B50446E0
:10235000FFF7F6FF0546B4F1FF3F02D0044B1B78B0
:102360001C44FFF7EDFF401BA042FAD338BD00BF6D
:1023700004000020074AD36823F4E0631B041B0C0D
:10238000000200F4E060034343F0BF6343F4003312
:10239000D360704700ED00E000B5194BDB68C3F374
:1023A0000223C3F1070CBCF1040F28BF4FF0040C4B
:1023B00003F1040EBEF1060F18D9033B4FF0FF3EA8
:1023C0000EFA0CFC21EA0C0199400EFA03F322EA02
:1023D0000303194300280BDB0901C9B200F1604077
:1023E00000F5614080F800135DF804FB0023E5E789
:1023F00000F00F000901C9B2024B1954F4E700BF05
:1024000000ED00E014ED00E0002807DB00F01F0203
:10241000400901239340024A42F82030704700BF30
:1024200000E100E00138B0F1807F0BD24FF0E023F3
:102430005861054AF02182F8231000209861072294
:102440001A6170470120704700ED00E0042806D0B3
:102450004FF0E022136923F00403136170474FF03B
:10246000E022136943F004031361704730B4056838
:102470002C6824F480242C60046863608368402BFB
:1024800005D0036899600368DA6030BC7047036860
:102490009A600368D960F8E710B40368D9B21039BC
:1024A0000B4AA2FB014212090A4CA25CC2655F29D9
:1024B00008D923F47F7323F0030304338365806D0D
:1024C00010BC704723F47F7323F003038365F6E7A2
:1024D000ABAAAAAAD4330108836A826992B9012BF4
:1024E0000AD0022B02D00BB100207047C36A13F050
:1024F000807F28D100207047C36AB3F1C07F24D009
:1025000000207047B2F5005F09D0022B25D9032BBC
:1025100025D1C36A13F0807F23D100207047032B9D
:1025200003D8DFE803F01404140A00207047C36ADC
:1025300013F0807F0DD100207047C36AB3F1C07FD4
:1025400009D000207047012070470120704701200A
:10255000704701207047012070470120704700201C
:10256000704701207047000070B50446FFF7E8FE91
:10257000002C5BD00546022384F83530002384F814
:1025800034302268136823F00103136023681A684B
:1025900012F0010F0AD0FFF7D3FE431B052BF5D92C
:1025A00020236365032084F8350070BD1A68204835
:1025B00010406168A2680A43E1680A4321690A433E
:1025C00061690A43A1690A43E1690A43216A0A432E
:1025D0000243616A04291ED01A602668756925F0D5
:1025E0000705636A1D43042B07D1A36A1D43E36AF1
:1025F0001BB12046FFF770FF90B975612046FFF7C9
:102600004BFFE26D3F239340836000206065012310
:1026100084F83530C9E7E16A206B01430A43DBE700
:1026200040236365012084F83500BEE70120BCE744
:102630003F8010F038B50446856D90F834000128CD
:102640002BD0012084F8340094F83500C0B2012862
:1026500004D0002384F83430022038BD022084F8EE
:102660003500002060652046FFF700FFE26D3F2344
:102670009340AB602268136843F016031360236C29
:1026800023B12268136843F00803136022681368BB
:1026900043F0010313600020DFE70220DDE770B59F
:1026A0000446866DFFF74CFE94F83530DBB2022B02
:1026B00006D080236365002384F83430012070BD88
:1026C00005462268136823F01603136022685369D5
:1026D00023F080035361236CE3B12268136823F075
:1026E000080313602268136823F001031360236852
:1026F0001B6813F0010F11D0FFF722FE431B052BBF
:10270000F5D920236365032084F83500002384F87D
:102710003430D4E7A36C002BDFD1E3E7E26D3F2335
:102720009340B360012384F83530002084F83400EE
:10273000C5E790F83530DBB2022B03D08023436528
:1027400001207047052380F835300268136823F0B4
:102750000103136000207047F0B583B004460023E6
:102760000193724B1D68724BA3FB0535AD0A876D53
:102770003E68C26D08239340334210D003681A6844
:1027800012F0040F0BD01A6822F004021A60C26D16
:1027900008239340BB60436D43F001034365E26D42
:1027A00001239340334209D02268526912F0800F0E
:1027B00004D0BB60636D43F002036365E26D0423E4
:1027C0009340334209D02268126812F0020F04D0FD
:1027D000BB60636D43F004036365E26D10239340B7
:1027E000334224D02268126812F0080F1FD0BB6059
:1027F00023681A6812F4802F0DD01B6813F4002F81
:1028000004D1236C9BB12046984710E0A36C73B1B0
:10281000204698470BE01A6812F4807F03D11A68AB
:1028200022F008021A60236C0BB120469847E26D33
:1028300020239340334255D02268126812F0100FC3
:1028400050D0BB6094F83530DBB2052B0ED0236836
:102850001A6812F4802F33D01B6813F4002F2AD18A
:10286000636C002B3ED0204698473BE022681368FB
:1028700023F0160313602268536923F08003536129
:10288000236CA3B12268136823F008031360E26D80
:102890003F239340BB60012384F83530002384F844
:1028A0003430236D002B3FD0204698473CE0A36C8A
:1028B000002BE7D1EBE7E36BA3B12046984711E08B
:1028C0001A6812F4807F09D11A6822F010021A6087
:1028D000012384F83530002384F83430E36B0BB1E6
:1028E00020469847636DFBB1636D13F0010F17D05D
:1028F000052384F835302268136823F00103136040
:10290000019B01330193AB4204D823681B6813F089
:10291000010FF5D1012384F83530002384F83430D9
:10292000E36C0BB12046984703B0F0BD00000020D7
:10293000B5814E1B10B409490C6924F440740C6134
:102940000C6944F440740C610C6944F001040C619E
:102950000260BFF36F8F436010BC7047003C0240C1
:10296000074B1A6922F440721A611A6942F4007224
:102970001A611A6942F001021A610160704700BFD2
:10298000003C0240074B1A6922F440721A611A692E
:1029900042F480721A611A6942F001021A610180E0
:1029A000704700BF003C0240064B1A6922F4407297
:1029B0001A611A691A611A6942F001021A610170FA
:1029C000704700BF003C0240274BDB6813F0100F3C
:1029D00007D0264AD36943F01003D361224B10225B
:1029E000DA60214BDB6813F0200F07D01F4AD36950
:1029F00043F00803D3611C4B2022DA601A4BDB68DA
:102A000013F0400F07D0194AD36943F00403D36190
:102A1000154B4022DA60144BDB6813F0800F07D0AF
:102A2000124AD36943F00203D3610F4B8022DA606C
:102A30000D4BDB6813F4807F08D00C4AD36943F058
:102A40000103D361084B4FF48072DA60064BDB68F8
:102A500013F0020F07D0054AD36943F02003D36176
:102A6000014B0222DA607047003C0240F82000204F
:102A7000094B1B69002B01DB00207047064B074AFE
:102A80005A6002F188325A601B69002B01DB00207A
:102A900070470120704700BF003C0240230167459A
:102AA000034A136943F0004313610020704700BFDD
:102AB000003C024038B50446144B0022DA61FFF7AF
:102AC0003FFC0546124BDB6813F4803F0AD0B4F19B
:102AD000FF3FF7D024B1FFF733FC401BA042F1D9F0
:102AE00003200DE00A4BDB6813F0010F02D0084B06
:102AF0000122DA60064BDB6813F4F97F01D1002074
:102B000038BDFFF761FF0120FAE700BFF820002081
:102B1000003C0240F8B516461B4A127E012A30D00E
:102B200004460D461F46184B01221A764CF25030CF
:102B3000FFF7C0FF90B9ACB1012C18D0022C1BD00C
:102B400032463B462846FFF7F5FE4CF25030FFF781
:102B5000B1FF0E4A136923F0010313610A4B0022EF
:102B60001A76F8BDF1B22846FFF71EFFEDE7B1B2C5
:102B70002846FFF707FFE8E731462846FFF7F0FE53
:102B8000E3E70220EDE700BFF8200020003C024010
:102B9000114A136923F44073136103290ED00129EC
:102BA00013D00D4A136943F4004313610A4A1369B1
:102BB00043EA002040F4803010617047136943F409
:102BC000004343F004031361F0E7034A136943F041
:102BD00004031361EAE700BF003C024049B1012948
:102BE00024D0022902D04FF4407C04E04FF4007C52
:102BF00001E04FF0000C0B2800D904300D4B19698F
:102C000021F4407119611A6942EA0C021A611A69C9
:102C100022F0F8021A611A6942EAC00040F002008C
:102C200018611A6942F480321A6170474FF4807C4F
:102C3000E1E700BF003C0240164B1B6813F4007F25
:102C400010D0144B1A6822F400721A601A6842F409
:102C500000621A601A6822F400621A601A6842F46C
:102C600000721A600B4B1B6813F4806F10D0094B75
:102C70001A6822F480621A601A6842F480521A605C
:102C80001A6822F480521A601A6842F480621A604C
:102C9000704700BF003C0240F8B5234B1B7E012B60
:102CA00040D004460E46204B01221A764CF250309A
:102CB000FFF700FF074680BB4FF0FF333360236808
:102CC000012B16D0A568E368A2681344AB4222D951
:102CD000217C2846FFF782FF4CF25030FFF7EAFED6
:102CE000124A136923F0FA031361074690B90135BC
:102CF000E9E76168207CFFF74BFF4CF25030FFF7AB
:102D0000D9FE0746094A136923F4004323F004035C
:102D1000136100E03560FFF78FFF034B00221A7646
:102D20003846F8BD0227FBE7F8200020003C0240AF
:102D300000230F2B00F2F18070B582B061E085684E
:102D40005E000324B44025EA0405CC68B4402C435B
:102D50008460456825EA02054C68C4F300129A4075
:102D60002A4342605BE0DC08083450F8246003F03A
:102D7000070295000F22AA4026EA020E0A69AA401D
:102D800042EA0E0240F824205DE0092200E0002221
:102D900002FA0EF22A430234604D45F82420604ABC
:102DA00094686FEA0C0224EA0C054E6816F4801F42
:102DB00001D04CEA04055A4CA560E46802EA040517
:102DC0004E6816F4001F01D04CEA0405544CE5602F
:102DD000646802EA04054E6816F4003F01D04CEA2C
:102DE00004054F4C6560246822404D6815F4803F0F
:102DF00001D04CEA04024A4C226001330F2B00F24E
:102E00008A8001229A400C6804EA020C32EA040427
:102E1000F3D14C6804F00304013C012C8FD94A68BB
:102E200002F00302032A09D0C4685D000322AA400D
:102E300024EA02048A68AA402243C2604A6802F077
:102E40000302022A8FD004684FEA430E032202FADB
:102E50000EF224EA02044A6802F0030202FA0EF2B9
:102E6000224302604A6812F4403FC6D00022019219
:102E70002C4A546C44F480445464526C02F48042F2
:102E80000192019A9C08A51C244A52F8255003F08F
:102E900003024FEA820E0F2202FA0EF225EA020521
:102EA000214A90423FF473AF02F58062904222D0F3
:102EB00002F58062904220D002F5806290421ED0DE
:102EC00002F5806290421CD002F5806290421AD0D6
:102ED00002F58062904218D002F58062904216D0CE
:102EE00002F58062904214D002F5806290423FF475
:102EF0004CAF0A224CE701224AE7022248E70322AC
:102F000046E7042244E7052242E7062240E707227B
:102F10003EE708223CE702B070BD70470038014030
:102F2000003C014000380240000002400AB18161CB
:102F30007047090481617047436901EA030221EA8D
:102F4000030141EA024181617047000010B582B07F
:102F500000230193194B1A6C42F080521A641B6CC7
:102F600003F080530193019B154B01221A64FFF774
:102F7000E7F90446134B5B6813F4803F08D1FFF771
:102F8000DFF9001BB0F57A7FF4D9032002B010BD41
:102F90000B4B01225A64FFF7D3F90446094B5B68D7
:102FA00013F4003F07D1FFF7CBF9001BB0F57A7F90
:102FB000F4D90320EAE70020E8E700BF0038024028
:102FC00000000E4200700040002800F0E08170B563
:102FD00082B00446036813F0010F3BD09F4B9B68FF
:102FE00003F00C03042B2CD09C4B9B6803F00C03C8
:102FF000082B21D06368B3F5803F4FD0B3F5A02FE5
:1030000052D0964B1A6822F480321A601A6822F461
:1030100080221A606368002B50D0FFF791F90546B3
:103020008E4B1B6813F4003F14D1FFF789F9401B46
:103030006428F5D90320B1E1884B5B6813F4800F55
:10304000D8D0864B1B6813F4003F03D06368002B75
:1030500000F09F81236813F0020F54D07F4B9B68D0
:1030600013F00C0F3ED07D4B9B6803F00C03082B34
:1030700033D0E368002B68D0794B01221A60FFF748
:103080005FF90546754B1B6813F0020F54D1FFF72B
:1030900057F9401B0228F5D903207FE16F4A1368D6
:1030A00043F480331360B5E76C4B1A6842F4802216
:1030B0001A601A6842F480321A60ABE7FFF740F9F1
:1030C0000546664B1B6813F4003FC3D0FFF738F981
:1030D000401B6428F5D9032060E1604B5B6813F462
:1030E000800FC6D15D4B1B6813F0020F03D0E3685D
:1030F000012B40F05081594A136823F0F8032169ED
:1031000043EAC1031360236813F0080F42D06369D8
:103110006BB3534B0122C3F8802EFFF711F905461C
:103120004E4B5B6F13F0020F34D1FFF709F9401BD0
:103130000228F5D9032031E1484A136823F0F80347
:10314000216943EAC1031360DDE7454B00221A60A1
:10315000FFF7F6F80546414B1B6813F0020FD2D07B
:10316000FFF7EEF8401B0228F5D9032016E13C4B8F
:103170000022C3F8802EFFF7E3F80546374B5B6F5C
:1031800013F0020F06D0FFF7DBF8401B0228F5D939
:10319000032003E1236813F0040F77D02F4B1B6C3F
:1031A00013F0805F33D1002301932C4B1A6C42F053
:1031B00080521A641B6C03F080530193019B01251C
:1031C000284B1B6813F4807F23D0A368012B34D0D5
:1031D000052B38D0214B1A6F22F001021A671A6FA3
:1031E00022F004021A67A368002B3DD0FFF7A8F86D
:1031F00006461A4B1B6F13F0020F46D1FFF7A0F8DB
:10320000801B41F288339842F3D90320C6E00025A1
:10321000D6E7144A136843F480731360FFF790F8FD
:103220000646104B1B6813F4807FCED1FFF788F859
:10323000801B0228F5D90320B0E0084A136F43F041
:1032400001031367CFE7054B1A6F42F004021A67B8
:103250001A6F42F001021A67C5E700BF003802404A
:103260000000474200700040FFF76AF80646524BE4
:103270001B6F13F0020F08D0FFF762F8801B41F2BA
:1032800088339842F3D9032088E0EDB9A369002B75
:1032900000F08380484A926802F00C02082A51D05C
:1032A000022B17D0454B00221A66FFF749F8044657
:1032B000414B1B6813F0007F42D0FFF741F8001B21
:1032C0000228F5D9032069E03B4A136C23F08053B0
:1032D0001364DBE7394B00221A66FFF731F8054625
:1032E000354B1B6813F0007F06D0FFF729F8401B11
:1032F0000228F5D9032051E0E369226A1343626A88
:1033000043EA8213A26A5208013A43EA0243E26A9C
:1033100043EA0263284A5360284B01221A66FFF7EA
:103320000FF80446244B1B6813F0007F06D1FFF70B
:1033300007F8001B0228F5D903202FE000202DE01C
:1033400000202BE0012B2BD01B4B5B6803F480018A
:10335000E269914226D103F03F02216A8A4223D1D9
:10336000616A47F6C0721A40B2EB811F1ED103F4A6
:103370004031A26A5208013AB1EB024F18D103F072
:103380007063E26AB3EB026F14D1002006E0012003
:103390007047012002E0012000E0002002B070BD73
:1033A0000120FBE70120F9E70120F7E70120F5E71D
:1033B0000120F3E70120F1E7003802400000474216
:1033C00008B5314B9B6803F00C03042B57D0082B36
:1033D00057D12D4B5A6802F03F025B6813F4800FFF
:1033E0002AD0294B5968C1F3881C4FEA4C11B1EB24
:1033F0000C006EEB0E0E4FEA8E1343EA90638101D0
:10340000091A63EB0E03DB0043EA5173C90011EBA9
:103410000C0C43F10003590200234FEA4C2041EA0F
:10342000DC51FDF71DFC184B5B68C3F3014301330E
:103430005B00B0FBF3F025E0134B5968C1F3881C27
:103440004FEA4C11B1EB0C006EEB0E0E4FEA8E13EF
:1034500043EA90638101091A63EB0E03DB0043EA40
:103460005173C90011EB0C0C43F1000399020023C6
:103470004FEA8C2041EA9C51FDF7F2FBD3E7034869
:1034800000E0034808BD00BF0038024000127A0087
:103490000024F400002800F09B8070B50D4604461F
:1034A0004F4B1B6803F00F038B4208D2CBB24C4A40
:1034B0001370136803F00F038B4240F08B80236876
:1034C00013F0020F17D013F0040F04D0454A93688D
:1034D00043F4E0539360236813F0080F04D0414A8B
:1034E000936843F4604393603E4A936823F0F0038B
:1034F000A1680B439360236813F0010F32D0636817
:10350000012B21D09A1E012A25D9364A126812F0C1
:10351000020F61D033498A6822F0030213438B60A3
:10352000FEF70EFF06462F4B9B6803F00C03626804
:10353000B3EB820F16D0FEF703FF801B41F28833F6
:103540009842F0D9032042E0264A126812F4003F64
:10355000E0D101203BE0234A126812F0007FD9D16C
:10356000012034E01E4B1B6803F00F03AB4207D968
:10357000EAB21B4B1A701B6803F00F03AB422DD14C
:10358000236813F0040F06D0164A936823F4E0531F
:10359000E1680B439360236813F0080F07D0114ACA
:1035A000936823F46043216943EAC1039360FFF702
:1035B00007FF0C4B9B68C3F303130B4AD35CD84043
:1035C0000A4B18600A4B1868FEF76EFE002070BDAB
:1035D000012070470120FAE70120F8E70120F6E713
:1035E000003C024000380240BC33010800000020CB
:1035F00008000020014B1868704700BF0000002041
:1036000008B5FFF7F7FF044B9B68C3F38223034A17
:10361000D35CD84008BD00BF00380240CC3301085D
:1036200008B5FFF7E7FF044B9B68C3F34233034A37
:10363000D35CD84008BD00BF00380240CC3301083D
:1036400040B370B50E461546044690F84930E3B1D4
:10365000214651F8080B00F0FFFFA26831462068B0
:1036600001F03EF8236BA2682946606801F06AF811
:103670002268A16852F8213043F0010342F821305A
:10368000012384F84930002070BD80F84830FEF7EF
:10369000F7F9DDE70120704710B4036A046A24F0EB
:1036A00001040462846924F0F00C4CEA021223F055
:1036B0000A030B438261036210BC704710B4046AB2
:1036C00024F0100404628469036A24F4704C4CEA08
:1036D000023223F0A00343EA01138261036210BCAB
:1036E0007047836823F070030B4343F00703836044
:1036F0007047000090F83D30DBB2012B37D1022338
:1037000080F83D300268D36843F00103D36003685A
:10371000194A934220D0B3F1804F1DD0A2F57C42CC
:10372000934219D002F58062934215D002F580626F
:10373000934211D002F5784293420DD002F57052B7
:10374000934209D0A2F59432934205D01A6842F010
:1037500001021A60002070479A6802F00702062AE8
:1037600007D01A6842F001021A6000207047012059
:1037700070470020704700BF00000140704770474D
:103780007047704710B5044603681A6912F0020FBB
:1037900011D0DA6812F0020F0DD06FF002021A6138
:1037A0000123037703689B6913F0030F70D0FFF7C1
:1037B000E6FF0023237723681A6912F0040F12D062
:1037C000DA6812F0040F0ED06FF004021A610223BF
:1037D000237723689B6913F4407F5FD02046FFF76F
:1037E000CEFF0023237723681A6912F0080F12D046
:1037F000DA6812F0080F0ED06FF008021A61042385
:1038000023772368DB6913F0030F4ED02046FFF7C0
:10381000B6FF0023237723681A6912F0100F12D025
:10382000DA6812F0100F0ED06FF010021A61082340
:1038300023772368DB6913F4407F3DD02046FFF7F0
:103840009EFF0023237723681A6912F0010F03D02B
:10385000DA6812F0010F36D123681A6912F0800F6E
:1038600003D0DA6812F0800F34D123681A6912F09D
:10387000400F03D0DA6812F0400F32D123681A6982
:1038800012F0200F03D0DA6812F0200F30D110BDF3
:10389000FFF774FF2046FFF773FF8AE72046FFF724
:1038A0006DFF2046FFF76CFF9BE72046FFF766FFA2
:1038B0002046FFF765FFACE72046FFF75FFF204695
:1038C000FFF75EFFBDE76FF001021A612046FEF7C9
:1038D00071FBC1E76FF080021A61204600F073F9B6
:1038E000C3E76FF040021A612046FFF74AFFC5E7C1
:1038F0006FF020021A61204600F064F9C7E700006B
:103900000368304A904212D0B0F1804F0FD0A2F538
:103910007C4290420BD002F58062904207D002F5C3
:103920008062904203D002F57842904203D123F0A6
:1039300070034A681343234A90422AD0B0F1804F63
:1039400027D0A2F57C42904223D002F580629042BB
:103950001FD002F5806290421BD002F5784290425F
:1039600017D002F57052904213D002F58062904257
:103970000FD002F5806290420BD0A2F598329042AF
:1039800007D002F58062904203D002F58062904237
:1039900003D123F44073CA68134323F080034A69B8
:1039A000134303608B68C3620B688362054B9842C4
:1039B00003D003F58063984201D10B6903630123AF
:1039C000436170470000014040B310B5044690F8D1
:1039D0003D30F3B1022384F83D30214651F8040B09
:1039E000FFF78EFF012384F8463084F83E3084F8D8
:1039F0003F3084F8403084F8413084F8423084F815
:103A0000433084F8443084F8453084F83D30002059
:103A100010BD80F83C30FEF7AFFADBE701207047BD
:103A200010B4846824F47F4C42EA03220A4342EA39
:103A30000C02826010BC704790F83C30012B78D0AB
:103A400010B50446012380F83C30022380F83D3055
:103A50000268936823F47F4323F0770393600B6835
:103A6000602B4CD029D8402B54D00CD9502B22D1CC
:103A7000CA6849680068FFF70FFE50212068FFF709
:103A800030FE002005E0202B0DD009D9302B0AD0C4
:103A90000120012384F83D30002384F83C3010BD20
:103AA0000BB1102B05D119462068FFF71AFE002034
:103AB000EFE70120EDE70120EBE7B3F5805F34D0BD
:103AC000B3F5005F0CD1CB684A6889680068FFF7DE
:103AD000A7FF2268936843F4804393600020D8E7EF
:103AE000702B24D1CB684A6889680068FFF798FF7B
:103AF0002268936843F0770393600020C9E7CA689F
:103B000049680068FFF7DAFD60212068FFF7E9FDEA
:103B10000020BEE7CA6849680068FFF7BDFD402184
:103B20002068FFF7DEFD0020B3E70020B1E70120A9
:103B3000AFE702207047000090F83C30012B3CD0EA
:103B400010B4012380F83C30022380F83D30036834
:103B50005A689C6822F0700C0A6842EA0C025A60AB
:103B60000368174A93421AD0B3F1804F17D0A2F5D9
:103B70007C42934213D002F5806293420FD002F54B
:103B8000806293420BD002F57842934207D002F54F
:103B90007052934203D0A2F59432934204D124F0A0
:103BA00080044A6814439C60012380F83D30002360
:103BB00080F83C30184610BC70470220704700BFA8
:103BC0000000014070477047026802F10C0353E89F
:103BD000003F23F0C0030C3242E800310029F3D14A
:103BE000202380F83D307047026802F10C0353E84F
:103BF000003F23F490730C3242E800310029F3D1E6
:103C0000026802F1140353E8003F23F00103143269
:103C100042E800310029F3D1036B012B05D02023AA
:103C200080F83E30002303637047026802F10C0302
:103C300053E8003F23F010030C3242E80031002922
:103C4000F3D1ECE790F83D30DBB2212B01D002201C
:103C500070478368B3F5805F17D0036A5A1C02620D
:103C60001A7803685A60C38C9BB2013B9BB2C38431
:103C70004BB90268D36823F08003D3600268D3682D
:103C800043F04003D360002070470369002BE4D168
:103C9000036A1B880268C3F308035360036A023394
:103CA0000362E0E738B504460268136923F4405321
:103CB000C1680B431361836802691343426913436C
:103CC000C2691A430168CB6823F4164323F00C033E
:103CD0001343CB600268536923F4407381690B433B
:103CE00053610368314A934206D002F580629342E1
:103CF00002D0FFF785FC01E0FFF792FCE369B3F522
:103D0000004F29D00021031849411B1841F100013F
:103D1000C90041EA5371DB00181863684FEA830257
:103D20004FEA937341F10001FCF79AFF204DA5FB88
:103D300000325109642303FB11031B013233A5FB3D
:103D400003235B0903F0F00202EB011203F00F03FF
:103D5000216813448B6038BD0023021843EB030134
:103D6000121841F10001C90041EA5271D200101845
:103D700041F10001626892185B41FCF771FF0C4D44
:103D8000A5FB00325109642303FB1103DB0032332E
:103D9000A5FB03235B095A0002F4F87202EB01123F
:103DA00003F00703216813448B60D4E7001001403F
:103DB0001F85EB512DE9F84305460F4616469946F7
:103DC000DDF820802C68246837EA04030CBF4FF02C
:103DD000010C4FF0000CB4452DD1B8F1FF3FF1D0EC
:103DE000B8F1000F05D0FEF7ABFAA0EB0900404593
:103DF000E8D92A6802F10C0353E8003F23F4D0739A
:103E00000C3242E800310029F3D12A6802F1140390
:103E100053E8003F23F00103143242E80031002947
:103E2000F3D1202385F83D3085F83E30002385F816
:103E30003C30032000E00020BDE8F88358B310B503
:103E4000044690F83D300BB3242384F83D302268BB
:103E5000D36823F40053D3602046FFF723FF226882
:103E6000136923F4904313612268536923F02A03F2
:103E700053612268D36843F40053D3600020206468
:103E8000202384F83D3084F83E3010BD80F83C306B
:103E9000FEF7FEF8D8E7012070472DE9F04182B027
:103EA0001E4690F83D30DBB2202B54D104460D461F
:103EB0009046002953D0002A53D090F83C30012B73
:103EC00051D0012380F83C3000230364212380F883
:103ED0003D30FEF735FA0746A4F82480A4F8268082
:103EE000A368B3F5805F05D04FF00008002384F885
:103EF0003C3012E0236913B14FF00008F6E7A84602
:103F00000025F3E738F8023B2268C3F30803536047
:103F1000E28C92B2013A92B2E284E38C9BB273B12A
:103F200000963B46002280212046FFF743FFE0B980
:103F3000002DE7D015F8012B23685A60E8E70096BA
:103F40003B46002240212046FFF734FF78B920236A
:103F500084F83D3000E0022002B0BDE8F08101208D
:103F6000FAE70120F8E70220F6E70320F4E7032050
:103F7000F2E7000038B590F83D30DBB2202B38D1A5
:103F80000446002937D0002A37D090F83C30012B66
:103F900035D0012380F83C3001628284C284002540
:103FA0000564212380F83D30436B1648D863636B6A
:103FB00015481864636B1548D864636B1D652068E9
:103FC0001346021D606BFEF735FB23686FF040025D
:103FD0001A6084F83C50226802F1140353E8003F51
:103FE00043F08003143242E800310029F3D100206D
:103FF00000E0022038BD0120FCE70120FAE70220A2
:10400000F8E700BF134000087B4000088940000823
:10401000704708B50346806B1B681B6813F4807FEC
:104020001AD10023C384026802F1140353E8003F4D
:1040300023F08003143242E800310029F3D10268F2
:1040400002F10C0353E8003F43F040030C3242E816
:1040500000310029F3D108BDFFF7DAFFFBE708B50F
:104060000168CA6822F04002CA60202280F83D2020
:10407000FFF7CEFF002008BD704708B5806BFFF743
:10408000FBFF08BD7047704710B5846B23685A6901
:1040900094F83D30DBB2212B10D023685A6902F02E
:1040A000400294F83E30DBB2222B11D0236C43F057
:1040B000100323642046FFF7E6FF10BD02F08002E4
:1040C000002AEAD00023E3842046FFF77DFDE4E7E1
:1040D000002AEBD00023E3852046FFF785FDE5E7C6
:1040E00008B5806B0023C385C384FFF7CCFF08BDF0
:1040F000704790F83E30DBB2222B67D18368B3F56E
:10410000805F4DD0826AB3F5805F04D0002B54D11C
:104110000369002B51D103685B681370836A013314
:104120008362C38D9BB2013B9BB2C385002B4FD1F1
:1041300000B583B00268D36823F02003D36002681F
:10414000D36823F48073D3600268536923F00103BA
:104150005361202380F83E30036B012B33D10023C1
:104160000363026802F10C0353E8003F23F01003DD
:104170000C3242E800310029F3D103681A6812F0CA
:10418000100F06D0002201921A6801925B68019319
:10419000019B818DFFF7ACFF002003B05DF804FBAD
:1041A0000269002AAED1826A03685B68C3F3080320
:1041B0001380836A02338362B3E703685B6803F0AA
:1041C0007F031370AAE706F0E3FBE5E702207047E0
:1041D0000020704730B583B0044602681368D06889
:1041E000516913F00F0505D113F0200F02D010F024
:1041F000200F19D12DB111F0010119D110F4907FC8
:1042000016D1216B01297DD013F0800F03D010F05F
:10421000800F40F0158113F0400F03D010F0400FD5
:1042200040F0128103B030BD2046FFF762FFF9E78E
:1042300013F0010F06D010F4807F03D0226C42F0FF
:104240000102226413F0040F04D019B1226C42F071
:104250000202226413F0020F04D019B1226C42F062
:104260000402226413F0080F07D010F0200F00D1D1
:1042700019B1226C42F008022264226C002AD1D0CB
:1042800013F0200F02D010F0200F29D123685B69B2
:1042900003F04003226C12F0080F00D163B32046F4
:1042A000FFF7A2FC23685B6913F0400F20D022685F
:1042B00002F1140353E8003F23F04003143242E8B4
:1042C00000310029F3D1A36B73B1614A1A65A06B69
:1042D000FEF72FFA0028A5D0A06B036D9847A1E741
:1042E0002046FFF706FFD1E72046FFF7CCFE99E70F
:1042F0002046FFF7C8FE95E72046FFF7C4FE0023DF
:1043000023648FE713F0100F3FF47EAF10F0100F0F
:104310003FF47AAF0023019313680193536801932C
:10432000019B536913F0400F50D0A26B13685B6878
:104330009BB2002B3FF476AFA18D99427FF672AF0E
:10434000E385D369B3F5807F37D0226802F10C038F
:1043500053E8003F23F480730C3242E80031002917
:10436000F3D1226802F1140353E8003F23F0010364
:10437000143242E800310029F3D1226802F114031B
:1043800053E8003F23F04003143242E80031002993
:10439000F3D1202384F83E3000232363226802F106
:1043A0000C0353E8003F23F010030C3242E80031C5
:1043B0000029F3D1A06BFEF772F9A18DE38D9BB2BA
:1043C000C91A89B22046FFF793FE2BE7A18DE38D32
:1043D0009BB2C91A89B2E38D9BB2002B3FF422AF86
:1043E00000293FF41FAF226802F10C0353E8003F9D
:1043F00023F490730C3242E800300028F3D1226895
:1044000002F1140353E8003F23F00103143242E8A1
:1044100000300028F3D1202384F83E3000232363AA
:10442000226802F10C0353E8003F23F010030C3222
:1044300042E800300028F3D12046FFF759FEF1E6AC
:104440002046FFF7FFFBEDE62046FFF708FEE9E612
:10445000E140000808B5806B036B012B02D0FFF729
:1044600011FE08BD818D4908FFF742FEF9E708B546
:104470000346806B1B681B6813F4807F2BD10023DD
:10448000C385026802F10C0353E8003F23F48073F4
:104490000C3242E800310029F3D1026802F1140322
:1044A00053E8003F23F00103143242E800310029B1
:1044B000F3D1026802F1140353E8003F23F04003F4
:1044C000143242E800310029F3D1202380F83E3035
:1044D000036B012B05D0036B012B0FD006F058FAAC
:1044E00008BD026802F10C0353E8003F23F01003FB
:1044F0000C3242E800310029F3D1ECE7818DFFF75F
:10450000F7FDEDE781628285C285002303642222E4
:1045100080F83E2080F83C30036923B10268D368FC
:1045200043F48073D3600268536943F0010353611D
:104530000268D36843F02003D3600020704708B5B9
:1045400090F83E30DBB2202B0DD171B17AB190F8EA
:104550003C30012B0DD0012380F83C300023036355
:10456000FFF7D0FF00E0022008BD0120FCE701209A
:10457000FAE70220F8E7000030B583B0044613469E
:104580008162828500250564222280F83E20826BAC
:104590002048D063A26B20481064A26B1F48D064EF
:1045A000A26B156520680A46011DA06BFEF742F854
:1045B000019523681A6801925B680193019B84F856
:1045C0003C5023695BB1226802F10C0353E8003FC1
:1045D00043F480730C3242E800310029F3D12268A1
:1045E00002F1140353E8003F43F00103143242E8A0
:1045F00000310029F3D1226802F1140353E8003F8F
:1046000043F04003143242E800310029F3D1002086
:1046100003B030BD6F4400085544000889400008CD
:1046200008B590F83E30DBB2202B0DD171B17AB1D4
:1046300090F83C30012B0DD0012380F83C30002352
:104640000363FFF799FF00E0022008BD0120FCE7AB
:104650000120FAE70220F8E730B40A6850F8223067
:1046600023F0010340F822308B68082B2AD0002465
:104670004A6822431343CA6813430A6913434A69C9
:104680001343CA6913430A6A13434A6A13438A6A83
:104690001343CA6A13430A6B13438A6913434A6B71
:1046A0001343CA6B13430C6850F824500B4A2A403A
:1046B0001A4340F824204B6BB3F5801F04D0002030
:1046C00030BC70474024D3E70A68002AF7D002685C
:1046D00022F4801213430360F1E700BF8000E0FF83
:1046E00010B5013250F8223003F0404C0B684C6892
:1046F00043EA04138C6843EA0423CC6843EA044386
:104700000C6904F1FF3E43EA0E534C69A4F1020E1A
:1047100043EA0E638C6923434CEA030340F82230DA
:10472000036813F4801F0BD0436823F470030A69F5
:10473000013A43EA0252436823F47003134343608F
:10474000002010BDB3F5804F05D06FF0704340F8E6
:1047500022300020704730B450F82230094C1C4001
:104760000B684D6843EA05138D6843EA05238D699C
:104770002B43C96843EA0143234340F82230002019
:1047800030BC70470000F0CF10B504460420FDF7A0
:104790005DFE014B1C6010BD1821002010B44FF0CD
:1047A000E02254690B4B1B6800FB03FC936900215A
:1047B00004E0E01A02441144614509D21A464FF060
:1047C000E0239B699A42FAD0F3D9D21A1144F3E755
:1047D00010BC70471821002038B50546002404E0BD
:1047E0004FF47A70FFF7DAFF0134A542F8D838BDEC
:1047F000014BA3F8FE00704700FF0760014BA3F8D0
:104800000001704700FF0760024BB3F8000180B25F
:10481000704700BF00FF0760024BA3F8FE00A3F83B
:104820000011704700FF076008B5FFF7E1FF0520A2
:10483000FFF7B4FFFFF7E8FF08BD0000024B1A893D
:10484000024BA3F8FE2070472021002000FF0760E4
:1048500070B504460D46614B9B8849F24132934244
:104860001FD045F2103293421BD046F60402934209
:104870002BD041F66312934246D045F21052934238
:1048800000F08680554B9B79012B00F09F80534EA2
:1048900021467089FFF7C0FF2946B089FFF7BCFFAA
:1048A00012E04E4E7089FFF7A3FF200AFFF7A6FF24
:1048B000E0B2FFF7A3FFB089FFF79AFF280AFFF7DE
:1048C0009DFFE8B2FFF79AFF70BD444B9B79012B27
:1048D00013D0424E7089FFF78BFF200AFFF78EFF3F
:1048E000E0B2FFF78BFFB089FFF782FF280AFFF7DE
:1048F00085FFE8B2FFF782FFE6E7384B1B881C1AFA
:10490000A4B2013CA4B2E4E7344B9B7953BB334AD5
:1049100013881C1AA4B2013CA4B25089FFF768FFA7
:104920000020FFF76BFF0020FFF768FF200AFFF76A
:1049300065FFE0B2FFF762FF284CA089FFF758FF40
:10494000280AFFF75BFFE8B2FFF758FF60880138DD
:10495000C0F30F20FFF752FF60880138C0B2FFF7A5
:104960004DFFB1E71D4E7089FFF742FF200AFFF7A8
:1049700045FFE0B2FFF742FF30880138C0F30F2057
:10498000FFF73CFF30880138C0B2FFF737FFD3E7AD
:10499000124E7089FFF72CFF200AFFF72FFF708956
:1049A000013080B2FFF724FFE0B2FFF727FFB089A4
:1049B000FFF71EFF280AFFF721FFB089013080B200
:1049C000FFF716FFE8B2FFF719FF7DE7034B1B88DF
:1049D0001C1AA4B2013CA4B259E700BF2021002058
:1049E00010B5964B9B79012B29D02BB9934B9A8804
:1049F00041F663139A422CD0904B9B8849F2413286
:104A000093423ED046F6040293423AD045F2103229
:104A1000934236D045F21052934232D041F663129F
:104A200093422ED0072800F2F480DFE810F0000156
:104A3000F400F600F200F800FA00FC00FE007F4AE5
:104A4000928846F604018A42CFD041F663118A4229
:104A5000CBD00728D0D8DFE800F0120406080A0CF3
:104A60000E100720C8E70420C6E70520C4E7012090
:104A7000C2E70020C0E70320BEE70220BCE7062013
:104A8000BAE70138062805D8DFE800F01206080A60
:104A90000C0E100000240CE040240AE0C02408E0C2
:104AA000202406E0602404E0A02402E0E02400E0EA
:104AB000802445F21052934254D0362045F21032F1
:104AC000934209D045F21052934205D041F6631249
:104AD000934201D044F0080446F60402934244D0C5
:104AE0002146FFF799FE554B9B8841F6631293428E
:104AF0000AD014F0200F3BD0504A118852889142BE
:104B000002D24E480280418045F21052934238D082
:104B10004A4C6089FFF76CFE0020FFF76FFE002013
:104B2000FFF76CFE20880138C0F30F20FFF766FE08
:104B300020880138C0B2FFF761FEA089FFF758FE58
:104B40000020FFF75BFE0020FFF758FE6088013869
:104B5000C0F30F20FFF752FE60880138C0B2FFF7A4
:104B60004DFE10BD4FF45850A8E744F00204B7E7DB
:104B7000324A118852889142C6D930480280418019
:104B8000C2E72E4C6089FFF733FE0020FFF736FEA8
:104B90006089013080B2FFF72BFE0020FFF72EFE68
:104BA0006089023080B2FFF723FE20880138C0F30D
:104BB0000F20FFF723FE6089033080B2FFF718FE55
:104BC00020880138C0B2FFF719FEA089FFF710FE58
:104BD0000020FFF713FEA089013080B2FFF708FE26
:104BE0000020FFF70BFEA089023080B2FFF700FE25
:104BF00060880138C0F30F20FFF700FEA089033062
:104C000080B2FFF7F5FD60880138C0B2FFF7F6FD0E
:104C1000A7E700210CE010210AE0202108E038215C
:104C200006E0282104E0182102E0082100E03021FC
:104C300041F480510320FFF7EFFD92E7202100208F
:104C400010B51446FFF704FEFFF7F8FD014BA3F87B
:104C5000004110BD00FF076008B500285AD1604B25
:104C600000229A71F0221A804FF4A0725A809B8819
:104C700049F24132934217D046F60402934213D0D0
:104C800045F2103293420FD045F21052934222D097
:104C900041F6631293422FD0514B22221A812022D7
:104CA0005A8121229A8170E04D4A2C2111812A21BA
:104CB00051812B21918146F60402934203D045F2A3
:104CC0001032934261D1464B4FF4A0721A804FF4D8
:104CD000F0725A8059E0424B4FF430521A814FF42F
:104CE00028525A814FF42C529A814FF4F0721A8054
:104CF0004FF448725A8048E0394B2C221A812B22FB
:104D00005A812A229A814FF4F0721A804FF4487225
:104D10005A803AE0324B01229A714FF4A0721A8005
:104D2000F0225A809B8849F24132934217D045F2D3
:104D30001032934213D046F60402934229D045F232
:104D4000105293422DD041F6631293423AD0244A36
:104D500022211181212151812021918106E0204AC7
:104D60002C2111812A2151812B21918146F60402A7
:104D7000934203D045F21032934206D1184B4FF4C0
:104D8000F0721A804FF4A0725A800020FFF728FEBC
:104D900008BD134A2C2111812B2151812A21918197
:104DA000E4E70F4A4FF4305111814FF428515181FB
:104DB0004FF42C5191814FF4487111804FF4F071F0
:104DC0005180D3E7064A2C2111812A2151812B21C0
:104DD00091814FF4487111804FF4F0715180C5E713
:104DE0002021002010B53220FDF7B0FA012100206B
:104DF000FFF712FD3220FDF7A9FA0020FFF714FD9E
:104E0000B94B9880A0F1FF039BB2B3F57F4F80F0C0
:104E10000181B0F5134F00F0FD80B34B9B8849F240
:104E20004132934200F0628146F60402934200F060
:104E3000758245F21032934200F0198345F2105208
:104E4000934201F08D8249F22532934202F00682AC
:104E500049F22832934202F0D88249F2203293423A
:104E600002F0C78349F23132934202F06F8445F277
:104E70000842934202F04D8541F20552934202F0FE
:104E8000EB854BF20552934202F0FA864CF2055242
:104E9000934202F0F88748F68912934203F0C380E8
:104EA00044F23152934203F07A8144F235529342F4
:104EB00040F0308230211520FFF7AEFC10219A20FF
:104EC000FFF7AAFC20211120FFF7A6FC43F228419E
:104ED0001020FFF7A1FC02211220FFF79DFC41F2F8
:104EE00038011320FFF798FC2820FDF72FFA122134
:104EF0000846FFF791FC2820FDF728FA43F22041ED
:104F00001020FFF789FC43F238011320FFF784FCDF
:104F10004620FDF71BFA00213020FFF77DFC40F210
:104F200002413120FFF778FC40F207313220FFF7D1
:104F300073FC4FF441713320FFF76EFC04213420E1
:104F4000FFF76AFC40F201413520FFF765FC40F2B3
:104F500007713620FFF760FC40F205313720FFF77C
:104F60005BFC4FF4C2613820FFF756FC4FF4C2617E
:104F70003920FFF751FC4FF480710120FFF74CFC02
:104F80004FF440710220FFF747FC41F2300103204B
:104F9000FFF742FC40F608010820FFF73DFC08211E
:104FA0000A20FFF739FC4FF41C516020FFF734FC56
:104FB00001216120FFF730FC4FF49F719020FFF733
:104FC0002BFC4FF480719220FFF726FC4FF4807188
:104FD0009320FFF721FC4FF44051A020FFF71CFC69
:104FE0001021A320FFF718FC01210720FFF714FC74
:104FF00021210720FFF710FC23210720FFF70CFCDD
:1050000033210720FFF708FC40F233110720FFF798
:1050100003FC7FE1D320FFF7EBFBFFF7F5FBFFF786
:10502000F3FBFFF7F1FB304CA0800002A080FFF7FC
:10503000EBFBA388184380B2A08049F24133984229
:105040003FF4EBAEBF20FFF7D3FBFFF7DDFBFFF72D
:10505000DBFBFFF7D9FBFFF7D7FBA0800002A080A6
:10506000FFF7D2FBA388184380B2A08046F6040362
:1050700098423FF4D2AED420FFF7BAFBFFF7C4FB4F
:10508000FFF7C2FBFFF7C0FBA0800002A080FFF784
:10509000BBFBA388184380B2A08045F2103398422E
:1050A0003FF4BBAE4FF45A40FFF7A2FBFFF7ACFB57
:1050B0004FF45B40FFF79CFBFFF7A6FBA0800002CC
:1050C000A0804FF45C40FFF793FBFFF79DFBA388A4
:1050D000184380B2A080B0F5004F7FF49EAE45F239
:1050E0001052A28099E600BF20210020CF20FFF7B8
:1050F0007FFB0020FFF782FBC120FFF77FFB302002
:10510000FFF77CFBED20FFF773FB6420FFF776FBD6
:105110000320FFF773FB1220FFF770FB8120FFF7DE
:105120006DFBE820FFF764FB8520FFF767FB10208D
:10513000FFF764FB7A20FFF761FBCB20FFF758FBFA
:105140003920FFF75BFB2C20FFF758FB0020FFF70F
:1051500055FB3420FFF752FB0220FFF74FFBF720EF
:10516000FFF746FB2020FFF749FBEA20FFF740FB53
:105170000020FFF743FB0020FFF740FBC020FFF7B4
:1051800037FB1B20FFF73AFBC120FFF731FB012063
:10519000FFF734FBC520FFF72BFB3020FFF72EFB7A
:1051A0003020FFF72BFBC720FFF722FBB720FFF7CC
:1051B00025FB3620FFF71CFB4820FFF71FFB3A209A
:1051C000FFF716FB5520FFF719FBB120FFF710FB87
:1051D0000020FFF713FB1A20FFF710FBB620FFF7A4
:1051E00007FB0A20FFF70AFBA220FFF707FBF220CC
:1051F000FFF7FEFA0020FFF701FB2620FFF7F8FA81
:105200000120FFF7FBFAE020FFF7F2FA0F20FFF78B
:10521000F5FA2A20FFF7F2FA2820FFF7EFFA082024
:10522000FFF7ECFA0E20FFF7E9FA0820FFF7E6FA9D
:105230005420FFF7E3FAA920FFF7E0FA4320FFF735
:10524000DDFA0A20FFF7DAFA0F20FFF7D7FA00207D
:10525000FFF7D4FA0020FFF7D1FA0020FFF7CEFACB
:105260000020FFF7CBFAE120FFF7C2FA0020FFF79A
:10527000C5FA1520FFF7C2FA1720FFF7BFFA07207B
:10528000FFF7BCFA1120FFF7B9FA0620FFF7B6FACC
:105290002B20FFF7B3FA5620FFF7B0FA3C20FFF7B8
:1052A000ADFA0520FFF7AAFA1020FFF7A7FA0F20A2
:1052B000FFF7A4FA3F20FFF7A1FA3F20FFF79EFA7D
:1052C0000F20FFF79BFA2B20FFF792FA0020FFF741
:1052D00095FA0020FFF792FA0120FFF78FFA3F209E
:1052E000FFF78CFA2A20FFF783FA0020FFF786FAEF
:1052F0000020FFF783FA0020FFF780FAEF20FFF786
:105300007DFA1120FFF774FA7820FDF71FF82920A5
:10531000FFF76EFA0020FFF79FFC10BD1120FFF78A
:1053200067FA1420FDF712F8D020FFF761FA072082
:10533000FFF764FA4220FFF761FA1D20FFF75EFADB
:10534000D120FFF755FA0020FFF758FA1A20FFF78F
:1053500055FA0920FFF752FAD220FFF749FA012047
:10536000FFF74CFA2220FFF749FAC020FFF740FA76
:105370001020FFF743FA3B20FFF740FA0020FFF729
:105380003DFA0220FFF73AFA1120FFF737FAC5205D
:10539000FFF72EFA0320FFF731FAC820FFF728FAAB
:1053A0000020FFF72BFA2520FFF728FA2120FFF72E
:1053B00025FA0520FFF722FA0020FFF71FFA0A203E
:1053C000FFF71CFA6520FFF719FA2520FFF716FAF8
:1053D0007720FFF713FA5020FFF710FA0F20FFF79E
:1053E0000DFA0020FFF70AFAF820FFF701FA012072
:1053F000FFF704FAFE20FFF7FBF90020FFF7FEF9A4
:105400000220FFF7FBF92020FFF7F2F93620FFF723
:10541000EFF90820FFF7F2F93A20FFF7E9F95520F4
:10542000FFF7ECF92B20FFF7E3F90020FFF7E6F98F
:105430000020FFF7E3F90120FFF7E0F93F20FFF735
:10544000DDF92A20FFF7D4F90020FFF7D7F9002073
:10545000FFF7D4F90120FFF7D1F9DF20FFF7CEF9EC
:105460007820FCF773FF2920FFF7C2F952E7ED20FF
:10547000FFF7BEF90120FFF7C1F9FE20FFF7BEF9E3
:10548000EE20FFF7B5F9DE20FFF7B8F92120FFF78E
:10549000B5F9F120FFF7ACF90120FFF7AFF9DF20F4
:1054A000FFF7A6F91020FFF7A9F9C420FFF7A0F92C
:1054B0008F20FFF7A3F9C620FFF79AF90020FFF726
:1054C0009DF9E220FFF79AF9E220FFF797F9E22031
:1054D000FFF794F9BF20FFF78BF9AA20FFF78EF9A9
:1054E000B020FFF785F90D20FFF788F90020FFF7BE
:1054F00085F90D20FFF782F90020FFF77FF91120D1
:10550000FFF77CF90020FFF779F91920FFF776F90A
:105510000020FFF773F92120FFF770F90020FFF753
:105520006DF92D20FFF76AF90020FFF767F93D209C
:10553000FFF764F90020FFF761F95D20FFF75EF9DE
:105540000020FFF75BF95D20FFF758F90020FFF717
:1055500055F9B120FFF74CF98020FFF74FF90020F3
:10556000FFF74CF98B20FFF749F90020FFF746F9C8
:105570009620FFF743F90020FFF740F9B220FFF72C
:1055800037F90020FFF73AF90020FFF737F902203A
:10559000FFF734F90020FFF731F90320FFF72EF968
:1055A0000020FFF72BF9B320FFF722F90020FFF7C7
:1055B00025F90020FFF722F90020FFF71FF900204E
:1055C000FFF71CF90020FFF719F90020FFF716F983
:1055D0000020FFF713F90020FFF710F90020FFF774
:1055E0000DF90020FFF70AF90020FFF707F9002066
:1055F000FFF704F90020FFF701F90020FFF7FEF89C
:105600000020FFF7FBF80020FFF7F8F80020FFF775
:10561000F5F80020FFF7F2F80020FFF7EFF8002080
:10562000FFF7ECF80020FFF7E9F80020FFF7E6F8B5
:105630000020FFF7E3F80020FFF7E0F8B420FFF7C1
:10564000D7F88B20FFF7DAF80020FFF7D7F896207D
:10565000FFF7D4F80020FFF7D1F8A120FFF7CEF82C
:105660000020FFF7CBF8B520FFF7C2F80220FFF7C4
:10567000C5F80020FFF7C2F80320FFF7BFF80020AD
:10568000FFF7BCF80420FFF7B9F80020FFF7B6F8E1
:10569000B620FFF7ADF80020FFF7B0F80020FFF7C5
:1056A000ADF8B720FFF7A4F80020FFF7A7F8002017
:1056B000FFF7A4F83F20FFF7A1F80020FFF79EF8BE
:1056C0005E20FFF79BF80020FFF798F86420FFF7B3
:1056D00095F80020FFF792F88C20FFF78FF8002054
:1056E000FFF78CF8AC20FFF789F80020FFF786F869
:1056F000DC20FFF783F80020FFF780F87020FFF729
:105700007DF80020FFF77AF89020FFF777F8002067
:10571000FFF774F8EB20FFF771F80020FFF76EF841
:10572000DC20FFF76BF80020FFF768F8B820FFF7E0
:105730005FF80020FFF762F80020FFF75FF8002015
:10574000FFF75CF80020FFF759F80020FFF756F844
:105750000020FFF753F80020FFF750F80020FFF774
:105760004DF8BA20FFF744F82420FFF747F800204F
:10577000FFF744F80020FFF741F80020FFF73EF85C
:10578000C120FFF735F82020FFF738F80020FFF799
:1057900035F85420FFF732F80020FFF72FF8FF20EC
:1057A000FFF72CF80020FFF729F8C220FFF720F8B8
:1057B0000A20FFF723F80020FFF720F80420FFF766
:1057C0001DF80020FFF71AF8C320FFF711F83C205E
:1057D000FFF714F80020FFF711F83A20FFF70EF852
:1057E0000020FFF70BF83920FFF708F80020FFF73B
:1057F00005F83720FFF702F80020FEF7FFFF3C20F6
:10580000FEF7FCFF0020FEF7F9FF3620FEF7F6FF5B
:105810000020FEF7F3FF3220FEF7F0FF0020FEF736
:10582000EDFF2F20FEF7EAFF0020FEF7E7FF2C2018
:10583000FEF7E4FF0020FEF7E1FF2920FEF7DEFF80
:105840000020FEF7DBFF2620FEF7D8FF0020FEF742
:10585000D5FF2420FEF7D2FF0020FEF7CFFF242043
:10586000FEF7CCFF0020FEF7C9FF2320FEF7C6FF9E
:105870000020FEF7C3FF3C20FEF7C0FF0020FEF72C
:10588000BDFF3620FEF7BAFF0020FEF7B7FF32203B
:10589000FEF7B4FF0020FEF7B1FF2F20FEF7AEFFAA
:1058A0000020FEF7ABFF2C20FEF7A8FF0020FEF73C
:1058B000A5FF2920FEF7A2FF0020FEF79FFF26206C
:1058C000FEF79CFF0020FEF799FF2420FEF796FFCD
:1058D0000020FEF793FF2420FEF790FF0020FEF744
:1058E0008DFF2320FEF78AFF0020FEF787FFC420EC
:1058F000FEF77EFF6220FEF781FF0020FEF77EFFAD
:105900000520FEF77BFF0020FEF778FF8420FEF7DE
:1059100075FF0020FEF772FFF020FEF76FFF0020FA
:10592000FEF76CFF1820FEF769FF0020FEF766FF08
:10593000A420FEF763FF0020FEF760FF1820FEF7AB
:105940005DFF0020FEF75AFF5020FEF757FF0020B2
:10595000FEF754FF0C20FEF751FF0020FEF74EFF2C
:105960001720FEF74BFF0020FEF748FF9520FEF7BB
:1059700045FF0020FEF742FFF320FEF73FFF002027
:10598000FEF73CFFE620FEF739FF0020FEF736FF6A
:10599000C520FEF72DFF3220FEF730FF0020FEF776
:1059A0002DFF4420FEF72AFF0020FEF727FF652089
:1059B000FEF724FF0020FEF721FF7620FEF71EFFF2
:1059C0000020FEF71BFF8820FEF718FF0020FEF7DF
:1059D00015FFC620FEF70CFF2020FEF70FFF00206A
:1059E000FEF70CFF1720FEF709FF0020FEF706FF69
:1059F0000120FEF703FF0020FEF700FFC720FEF79F
:105A0000F7FE0020FEF7FAFE0020FEF7F7FE00206A
:105A1000FEF7F4FE0020FEF7F1FEC820FEF7E8FED8
:105A20000020FEF7EBFE0020FEF7E8FE0020FEF768
:105A3000E5FE0020FEF7E2FEC920FEF7D9FE0020B9
:105A4000FEF7DCFE0020FEF7D9FE0020FEF7D6FEB2
:105A50000020FEF7D3FE0020FEF7D0FE0020FEF768
:105A6000CDFE0020FEF7CAFE0020FEF7C7FE002094
:105A7000FEF7C4FE0020FEF7C1FE0020FEF7BEFECA
:105A80000020FEF7BBFE0020FEF7B8FE0020FEF768
:105A9000B5FE0020FEF7B2FE0020FEF7AFFEE020CC
:105AA000FEF7A6FE1620FEF7A9FE0020FEF7A6FED2
:105AB0001C20FEF7A3FE0020FEF7A0FE2120FEF72B
:105AC0009DFE0020FEF79AFE3620FEF797FE00208E
:105AD000FEF794FE4620FEF791FE0020FEF78EFEB4
:105AE0005220FEF78BFE0020FEF788FE6420FEF7B2
