:020000040800F2
:1000000000000320991E0008951A0008971A00089E
:10001000991A00089B1A00089D1A000800000000A9
:100020000000000000000000000000009F1A00080F
:10003000A11A000800000000A31A0008A51A000871
:10004000E91E0008E91E0008E91E0008E91E000874
:10005000E91E0008E91E0008E91E0008E91E000864
:10006000E91E0008E91E0008E91E0008E91E000854
:10007000E91E0008E91E0008E91E0008E91E000844
:10008000E91E0008E91E0008E91E0008E91E000834
:10009000E91E0008E91E0008E91E0008E91E000824
:1000A000E91E0008E91E0008E91E0008E91E000814
:1000B000B91A0008E91E0008E91E0008E91E000838
:1000C000E91E0008E91E0008E91E0008E91E0008F4
:1000D000E91E0008C91A0008D91A0008E91A000820
:1000E000E91E0008E91E0008E91E0008E91E0008D4
:1000F000E91E0008E91E0008E91E0008E91E0008C4
:10010000E91E0008E91E0008E91E0008E91E0008B3
:10011000E91E0008E91E0008E91E0008E91E0008A3
:10012000E91E0008E91E0008E91E0008E91E000893
:10013000E91E0008E91E0008E91E0008E91E000883
:10014000E91E0008E91E0008E91E0008E91E000873
:10015000E91E0008E91E0008E91E0008E91E000863
:10016000E91E0008E91E0008E91E0008E91E000853
:10017000E91E0008E91E0008E91E00080000000052
:10018000E91E0008E91E0008E91E0008E91E000833
:10019000E91E0008E91E0008E91E0008E91E000823
:0C01A0000000000000000000E91E000844
:1001C00010B5054C237833B9044B13B10448AFF391
:1001D00000800123237010BDA81C00200000000037
:1001E0007419010808B5034B1BB103490348AFF369
:1001F000008008BD00000000AC1C0020741901083C
:1002000081F0004102E000BF83F0004330B54FEAC7
:1002100041044FEA430594EA050F08BF90EA020F34
:100220001FBF54EA000C55EA020C7FEA645C7FEAC7
:10023000655C00F0E2804FEA5454D4EB5555B8BFEA
:100240006D420CDD2C4480EA020281EA030382EA5B
:10025000000083EA010180EA020281EA0303362DED
:1002600088BF30BD11F0004F4FEA01314FF4801CC0
:100270004CEA113102D0404261EB410113F0004FD2
:100280004FEA03334CEA133302D0524263EB430389
:1002900094EA050F00F0A780A4F10104D5F1200E27
:1002A0000DDB02FA0EFC22FA05F2801841F1000182
:1002B00003FA0EF2801843FA05F359410EE0A5F156
:1002C00020050EF1200E012A03FA0EFC28BF4CF087
:1002D000020C43FA05F3C01851EBE37101F000453D
:1002E00007D54FF0000EDCF1000C7EEB00006EEB4A
:1002F0000101B1F5801F1BD3B1F5001F0CD34908D4
:100300005FEA30004FEA3C0C04F101044FEA44522A
:1003100012F5800F80F09A80BCF1004F08BF5FEAB1
:10032000500C50F1000041EB045141EA050130BD91
:100330005FEA4C0C404141EB0101013C28BFB1F5A3
:10034000801FE9D291F0000F04BF01460020B1FAEE
:1003500081F308BF2033A3F10B03B3F120020CDAC1
:100360000C3208DD02F1140CC2F10C0201FA0CF09F
:1003700021FA02F10CE002F11402D8BFC2F1200C04
:1003800001FA02F120FA0CFCDCBF41EA0C019040BA
:10039000E41AA2BF01EB0451294330BD6FEA040403
:1003A0001F3C1CDA0C340EDC04F11404C4F12002EE
:1003B00020FA04F001FA02F340EA030021FA04F300
:1003C00045EA030130BDC4F10C04C4F1200220FA57
:1003D00002F001FA04F340EA0300294630BD21FA95
:1003E00004F0294630BD94F0000F83F4801306BF5B
:1003F00081F480110134013D4EE77FEA645C18BF4F
:100400007FEA655C29D094EA050F08BF90EA020FE5
:1004100005D054EA000C04BF1946104630BD91EADD
:10042000030F1EBF0021002030BD5FEA545C05D1E0
:100430004000494128BF41F0004130BD14F580041F
:100440003CBF01F5801130BD01F0004545F0FE4193
:1004500041F470014FF0000030BD7FEA645C1ABFC8
:10046000194610467FEA655C1CBF0B46024650EAFF
:10047000013406BF52EA033591EA030F41F400212B
:1004800030BD00BF90F0000F04BF0021704730B5B1
:100490004FF4806404F132044FF000054FF0000186
:1004A00050E700BF90F0000F04BF0021704730B547
:1004B0004FF4806404F1320410F0004548BF40421C
:1004C0004FF000013EE700BF42004FEAE2014FEA71
:1004D00031014FEA02701FBF12F07F4393F07F4F4C
:1004E00081F06051704732F07F4208BF704793F04F
:1004F0007F4F04BF41F40021704730B54FF4607462
:1005000001F0004521F000411CE700BF50EA010264
:1005100008BF704730B54FF000050AE050EA01020D
:1005200008BF704730B511F0004502D5404261EB7D
:1005300041014FF4806404F132045FEA915C3FF4BE
:10054000D8AE4FF003025FEADC0C18BF03325FEA5B
:10055000DC0C18BF033202EBDC02C2F1200300FA0C
:1005600003FC20FA02F001FA03FE40EA0E0021FA31
:1005700002F11444BDE600BF4FF0FF3C06E000BFAF
:100580004FF0010C02E000BF4FF0010C4DF804CD1C
:100590004FEA410C7FEA6C5C4FEA430C18BF7FEADC
:1005A0006C5C1BD001B050EA410C0CBF52EA430C0A
:1005B00091EA030F02BF90EA020F0020704710F18A
:1005C000000F91EA030F58BF994208BF90422CBF19
:1005D000D8176FEAE37040F0010070474FEA410C12
:1005E0007FEA6C5C02D150EA013C07D14FEA430C30
:1005F0007FEA6C5CD6D152EA033CD3D05DF8040BA1
:10060000704700BF8446104662468C4619466346D2
:1006100000E000BF01B5FFF7B7FF002848BF10F1A9
:10062000000F01BD4DF808EDFFF7F4FF0CBF0120EE
:1006300000205DF808FB00BF4DF808EDFFF7EAFF6A
:1006400034BF012000205DF808FB00BF4DF808ED25
:10065000FFF7E0FF94BF012000205DF808FB00BF1A
:100660004DF808EDFFF7CEFF94BF012000205DF8A4
:1006700008FB00BF4DF808EDFFF7C4FF34BF0120B1
:1006800000205DF808FB00BF4FEA410212F500129E
:1006900015D211D56FF47873B3EB625212D94FEAC9
:1006A000C12343F0004343EA505311F0004F23FAB3
:1006B00002F018BF404270474FF00000704750EA08
:1006C000013005D111F0004008BF6FF000407047C5
:1006D0004FF00000704700BF4A0011D212F500121F
:1006E00011D20DD56FF47873B3EB62520ED44FEA8A
:1006F000C12343F0004343EA505323FA02F070470A
:100700004FF00000704750EA013002D14FF0FF3047
:1007100070474FF00000704780F0004002E000BFDB
:1007200081F0004142001FBF5FEA410392EA030FDC
:100730007FEA226C7FEA236C6AD04FEA1262D2EB26
:100740001363C1BFD218414048404140B8BF5B422B
:10075000192B88BF704710F0004F40F4000020F0C4
:100760007F4018BF404211F0004F41F4000121F0DA
:100770007F4118BF494292EA030F3FD0A2F1010224
:1007800041FA03FC10EB0C00C3F1200301FA03F162
:1007900000F0004302D5494260EB4000B0F5000F85
:1007A00013D3B0F1807F06D340084FEA310102F144
:1007B0000102FE2A51D2B1F1004F40EBC25008BFF6
:1007C00020F0010040EA03007047490040EB0000C0
:1007D000013A28BFB0F5000FEDD2B0FA80FCACF1C1
:1007E000080CB2EB0C0200FA0CF0AABF00EBC250EE
:1007F00052421843BCBFD0401843704792F0000FDC
:1008000081F4000106BF80F400000132013BB5E72E
:100810004FEA41037FEA226C18BF7FEA236C21D0A4
:1008200092EA030F04D092F0000F08BF0846704709
:1008300090EA010F1CBF0020704712F07F4F04D1D7
:10084000400028BF40F00040704712F100723CBFEA
:1008500000F50000704700F0004343F0FE4040F414
:10086000000070477FEA226216BF08467FEA2363D2
:100870000146420206BF5FEA412390EA010F40F4BD
:10088000800070474FF0000304E000BF10F0004309
:1008900048BF40425FEA000C08BF704743F09643F0
:1008A00001464FF000001CE050EA010208BF70470B
:1008B0004FF000030AE000BF50EA010208BF704792
:1008C00011F0004302D5404261EB41015FEA010CA7
:1008D00002BF84460146002043F0B64308BFA3F19F
:1008E0008053A3F50003BCFA8CF2083AA3EBC25381
:1008F00010DB01FA02FC634400FA02FCC2F12002A0
:10090000BCF1004F20FA02F243EB020008BF20F0D6
:100910000100704702F1200201FA02FCC2F120023C
:1009200050EA4C0021FA02F243EB020008BF20EA31
:10093000DC7070474FF0FF0C1CEAD0521EBF1CEA5F
:10094000D15392EA0C0F93EA0C0F6FD01A4480EA4D
:10095000010C400218BF5FEA41211ED04FF0006336
:1009600043EA501043EA5111A0FB01310CF0004062
:10097000B1F5000F3EBF490041EAD3715B0040EA88
:10098000010062F17F02FD2A1DD8B3F1004F40EB58
:10099000C25008BF20F00100704790F0000F0CF02B
:1009A000004C08BF49024CEA502040EA51207F3AEF
:1009B000C2BFD2F1FF0340EAC250704740F40000CA
:1009C0004FF00003013A5DDC12F1190FDCBF00F0BB
:1009D00000407047C2F10002410021FA02F1C2F169
:1009E000200200FA02FC5FEA310040F1000053EA05
:1009F0004C0308BF20EADC70704792F0000F00F053
:100A0000004C02BF400010F4000F013AF9D040EA58
:100A10000C0093F0000F01F0004C02BF490011F4EC
:100A2000000F013BF9D041EA0C018FE70CEAD153EA
:100A300092EA0C0F18BF93EA0C0F0AD030F0004C6A
:100A400018BF31F0004CD8D180EA010000F000401E
:100A5000704790F0000F17BF90F0004F084691F0DC
:100A6000000F91F0004F14D092EA0C0F01D1420216
:100A70000FD193EA0C0F03D14B0218BF084608D1DF
:100A800080EA010000F0004040F0FE4040F4000029
:100A9000704740F0FE4040F4400070474FF0FF0CBC
:100AA0001CEAD0521EBF1CEAD15392EA0C0F93EA03
:100AB0000C0F69D0A2EB030280EA010C49024FEA55
:100AC000402037D04FF0805343EA111143EA10130E
:100AD0000CF000408B4238BF5B0042F17D024FF4C6
:100AE000000C8B4224BF5B1A40EA0C00B3EB510FA1
:100AF00024BFA3EB510340EA5C00B3EB910F24BF8A
:100B0000A3EB910340EA9C00B3EBD10F24BFA3EB0E
:100B1000D10340EADC001B0118BF5FEA1C1CE0D1D6
:100B2000FD2A3FF650AF8B4240EBC25008BF20F089
:100B3000010070470CF0004C4CEA50207F32C2BFDD
:100B4000D2F1FF0340EAC250704740F400004FF07A
:100B50000003013A37E792F0000F00F0004C02BFAB
:100B6000400010F4000F013AF9D040EA0C0093F075
:100B7000000F01F0004C02BF490011F4000F013BCF
:100B8000F9D041EA0C0195E70CEAD15392EA0C0F37
:100B900008D142027FF47DAF93EA0C0F7FF470AF6F
:100BA000084676E793EA0C0F04D14B023FF44CAFB2
:100BB00008466EE730F0004C18BF31F0004CCAD147
:100BC00030F000427FF45CAF31F000437FF43CAF83
:100BD0005FE700BF4FEA4002B2F1FE4F0FD34FF084
:100BE0009E03B3EB12620DD94FEA002343F000439A
:100BF00010F0004F23FA02F018BF404270474FF048
:100C00000000704712F1610F01D1420205D110F0CE
:100C1000004008BF6FF0004070474FF00000704781
:100C200042000ED2B2F1FE4F0BD34FF09E03B3EB56
:100C3000126209D44FEA002343F0004323FA02F082
:100C400070474FF00000704712F1610F01D142026E
:100C500002D14FF0FF3070474FF00000704700BFE7
:100C600053B94AB9002908BF00281CBF4FF0FF3113
:100C70004FF0FF3000F074B9ADF1080C6DE904CE0F
:100C800000F006F8DDF804E0DDE9022304B0704767
:100C90002DE9F047089E0D4604468846002B4DD1AD
:100CA0008A42944668D9B2FA82F252B101FA02F34A
:100CB000C2F1200120FA01F10CFA02FC41EA03081A
:100CC00094404FEA1C45210CB8FBF5FE1FFA8CF747
:100CD00005FB1E8341EA03430EFB07F199420BD942
:100CE0001CEB03030EF1FF3080F01E81994240F2AD
:100CF0001B81AEF1020E63445B1AA4B2B3FBF5F0A4
:100D000005FB103344EA034400FB07F7A7420AD966
:100D10001CEB040400F1FF3380F00881A74240F28D
:100D2000058164440238E41B40EA0E4000211EB1F4
:100D3000D4400023C6E90043BDE8F0878B4208D9C0
:100D4000002E00F0EE800021C6E900050846BDE84F
:100D5000F087B3FA83F100294AD1AB4202D3824231
:100D600000F2F980841A65EB030301209846002EF7
:100D7000E2D0C6E90048DFE702B9FFDEB2FA82F24C
:100D8000002A40F09180A1EB0C054FEA1C471FFAA6
:100D90008CFE0121B5FBF7F307FB1350250C45EA48
:100DA00000450EFB03F0A84208D91CEB050503F132
:100DB000FF3802D2A84200F2CB8043462D1AA4B2DB
:100DC000B5FBF7F007FB105544EA05440EFB00FEA7
:100DD000A64508D91CEB040400F1FF3502D2A64554
:100DE00000F2BB802846A4EB0E0440EA03409EE7D5
:100DF000C1F120078B4022FA07FC4CEA030C20FAD1
:100E000007F405FA01F31C43FD404FEA1C4900FAC0
:100E100001F3B5FBF9F8200C1FFA8CFE09FB1855FD
:100E200040EA054508FB0EF0A84202FA01F20BD990
:100E30001CEB050508F1FF3A80F08880A84240F2DB
:100E40008580A8F1020865442D1AA4B2B5FBF9F01B
:100E500009FB105544EA054500FB0EFEAE4508D9D6
:100E60001CEB050500F1FF346CD2AE456AD902389F
:100E7000654440EA0840A0FB0294A5EB0E05A5429C
:100E8000C846A64656D353D05EB1B3EB080265EB15
:100E90000E0505FA07F722FA01F3CD401F43C6E914
:100EA00000750021BDE8F087C2F1200320FA03F1AC
:100EB0000CFA02FC25FA03F395400D434FEA1C4758
:100EC0001FFA8CFEB3FBF7F107FB11302B0C43EA42
:100ED000004301FB0EF0984204FA02F408D91CEB1F
:100EE000030301F1FF382FD298422DD90239634410
:100EF0001B1AADB2B3FBF7F007FB103345EA03450D
:100F000000FB0EF3AB4208D91CEB050500F1FF38DE
:100F100016D2AB4214D902386544ED1A40EA0141B9
:100F200038E73146304607E78646E5E61846FAE6F2
:100F30004B45A9D2B9EB020864EB0C0E0138A3E7CC
:100F40004046EAE7204694E74146D1E7D0467BE7B2
:100F5000023B654432E7084609E76444023842E749
:100F6000704700BF844641EA000313F003036DD1CC
:100F7000403A41D351F8043B40F8043B51F8043B5C
:100F800040F8043B51F8043B40F8043B51F8043B63
:100F900040F8043B51F8043B40F8043B51F8043B53
:100FA00040F8043B51F8043B40F8043B51F8043B43
:100FB00040F8043B51F8043B40F8043B51F8043B33
:100FC00040F8043B51F8043B40F8043B51F8043B23
:100FD00040F8043B51F8043B40F8043B51F8043B13
:100FE00040F8043B51F8043B40F8043B51F8043B03
:100FF00040F8043B403ABDD2303211D351F8043BA3
:1010000040F8043B51F8043B40F8043B51F8043BE2
:1010100040F8043B51F8043B40F8043B103AEDD251
:101020000C3205D351F8043B40F8043B043AF9D2A2
:10103000043208D0D2071CBF11F8013B00F8013B75
:1010400001D30B8803806046704700BF082A13D382
:101050008B078DD010F003038AD0C3F10403D21A9A
:10106000DB071CBF11F8013B00F8013B80D331F8CE
:10107000023B20F8023B7BE7043AD9D3013A11F84E
:10108000013B00F8013BF9D20B7803704B784370B9
:101090008B788370604670470000000000000000FD
:1010A0000000000000000000000000000000000040
:1010B0000000000000000000000000000000000030
:1010C00090F800F06DE9024520F007016FF0000C88
:1010D00010F0070491F820F040F049804FF0000430
:1010E0006FF00700D1E9002391F840F000F108000B
:1010F00082FA4CF2A4FA8CF283FA4CF3A2FA8CF343
:101100004BBBD1E9022382FA4CF200F10800A4FAA9
:101110008CF283FA4CF3A2FA8CF3E3B9D1E90423FD
:1011200082FA4CF200F10800A4FA8CF283FA4CF334
:10113000A2FA8CF37BB9D1E9062301F1200182FAEE
:101140004CF200F10800A4FA8CF283FA4CF3A2FAF4
:101150008CF3002BC6D0002A04BF04301A4612BA02
:10116000B2FA82F2FDE8024500EBD2007047D1E905
:10117000002304F00305C4F100004FEAC50514F094
:10118000040F91F840F00CFA05F562EA05021CBF65
:1011900063EA050362464FF00004A9E7000000007F
:1011A00001F0FF01102A2BDB10F0070F08D010F818
:1011B000013B013A8B422DD010F0070F42B3F6D11C
:1011C000F0B441EA012141EA014122F007047FF035
:1011D00000070023F0E80256083C85EA010586EA8C
:1011E000010685FA47F5A3FA87F586FA47F6A5FAC8
:1011F00087F68EB9EED1F0BC01F0FF0102F00702D4
:1012000032B110F8013B013A83EA010313B1F8D17E
:101210000020704701387047002D06BF354603385F
:10122000073815F0010F07D1013015F4807F02BF98
:10123000013015F4C03F0130F0BC0138704700BFE9
:1012400070B54FF0FF0C4CF4E06C1CEA11541DBF5C
:101250001CEA135594EA0C0F95EA0C0F00F0DEF827
:101260002C4481EA030621EA4C5123EA4C5350EA0C
:10127000013518BF52EA033541F4801143F480135D
:1012800038D0A0FB02CE4FF00005E1FB02E506F0EE
:101290000042E0FB03E54FF00006E1FB03569CF043
:1012A000000F18BF4EF0010EA4F1FF04B6F5007F49
:1012B00064F5407404D25FEA4E0E6D4146EB0606BB
:1012C00042EAC62141EA55514FEAC52040EA5E5044
:1012D0004FEACE2EB4F1FD0C88BFBCF5E06F1ED8EE
:1012E000BEF1004F08BF5FEA500E50F1000041EB25
:1012F000045170BD06F0004646EA010140EA0200D2
:1013000081EA0301B4EB5C04C2BFD4EB0C0541EAF3
:10131000045170BD41F480114FF0000E013C00F308
:10132000AB8014F1360FDEBF002001F0004170BD2C
:10133000C4F10004203C35DA0C341BDC04F1140445
:10134000C4F1200500FA05F320FA04F001FA05F2D1
:1013500040EA020001F0004221F0004110EBD3709E
:1013600021FA04F642EB06015EEA430E08BF20EACA
:10137000D37070BDC4F10C04C4F1200500FA04F36D
:1013800020FA05F001FA04F240EA020001F00041FF
:1013900010EBD37041F100015EEA430E08BF20EA72
:1013A000D37070BDC4F1200500FA05F24EEA020EBA
:1013B00020FA04F301FA05F243EA020321FA04F0E9
:1013C00001F0004121FA04F220EA020000EBD370A0
:1013D0005EEA430E08BF20EAD37070BD94F0000FA0
:1013E0000FD101F00046400041EB010111F4801FD4
:1013F00008BF013CF7D041EA060195F0000F18BF85
:10140000704703F00046520043EB030313F4801FC0
:1014100008BF013DF7D043EA0603704794EA0C0F7A
:101420000CEA135518BF95EA0C0F0CD050EA410690
:1014300018BF52EA4306D1D181EA030101F000410D
:101440004FF0000070BD50EA410606BF1046194635
:1014500052EA430619D094EA0C0F02D150EA013641
:1014600013D195EA0C0F05D152EA03361CBF104682
:1014700019460AD181EA030101F0004141F0FE4121
:1014800041F470014FF0000070BD41F0FE4141F4A5
:10149000780170BD70B54FF0FF0C4CF4E06C1CEAA5
:1014A00011541DBF1CEA135594EA0C0F95EA0C0F5A
:1014B00000F0A7F8A4EB050481EA030E52EA033515
:1014C0004FEA013100F088804FEA03334FF0805536
:1014D00045EA131343EA12634FEA022245EA111563
:1014E00045EA10654FEA00260EF000419D4208BF14
:1014F000964244F1FD0404F5407402D25B084FEAC1
:101500003202B61A65EB03055B084FEA32024FF46C
:1015100080104FF4002CB6EB020E75EB030E22BFC9
:10152000B61A754640EA0C005B084FEA3202B6EB89
:10153000020E75EB030E22BFB61A754640EA5C0038
:101540005B084FEA3202B6EB020E75EB030E22BFC8
:10155000B61A754640EA9C005B084FEA3202B6EBC9
:10156000020E75EB030E22BFB61A754640EADC0088
:1015700055EA060E18D04FEA051545EA16754FEAEA
:1015800006164FEAC30343EA52734FEAC2025FEA08
:101590001C1CC0D111F4801F0BD141EA00014FF097
:1015A00000004FF0004CB6E711F4801F04BF014368
:1015B0000020B4F1FD0C88BFBCF5E06F3FF6AFAE84
:1015C000B5EB030C04BFB6EB020C5FEA500C50F114
:1015D000000041EB045170BD0EF0004E4EEA113197
:1015E00014EB5C04C2BFD4EB0C0541EA045170BD9E
:1015F00041F480114FF0000E013C90E645EA060EE2
:101600008DE60CEA135594EA0C0F08BF95EA0C0F0F
:101610003FF43BAF94EA0C0F0AD150EA01347FF457
:1016200034AF95EA0C0F7FF425AF104619462CE72E
:1016300095EA0C0F06D152EA03353FF4FDAE104691
:10164000194622E750EA410618BF52EA43067FF4E2
:10165000C5AE50EA41047FF40DAF52EA43057FF472
:10166000EBAE12E74FEA410C7FEA6C5C02D150EA24
:10167000013C0AD14FEA430C7FEA6C5C02D152EA8A
:10168000033C02D14FF0000070474FF0010070475B
:10169000F0B587B00023019302930393049305935D
:1016A000164B1B680BB107B0F0BD144B01221A603A
:1016B00000260096124B9A6B42F001029A639B6BD4
:1016C00003F001030093009B4FF680730193022700
:1016D0000297032504950C24059401A9094800F0FC
:1016E00043FF4EF2B373019302970396049505945A
:1016F00001A9054800F038FFD5E700BFC41C002051
:101700000038024000100240000C024010B588B0C2
:10171000002201920292039204920592069207928D
:1017200015484FF02043036003F5827343608260E5
:10173000C2600261102141618261C2610262426243
:101740004FF480538362C262026342638263C26366
:101750004264042301930F2402940393049305919C
:101760001123069301A901F087FB08B908B010BD49
:1017700000F08AF8FAE700BFC81C002008B5FFF7A0
:1017800087FF08BDF0B58BB000240594069407943C
:10179000089409940094394B1A6B42F080021A6342
:1017A0001A6B02F080020092009A01941A6B42F0C8
:1017B00001021A631A6B02F001020192019A02946B
:1017C0001A6B42F002021A631A6B02F002020292D2
:1017D000029A03941A6B42F010021A631A6B02F019
:1017E00010020392039A04941A6B42F008021A63DF
:1017F0001B6B03F008030493049B214F22464121F5
:10180000384600F0AFFF1F4E22460121304600F05F
:10181000A9FF01224FF44051304600F0A3FF4123BD
:101820000593012506950794089405A9384600F00C
:101830009BFE102305930694079505A9384600F0F2
:1018400093FE0595069507940323089305A9304652
:1018500000F08AFE062305930694079505A93046F5
:1018600000F082FE4FF440530593069507940894C8
:1018700005A9304600F078FE0BB0F0BD00380240FC
:10188000000002400004024072B6FEE700B595B0C9
:101890003022002108A809F04FF900230393049394
:1018A0000593069307930193224A116C41F08051EE
:1018B0001164126C02F080520192019A02931E4B45
:1018C0001A6842F440421A601B6803F440430293D2
:1018D000029B012308934FF48033099302220E9256
:1018E0004FF480030F9304231093B42111911292AB
:1018F000139308A800F084FFB0B900F043FFA8B923
:101900000F23039302230493002305934FF4A05362
:1019100006934FF480530793052103A801F0D6F9ED
:1019200030B915B05DF804FBFFF7AEFFFFF7ACFF71
:10193000FFF7AAFF003802400070004000B583B0F6
:1019400000F0FAFAB42002F0BBF9FFF79FFFFFF7AF
:1019500019FF00F04FF900F0ADF900F0DFF900F0E9
:10196000C3F9FFF7D3FE2E4C2E49204608F0B8F9F4
:101970002D4801F0DBFA01222C49204602F0EBF859
:1019800001222B492B4802F0E6F801222A492B4874
:1019900002F0E1F802F0C2FC002005F057FF284BEE
:1019A0001B68984707F0DCFA07F0C6FB10BB254917
:1019B000204608F095F9002300934FF47843224A1B
:1019C0001421322006F0E4F9002005F03FFF002446
:1019D00000944FF478431D4A2146362006F0D8F98A
:1019E00008F0C2F81A4AAA21204608F0E9F807F0E0
:1019F000D5FAFCE7002400942823F0221421204685
:101A000005F05CFF1349064808F06AF900944FF4AA
:101A10007843114A1421322006F0BAF9D4E700BF06
:101A2000681D002090190108201D0020E8210020D9
:101A3000E9210020AC1D0020EA210020F01D00203B
:101A4000F0110020A8190108C4190108081A01089A
:101A5000B8120020D8190108F419010882B0002139
:101A600000910B4B5A6C42F480425A645A6C02F457
:101A700080420092009A01911A6C42F080521A64DE
:101A80001B6C03F080530193019B02B0704700BFB1
:101A900000380240FEE7FEE7FEE7FEE7FEE770479C
:101AA0007047704708B500F061FA024A13680133C5
:101AB000136008BD781F002008B5024801F07EFAC7
:101AC00008BD00BF201D002008B5024801F0E6FE59
:101AD00008BD00BF681D002008B5024801F0DEFE09
:101AE00008BD00BFAC1D002000B583B00E4B1B68C5
:101AF0001A6812F0100F12D0002201921A68019297
:101B00005B680193019B084B4FF4C872DA85074A62
:101B10009A62074B01221A7003B05DF804FB024879
:101B200001F0BCFEF8E700BFF01D0020881F002078
:101B3000182100200120704708B508F013FD162376
:101B400003604FF0FF3008BD08B54FF0FF31FFF7DD
:101B5000F3FFFEE770B50C461646002506E0AFF32E
:101B60000080214601F8010B01350C46B542F6DB39
:101B7000304670BD70B50C461646002504E014F8DA
:101B8000010BAFF300800135B542F8DB304670BD84
:101B90004FF0FF3070474FF400534B600020704708
:101BA000012070470020704710B503460C4A0D49CC
:101BB0000D48006840B10C4800680344521A934233
:101BC00006D8094A136010BD0748084C0460F2E7C4
:101BD00008F0C8FC0C2303604FF0FF30F3E700BFB0
:101BE0000000032000040000181D002038220020FF
:101BF0007047000000B587B000230293039304935D
:101C000005930093019315484FF08042026009222A
:101C10004260836042F22732C2600361836101F057
:101C2000EFFA90B94FF48053029302A90B4801F0E8
:101C30001FFB68B90023009301936946074801F030
:101C400097FB40B907B05DF804FBFFF71DFEE9E71D
:101C5000FFF71AFEEEE7FFF717FEF3E7201D00205F
:101C60000368B3F1804F00D0704700B583B0002106
:101C7000019103F50E331A6C42F001021A641B6CD9
:101C800003F001030193019B0A461C2000F0A6F912
:101C90001C2000F0DBF903B05DF804FB0368B3F12E
:101CA000804F00D07047024A138801331380F9E750
:101CB0001C1D002008B50A480A4B03604FF4E133AD
:101CC000436000238360C36003610C22426183612F
:101CD000C36101F0BFFC00B908BDFFF7D5FDFBE70C
:101CE000681D00200010014008B50A480A4B036037
:101CF0004FF4E133436000238360C36003610C222F
:101D000042618361C36101F0A5FC00B908BDFFF722
:101D1000BBFDFBE7AC1D00200044004008B50A48AD
:101D20000A4B03604FF46143436000238360C36048
:101D300003610C2242618361C36101F08BFC00B935
:101D400008BDFFF7A1FDFBE7F01D002000480040A3
:101D500010B58CB000230793089309930A930B9353
:101D60000368474A934207D0464A934230D0464AD6
:101D7000934258D00CB010BD00240194434B5A6CD0
:101D800042F010025A645A6C02F010020192019A59
:101D900002941A6B42F001021A631B6B03F00103F9
:101DA0000293029B4FF4C06307930223089303231B
:101DB0000A9307230B9307A9354800F0D5FB224669
:101DC0002146252000F00AF9252000F03FF9D1E74F
:101DD000002403942D4B1A6C42F400321A641A6CDE
:101DE00002F400320392039A04941A6B42F0010247
:101DF0001A631B6B03F001030493049B0C230793EA
:101E00000223089303230A9307230B9307A920486F
:101E100000F0AAFB22462146262000F0DFF826200B
:101E200000F014F9A6E700240594184B1A6C42F44C
:101E300080221A641A6C02F480220592059A069494
:101E40001A6B42F002021A631B6B03F00203069343
:101E5000069B4FF4406307930223089303230A93DE
:101E600007230B9307A90B4800F07EFB224621466F
:101E7000272000F0B3F8272000F0E8F87AE700BF49
:101E8000001001400044004000480040003802407B
:101E90000000024000040240DFF834D00D480E4933
:101EA0000E4A002302E0D458C4500433C4188C42B4
:101EB000F9D30B4A0B4C002301E013600432A24219
:101EC000FBD3FFF795FE08F053FBFFF737FD704794
:101ED0000000032000000020A81C0020882D01081D
:101EE000A81C002038220020FEE7000010B50446A0
:101EF0000E4B18784FF47A73B3FBF0F30C4A10686A
:101F0000B0FBF3F000F0B0F868B90F2C01D9012054
:101F10000AE0002221464FF0FF3000F05FF8054B49
:101F20001C60002000E0012010BD00BF0400002064
:101F3000000000200800002008B50B4B1A6842F48E
:101F400000721A601A6842F480621A601A6842F4D9
:101F500080721A60032000F02FF80020FFF7C6FF00
:101F6000FFF77CFD002008BD003C0240034A1168D9
:101F7000034B1B780B441360704700BF341E0020D6
:101F800004000020014B1868704700BF341E002079
:101F900038B50446FFF7F6FF0546B4F1FF3F02D01F
:101FA000044B1B781C44FFF7EDFF401BA042FAD303
:101FB00038BD00BF04000020074AD36823F4E06363
:101FC0001B041B0C000200F4E060034343F0BF63FA
:101FD00043F40033D360704700ED00E000B5194BC7
:101FE000DB68C3F30223C3F1070CBCF1040F28BF65
:101FF0004FF0040C03F1040EBEF1060F18D9033B99
:102000004FF0FF3E0EFA0CFC21EA0C0199400EFA4B
:1020100003F322EA0303194300280BDB0901C9B2C9
:1020200000F1604000F5614080F800135DF804FBAA
:102030000023E5E700F00F000901C9B2024B195473
:10204000F4E700BF00ED00E014ED00E0002807DB3E
:1020500000F01F02400901239340024A42F8203059
:10206000704700BF00E100E00138B0F1807F0BD283
:102070004FF0E0235861054AF02182F82310002038
:10208000986107221A6170470120704700ED00E057
:10209000042806D04FF0E022136923F004031361F3
:1020A00070474FF0E022136943F004031361704757
:1020B00070B50446866DFFF765FF94F83530DBB2E6
:1020C000022B06D080236365002384F8343001207E
:1020D00070BD05462268136823F01603136022685A
:1020E000536923F080035361236CE3B122681368C2
:1020F00023F0080313602268136823F001031360C0
:1021000023681B6813F0010F11D0FFF73BFF431B3F
:10211000052BF5D920236365032084F835000023BF
:1021200084F83430D4E7A36C002BDFD1E3E7E26D11
:102130003F239340B360012384F83530002084F8B6
:102140003400C5E790F83530DBB2022B03D0802392
:10215000436501207047052380F835300268136815
:1021600023F00103136000207047000010B40949F8
:102170000C6924F440740C610C6944F440740C61E3
:102180000C6944F001040C610260BFF36F8F43607F
:1021900010BC7047003C0240074B1A6922F44072A1
:1021A0001A611A6942F400721A611A6942F0010256
:1021B0001A610160704700BF003C0240074B1A697A
:1021C00022F440721A611A6942F480721A611A6923
:1021D00042F001021A610180704700BF003C0240DA
:1021E000064B1A6922F440721A611A691A611A6957
:1021F00042F001021A610170704700BF003C0240CA
:10220000274BDB6813F0100F07D0264AD36943F041
:102210001003D361224B1022DA60214BDB6813F0EC
:10222000200F07D01F4AD36943F00803D3611C4B2A
:102230002022DA601A4BDB6813F0400F07D0194AEE
:10224000D36943F00403D361154B4022DA60144B89
:10225000DB6813F0800F07D0124AD36943F0020302
:10226000D3610F4B8022DA600D4BDB6813F4807F63
:1022700008D00C4AD36943F00103D361084B4FF4F3
:102280008072DA60064BDB6813F0020F07D0054A54
:10229000D36943F02003D361014B0222DA60704717
:1022A000003C0240381E0020094B1B69002B01DB5B
:1022B00000207047064B074A5A6002F188325A6084
:1022C0001B69002B01DB002070470120704700BF15
:1022D000003C024023016745034A136943F0004371
:1022E00013610020704700BF003C024038B504462F
:1022F000144B0022DA61FFF745FE0546124BDB68FE
:1023000013F4803F0AD0B4F1FF3FF7D024B1FFF7B8
:1023100039FE401BA042F1D903200DE00A4BDB68D7
:1023200013F0010F02D0084B0122DA60064BDB6884
:1023300013F4F97F01D1002038BDFFF761FF0120C0
:10234000FAE700BF381E0020003C0240F8B51646F0
:102350001B4A127E012A30D004460D461F46184BF8
:1023600001221A764CF25030FFF7C0FF90B9ACB1A1
:10237000012C18D0022C1BD032463B462846FFF7D2
:10238000F5FE4CF25030FFF7B1FF0E4A136923F00F
:10239000010313610A4B00221A76F8BDF1B22846F8
:1023A000FFF71EFFEDE7B1B22846FFF707FFE8E7AA
:1023B00031462846FFF7F0FEE3E70220EDE700BFD5
:1023C000381E0020003C0240114A136923F4407378
:1023D000136103290ED0012913D00D4A136943F468
:1023E000004313610A4A136943EA002040F4803035
:1023F00010617047136943F4004343F00403136111
:10240000F0E7034A136943F004031361EAE700BFEE
:10241000003C024049B1012924D0022902D04FF4E6
:10242000407C04E04FF4007C01E04FF0000C0B28EE
:1024300000D904300D4B196921F4407119611A69F2
:1024400042EA0C021A611A6922F0F8021A611A694A
:1024500042EAC00040F0020018611A6942F480327A
:102460001A6170474FF4807CE1E700BF003C0240F6
:10247000164B1B6813F4007F10D0144B1A6822F41B
:1024800000721A601A6842F400621A601A6822F434
:1024900000621A601A6842F400721A600B4B1B68E3
:1024A00013F4806F10D0094B1A6822F480621A600E
:1024B0001A6842F480521A601A6822F480521A6034
:1024C0001A6842F480621A60704700BF003C024004
:1024D000F8B5234B1B7E012B40D004460E46204B03
:1024E00001221A764CF25030FFF700FF074680BBFE
:1024F0004FF0FF3333602368012B16D0A568E368E3
:10250000A2681344AB4222D9217C2846FFF782FF00
:102510004CF25030FFF7EAFE124A136923F0FA0337
:102520001361074690B90135E9E76168207CFFF740
:102530004BFF4CF25030FFF7D9FE0746094A1369AA
:1025400023F4004323F00403136100E03560FFF738
:102550008FFF034B00221A763846F8BD0227FBE7AF
:10256000381E0020003C024000230F2B00F2F180B7
:1025700070B582B061E085685E000324B44025EA4E
:102580000405CC68B4402C438460456825EA020504
:102590004C68C4F300129A402A4342605BE0DC08B6
:1025A000083450F8246003F0070295000F22AA4077
:1025B00026EA020E0A69AA4042EA0E0240F82420E6
:1025C0005DE0092200E0002202FA0EF22A43023402
:1025D000604D45F82420604A94686FEA0C0224EAB2
:1025E0000C054E6816F4801F01D04CEA04055A4CC5
:1025F000A560E46802EA04054E6816F4001F01D0E5
:102600004CEA0405544CE560646802EA04054E682F
:1026100016F4003F01D04CEA04054F4C6560246875
:1026200022404D6815F4803F01D04CEA04024A4C28
:10263000226001330F2B00F28A8001229A400C683D
:1026400004EA020C32EA0404F3D14C6804F00304F7
:10265000013C012C8FD94A6802F00302032A09D0F9
:10266000C4685D000322AA4024EA02048A68AA40E2
:102670002243C2604A6802F00302022A8FD0046833
:102680004FEA430E032202FA0EF224EA02044A68D9
:1026900002F0030202FA0EF2224302604A6812F4C8
:1026A000403FC6D0002201922C4A546C44F480442E
:1026B0005464526C02F480420192019A9C08A51C59
:1026C000244A52F8255003F003024FEA820E0F22EB
:1026D00002FA0EF225EA0205214A90423FF473AF56
:1026E00002F58062904222D002F58062904220D0B2
:1026F00002F5806290421ED002F5806290421CD0AA
:1027000002F5806290421AD002F58062904218D0A1
:1027100002F58062904216D002F58062904214D099
:1027200002F5806290423FF44CAF0A224CE701224E
:102730004AE7022248E7032246E7042244E705224B
:1027400042E7062240E707223EE708223CE702B0C4
:1027500070BD704700380140003C01400038024025
:10276000000002400AB1816170470904816170472D
:10277000436901EA030221EA030141EA024181615E
:102780007047000010B582B000230193194B1A6CFA
:1027900042F080521A641B6C03F080530193019B3A
:1027A000154B01221A64FFF7EDFB0446134B5B68DF
:1027B00013F4803F08D1FFF7E5FB001BB0F57A7FEB
:1027C000F4D9032002B010BD0B4B01225A64FFF76D
:1027D000D9FB0446094B5B6813F4003F07D1FFF7B0
:1027E000D1FB001BB0F57A7FF4D90320EAE7002083
:1027F000E8E700BF0038024000000E4200700040D1
:10280000002800F0E08170B582B00446036813F040
:10281000010F3BD09F4B9B6803F00C03042B2CD083
:102820009C4B9B6803F00C03082B21D06368B3F525
:10283000803F4FD0B3F5A02F52D0964B1A6822F4A8
:1028400080321A601A6822F480221A606368002BB2
:1028500050D0FFF797FB05468E4B1B6813F4003FE3
:1028600014D1FFF78FFB401B6428F5D90320B1E199
:10287000884B5B6813F4800FD8D0864B1B6813F429
:10288000003F03D06368002B00F09F81236813F0A2
:10289000020F54D07F4B9B6813F00C0F3ED07D4B42
:1028A0009B6803F00C03082B33D0E368002B68D03F
:1028B000794B01221A60FFF765FB0546754B1B68D3
:1028C00013F0020F54D1FFF75DFB401B0228F5D92E
:1028D00003207FE16F4A136843F480331360B5E748
:1028E0006C4B1A6842F480221A601A6842F48032F3
:1028F0001A60ABE7FFF746FB0546664B1B6813F40F
:10290000003FC3D0FFF73EFB401B6428F5D90320EE
:1029100060E1604B5B6813F4800FC6D15D4B1B68B0
:1029200013F0020F03D0E368012B40F05081594AA5
:10293000136823F0F803216943EAC1031360236895
:1029400013F0080F42D063696BB3534B0122C3F8F5
:10295000802EFFF717FB05464E4B5B6F13F0020FFF
:1029600034D1FFF70FFB401B0228F5D9032031E1DA
:10297000484A136823F0F803216943EAC10313604E
:10298000DDE7454B00221A60FFF7FCFA0546414B94
:102990001B6813F0020FD2D0FFF7F4FA401B022895
:1029A000F5D9032016E13C4B0022C3F8802EFFF737
:1029B000E9FA0546374B5B6F13F0020F06D0FFF7BD
:1029C000E1FA401B0228F5D9032003E1236813F044
:1029D000040F77D02F4B1B6C13F0805F33D1002393
:1029E00001932C4B1A6C42F080521A641B6C03F05A
:1029F00080530193019B0125284B1B6813F4807FB2
:102A000023D0A368012B34D0052B38D0214B1A6F6B
:102A100022F001021A671A6F22F004021A67A368F3
:102A2000002B3DD0FFF7AEFA06461A4B1B6F13F092
:102A3000020F46D1FFF7A6FA801B41F28833984275
:102A4000F3D90320C6E00025D6E7144A136843F4FF
:102A500080731360FFF796FA0646104B1B6813F459
:102A6000807FCED1FFF78EFA801B0228F5D9032094
:102A7000B0E0084A136F43F001031367CFE7054B3B
:102A80001A6F42F004021A671A6F42F001021A67C5
:102A9000C5E700BF00380240000047420070004018
:102AA000FFF770FA0646524B1B6F13F0020F08D067
:102AB000FFF768FA801B41F288339842F3D903206C
:102AC00088E0EDB9A369002B00F08380484A926842
:102AD00002F00C02082A51D0022B17D0454B0022DD
:102AE0001A66FFF74FFA0446414B1B6813F0007F4C
:102AF00042D0FFF747FA001B0228F5D9032069E00E
:102B00003B4A136C23F080531364DBE7394B0022FC
:102B10001A66FFF737FA0546354B1B6813F0007F3E
:102B200006D0FFF72FFA401B0228F5D9032051E009
:102B3000E369226A1343626A43EA8213A26A520873
:102B4000013A43EA0243E26A43EA0263284A5360D5
:102B5000284B01221A66FFF715FA0446244B1B681E
:102B600013F0007F06D1FFF70DFA001B0228F5D9FC
:102B700003202FE000202DE000202BE0012B2BD0A4
:102B80001B4B5B6803F48001E269914226D103F09C
:102B90003F02216A8A4223D1616A47F6C0721A4015
:102BA000B2EB811F1ED103F44031A26A5208013AF0
:102BB000B1EB024F18D103F07063E26AB3EB026F1E
:102BC00014D1002006E001207047012002E001201E
:102BD00000E0002002B070BD0120FBE70120F9E712
:102BE0000120F7E70120F5E70120F3E70120F1E7F5
:102BF000003802400000474208B5314B9B6803F0A3
:102C00000C03042B57D0082B57D12D4B5A6802F0D8
:102C10003F025B6813F4800F2AD0294B5968C1F337
:102C2000881C4FEA4C11B1EB0C006EEB0E0E4FEA14
:102C30008E1343EA90638101091A63EB0E03DB00F4
:102C400043EA5173C90011EB0C0C43F10003590224
:102C500000234FEA4C2041EADC51FEF701F8184B03
:102C60005B68C3F3014301335B00B0FBF3F025E085
:102C7000134B5968C1F3881C4FEA4C11B1EB0C009F
:102C80006EEB0E0E4FEA8E1343EA90638101091A30
:102C900063EB0E03DB0043EA5173C90011EB0C0C2C
:102CA00043F10003990200234FEA8C2041EA9C5132
:102CB000FDF7D6FFD3E7034800E0034808BD00BF97
:102CC0000038024000127A000024F400002800F0CE
:102CD0009B8070B50D4604464F4B1B6803F00F03F5
:102CE0008B4208D2CBB24C4A1370136803F00F0327
:102CF0008B4240F08B80236813F0020F17D013F043
:102D0000040F04D0454A936843F4E053936023686A
:102D100013F0080F04D0414A936843F46043936072
:102D20003E4A936823F0F003A1680B439360236845
:102D300013F0010F32D06368012B21D09A1E012AB3
:102D400025D9364A126812F0020F61D033498A68D9
:102D500022F0030213438B60FFF714F906462F4B52
:102D60009B6803F00C036268B3EB820F16D0FFF789
:102D700009F9801B41F288339842F0D9032042E0E0
:102D8000264A126812F4003FE0D101203BE0234ABA
:102D9000126812F0007FD9D1012034E01E4B1B686D
:102DA00003F00F03AB4207D9EAB21B4B1A701B6842
:102DB00003F00F03AB422DD1236813F0040F06D0AC
:102DC000164A936823F4E053E1680B439360236849
:102DD00013F0080F07D0114A936823F46043216968
:102DE00043EAC1039360FFF707FF0C4B9B68C3F3F3
:102DF00003130B4AD35CD8400A4B18600A4B18687F
:102E0000FFF774F8002070BD012070470120FAE739
:102E10000120F8E70120F6E7003C024000380240BC
:102E20001C1A01080000002008000020014B18684F
:102E3000704700BF0000002008B5FFF7F7FF044B04
:102E40009B68C3F38223034AD35CD84008BD00BF0C
:102E5000003802402C1A010808B5FFF7E7FF044BC1
:102E60009B68C3F34233034AD35CD84008BD00BF1C
:102E7000003802402C1A010840B370B50E461546C2
:102E8000044690F84930E3B1214651F8080B00F0B0
:102E90007FFEA2683146206800F0BEFE236BA26868
:102EA0002946606800F0EAFE2268A16852F82130E5
:102EB00043F0010342F82130012384F84930002017
:102EC00070BD80F84830FEF759FCDDE701207047FF
:102ED00010B4036A046A24F001040462846924F0D3
:102EE000F00C4CEA021223F00A030B4382610362E6
:102EF00010BC704710B4046A24F0100404628469A2
:102F0000036A24F4704C4CEA023223F0A00343EA33
:102F100001138261036210BC7047836823F0700361
:102F20000B4343F0070383607047000090F83D3087
:102F3000DBB2012B37D1022380F83D300268D36821
:102F400043F00103D3600368194A934220D0B3F1E0
:102F5000804F1DD0A2F57C42934219D002F58062C9
:102F6000934215D002F58062934211D002F5784267
:102F700093420DD002F57052934209D0A2F59432DB
:102F8000934205D01A6842F001021A60002070478F
:102F90009A6802F00702062A07D01A6842F0010276
:102FA0001A6000207047012070470020704700BF62
:102FB00000000140704770477047704710B50446E5
:102FC00003681A6912F0020F11D0DA6812F0020FCA
:102FD0000DD06FF002021A610123037703689B6929
:102FE00013F0030F70D0FFF7E6FF00232377236869
:102FF0001A6912F0040F12D0DA6812F0040F0ED022
:103000006FF004021A610223237723689B6913F48B
:10301000407F5FD02046FFF7CEFF00232377236851
:103020001A6912F0080F12D0DA6812F0080F0ED0E9
:103030006FF008021A61042323772368DB6913F019
:10304000030F4ED02046FFF7B6FF002323772368F7
:103050001A6912F0100F12D0DA6812F0100F0ED0A9
:103060006FF010021A61082323772368DB6913F4D9
:10307000407F3DD02046FFF79EFF00232377236843
:103080001A6912F0010F03D0DA6812F0010F36D17D
:1030900023681A6912F0800F03D0DA6812F0800FEB
:1030A00034D123681A6912F0400F03D0DA6812F0A5
:1030B000400F32D123681A6912F0200F03D0DA686A
:1030C00012F0200F30D110BDFFF774FF2046FFF73C
:1030D00073FF8AE72046FFF76DFF2046FFF76CFF7E
:1030E0009BE72046FFF766FF2046FFF765FFACE74A
:1030F0002046FFF75FFF2046FFF75EFFBDE76FF05A
:1031000001021A612046FEF7C9FDC1E76FF0800297
:103110001A61204600F073F9C3E76FF040021A61AC
:103120002046FFF74AFFC5E76FF020021A612046EC
:1031300000F064F9C7E700000368304A904212D0FB
:10314000B0F1804F0FD0A2F57C4290420BD002F537
:103150008062904207D002F58062904203D002F56F
:103160007842904203D123F070034A681343234A04
:1031700090422AD0B0F1804F27D0A2F57C429042F5
:1031800023D002F5806290421FD002F58062904207
:103190001BD002F57842904217D002F5705290424F
:1031A00013D002F5806290420FD002F58062904207
:1031B0000BD0A2F59832904207D002F5806290427F
:1031C00003D002F58062904203D123F44073CA68B1
:1031D000134323F080034A69134303608B68C3627F
:1031E0000B688362054B984203D003F580639842D5
:1031F00001D10B6903630123436170470000014063
:1032000040B310B5044690F83D30F3B1022384F882
:103210003D30214651F8040BFFF78EFF012384F85F
:10322000463084F83E3084F83F3084F8403084F8EB
:10323000413084F8423084F8433084F8443084F8D4
:10324000453084F83D30002010BD80F83C30FEF75A
:1032500007FDDBE70120704710B4846824F47F4C3D
:1032600042EA03220A4342EA0C02826010BC704721
:1032700090F83C30012B78D010B50446012380F83B
:103280003C30022380F83D300268936823F47F438A
:1032900023F0770393600B68602B4CD029D8402B28
:1032A00054D00CD9502B22D1CA6849680068FFF766
:1032B0000FFE50212068FFF730FE002005E0202B94
:1032C0000DD009D9302B0AD00120012384F83D30DC
:1032D000002384F83C3010BD0BB1102B05D11946EA
:1032E0002068FFF71AFE0020EFE70120EDE701203C
:1032F000EBE7B3F5805F34D0B3F5005F0CD1CB685A
:103300004A6889680068FFF7A7FF2268936843F45A
:10331000804393600020D8E7702B24D1CB684A68A3
:1033200089680068FFF798FF2268936843F0770385
:1033300093600020C9E7CA6849680068FFF7DAFDB2
:1033400060212068FFF7E9FD0020BEE7CA684968F0
:103350000068FFF7BDFD40212068FFF7DEFD00207B
:10336000B3E70020B1E70120AFE70220704700007B
:1033700090F83C30012B3CD010B4012380F83C3055
:10338000022380F83D3003685A689C6822F0700C74
:103390000A6842EA0C025A600368174A93421AD03C
:1033A000B3F1804F17D0A2F57C42934213D002F5BF
:1033B000806293420FD002F5806293420BD002F5F7
:1033C0007842934207D002F57052934203D0A2F59F
:1033D0009432934204D124F080044A6814439C60E0
:1033E000012380F83D30002380F83C30184610BCA3
:1033F00070470220704700BF0000014070477047CF
:10340000026802F10C0353E8003F23F490730C327E
:1034100042E800310029F3D1026802F1140353E8B5
:10342000003F23F00103143242E800310029F3D1B8
:10343000036B012B05D0202380F83E30002303636B
:103440007047026802F10C0353E8003F23F01003B9
:103450000C3242E800310029F3D1ECE790F83D301E
:10346000DBB2212B01D0022070478368B3F5805F67
:1034700017D0036A5A1C02621A7803685A60C38C18
:103480009BB2013B9BB2C3844BB90268D36823F063
:103490008003D3600268D36843F04003D360002008
:1034A00070470369002BE4D1036A1B880268C3F3E9
:1034B00008035360036A02330362E0E738B5044649
:1034C0000268136923F44053C1680B431361836896
:1034D0000269134342691343C2691A430168CB6806
:1034E00023F4164323F00C031343CB6002685369A3
:1034F00023F4407381690B4353610368314A93425B
:1035000006D002F58062934202D0FFF795FC01E0FD
:10351000FFF7A2FCE369B3F5004F29D0002103189F
:1035200049411B1841F10001C90041EA5371DB0018
:10353000181863684FEA83024FEA937341F1000160
:10354000FDF78EFB204DA5FB00325109642303FBE0
:1035500011031B013233A5FB03235B0903F0F002C7
:1035600002EB011203F00F03216813448B6038BD96
:103570000023021843EB0301121841F10001C900B6
:1035800041EA5271D200101841F1000162689218AC
:103590005B41FDF765FB0C4DA5FB0032510964232F
:1035A00003FB1103DB003233A5FB03235B095A0045
:1035B00002F4F87202EB011203F0070321681344CE
:1035C0008B60D4E7001001401F85EB512DE9F843D3
:1035D00005460F4616469946DDF820802C6824687B
:1035E00037EA04030CBF4FF0010C4FF0000CB44558
:1035F0002DD1B8F1FF3FF1D0B8F1000F05D0FEF7A3
:10360000C1FCA0EB09004045E8D92A6802F10C038F
:1036100053E8003F23F4D0730C3242E80031002914
:10362000F3D12A6802F1140353E8003F23F00103A9
:10363000143242E800310029F3D1202385F83D30CF
:1036400085F83E30002385F83C30032000E0002060
:10365000BDE8F88358B310B5044690F83D300BB37D
:10366000242384F83D302268D36823F40053D360C8
:103670002046FFF723FF2268136923F49043136168
:103680002268536923F02A0353612268D36843F404
:103690000053D36000202064202384F83D3084F858
:1036A0003E3010BD80F83C30FEF752FBD8E70120D9
:1036B00070472DE9F04182B01E4690F83D30DBB2F4
:1036C000202B54D104460D469046002953D0002AA1
:1036D00053D090F83C30012B51D0012380F83C307E
:1036E00000230364212380F83D30FEF74BFC07469E
:1036F000A4F82480A4F82680A368B3F5805F05D0E1
:103700004FF00008002384F83C3012E0236913B125
:103710004FF00008F6E7A8460025F3E738F8023B2B
:103720002268C3F308035360E28C92B2013A92B26A
:10373000E284E38C9BB273B100963B460022802169
:103740002046FFF743FFE0B9002DE7D015F8012B25
:1037500023685A60E8E700963B4600224021204655
:10376000FFF734FF78B9202384F83D3000E00220D1
:1037700002B0BDE8F0810120FAE70120F8E702205D
:10378000F6E70320F4E70320F2E7704708B5016885
:10379000CA6822F04002CA60202280F83D20FFF76C
:1037A000F4FF002008BD704708B5806B0023C38577
:1037B000C384FFF7F8FF08BD704790F83E30DBB2D6
:1037C000222B67D18368B3F5805F4DD0826AB3F551
:1037D000805F04D0002B54D10369002B51D10368C2
:1037E0005B681370836A01338362C38D9BB2013BB4
:1037F0009BB2C385002B4FD100B583B00268D3685C
:1038000023F02003D3600268D36823F48073D3606D
:103810000268536923F001035361202380F83E308E
:10382000036B012B33D100230363026802F10C0305
:1038300053E8003F23F010030C3242E80031002926
:10384000F3D103681A6812F0100F06D0002201921B
:103850001A6801925B680193019B818DFFF7ACFFB1
:10386000002003B05DF804FB0269002AAED1826A31
:1038700003685B68C3F308031380836A02338362BF
:10388000B3E703685B6803F07F031370AAE706F0F1
:1038900049FAE5E7022070470020704730B583B051
:1038A000044602681368D068516913F00F0505D10A
:1038B00013F0200F02D010F0200F19D12DB111F00C
:1038C000010119D110F4907F16D1216B01297DD00F
:1038D00013F0800F03D010F0800F40F0158113F02B
:1038E000400F03D010F0400F40F0128103B030BD04
:1038F0002046FFF762FFF9E713F0010F06D010F43E
:10390000807F03D0226C42F00102226413F0040F86
:1039100004D019B1226C42F00202226413F0020FAB
:1039200004D019B1226C42F00402226413F0080F93
:1039300007D010F0200F00D119B1226C42F008021C
:103940002264226C002AD1D013F0200F02D010F094
:10395000200F29D123685B6903F04003226C12F029
:10396000080F00D163B32046FFF74AFD23685B6967
:1039700013F0400F20D0226802F1140353E8003FF7
:1039800023F04003143242E800310029F3D1A36B45
:1039900073B1614A1A65A06BFEF7D4FB0028A5D06D
:1039A000A06B036D9847A1E72046FFF706FFD1E71C
:1039B0002046FFF7F8FE99E72046FFF7F4FE95E76B
:1039C0002046FFF7F0FE002323648FE713F0100F6B
:1039D0003FF47EAF10F0100F3FF47AAF0023019355
:1039E0001368019353680193019B536913F0400FCF
:1039F00050D0A26B13685B689BB2002B3FF476AF8C
:103A0000A18D99427FF672AFE385D369B3F5807FCC
:103A100037D0226802F10C0353E8003F23F480738F
:103A20000C3242E800310029F3D1226802F114037C
:103A300053E8003F23F00103143242E8003100292B
:103A4000F3D1226802F1140353E8003F23F040034E
:103A5000143242E800310029F3D1202384F83E30AB
:103A600000232363226802F10C0353E8003F23F094
:103A700010030C3242E800310029F3D1A06BFEF7AD
:103A800017FBA18DE38D9BB2C91A89B22046FFF7BF
:103A900093FE2BE7A18DE38D9BB2C91A89B2E38D0A
:103AA0009BB2002B3FF422AF00293FF41FAF2268E6
:103AB00002F10C0353E8003F23F490730C3242E808
:103AC00000300028F3D1226802F1140353E8003FCC
:103AD00023F00103143242E800300028F3D1202300
:103AE00084F83E3000232363226802F10C0353E87C
:103AF000003F23F010030C3242E800300028F3D1DD
:103B00002046FFF759FEF1E62046FFF7A7FCEDE659
:103B10002046FFF73BFEE9E6A9370008816282856F
:103B2000C28500230364222280F83E2080F83C30C6
:103B3000036923B10268D36843F48073D3600268D9
:103B4000536943F0010353610268D36843F02003D3
:103B5000D3600020704708B590F83E30DBB2202BD0
:103B60000DD171B17AB190F83C30012B0DD0012309
:103B700080F83C3000230363FFF7D0FF00E0022011
:103B800008BD0120FCE70120FAE70220F8E7000069
:103B900030B40A6850F8223023F0010340F8223094
:103BA0008B68082B2AD000244A6822431343CA6832
:103BB00013430A6913434A691343CA6913430A6AE0
:103BC00013434A6A13438A6A1343CA6A13430A6B4C
:103BD00013438A6913434A6B1343CA6B13430C683C
:103BE00050F824500B4A2A401A4340F824204B6BCB
:103BF000B3F5801F04D0002030BC70474024D3E7C9
:103C00000A68002AF7D0026822F480121343036086
:103C1000F1E700BF8000E0FF10B5013250F822301C
:103C200003F0404C0B684C6843EA04138C6843EA89
:103C30000423CC6843EA04430C6904F1FF3E43EAE1
:103C40000E534C69A4F1020E43EA0E638C692343C0
:103C50004CEA030340F82230036813F4801F0BD0B2
:103C6000436823F470030A69013A43EA0252436845
:103C700023F4700313434360002010BDB3F5804F5D
:103C800005D06FF0704340F822300020704730B408
:103C900050F82230094C1C400B684D6843EA05136C
:103CA0008D6843EA05238D692B43C96843EA0143C4
:103CB000234340F82230002030BC70470000F0CF92
:103CC00010B504460420FEF7E3F9014B1C6010BD5B
:103CD000581E002010B44FF0E02254690B4B1B68B3
:103CE00000FB03FC9369002104E0E01A0244114444
:103CF000614509D21A464FF0E0239B699A42FAD0F7
:103D0000F3D9D21A1144F3E710BC7047581E0020B3
:103D100038B50546002404E04FF47A70FFF7DAFF67
:103D20000134A542F8D838BD014BA3F8FE00704716
:103D300000FF0760014BA3F80001704700FF076018
:103D4000024BB3F8000180B2704700BF00FF07606C
:103D5000024BA3F8FE00A3F80011704700FF0760B4
:103D600008B5FFF7E1FF0520FFF7B4FFFFF7E8FF15
:103D700008BD0000024B1A89024BA3F8FE207047D1
:103D8000601E002000FF076070B504460D46614BC1
:103D90009B8849F2413293421FD045F21032934240
:103DA0001BD046F6040293422BD041F66312934295
:103DB00046D045F21052934200F08680554B9B79D5
:103DC000012B00F09F80534E21467089FFF7C0FF02
:103DD0002946B089FFF7BCFF12E04E4E7089FFF70D
:103DE000A3FF200AFFF7A6FFE0B2FFF7A3FFB08909
:103DF000FFF79AFF280AFFF79DFFE8B2FFF79AFF47
:103E000070BD444B9B79012B13D0424E7089FFF754
:103E10008BFF200AFFF78EFFE0B2FFF78BFFB08920
:103E2000FFF782FF280AFFF785FFE8B2FFF782FF5E
:103E3000E6E7384B1B881C1AA4B2013CA4B2E4E7A5
:103E4000344B9B7953BB334A13881C1AA4B2013CF0
:103E5000A4B25089FFF768FF0020FFF76BFF002036
:103E6000FFF768FF200AFFF765FFE0B2FFF762FF88
:103E7000284CA089FFF758FF280AFFF75BFFE8B23C
:103E8000FFF758FF60880138C0F30F20FFF752FF9B
:103E900060880138C0B2FFF74DFFB1E71D4E708951
:103EA000FFF742FF200AFFF745FFE0B2FFF742FFAE
:103EB00030880138C0F30F20FFF73CFF308801380D
:103EC000C0B2FFF737FFD3E7124E7089FFF72CFF20
:103ED000200AFFF72FFF7089013080B2FFF724FF1F
:103EE000E0B2FFF727FFB089FFF71EFF280AFFF7B0
:103EF00021FFB089013080B2FFF716FFE8B2FFF76B
:103F000019FF7DE7034B1B881C1AA4B2013CA4B225
:103F100059E700BF601E002010B5964B9B79012B1E
:103F200029D02BB9934B9A8841F663139A422CD02F
:103F3000904B9B8849F2413293423ED046F60402B0
:103F400093423AD045F21032934236D045F21052A5
:103F5000934232D041F6631293422ED0072800F2EA
:103F6000F480DFE810F00001F400F600F200F80041
:103F7000FA00FC00FE007F4A928846F604018A425D
:103F8000CFD041F663118A42CBD00728D0D8DFE8E2
:103F900000F0120406080A0C0E100720C8E70420DF
:103FA000C6E70520C4E70120C2E70020C0E70320E0
:103FB000BEE70220BCE70620BAE70138062805D88C
:103FC000DFE800F01206080A0C0E100000240CE0D6
:103FD00040240AE0C02408E0202406E0602404E035
:103FE000A02402E0E02400E0802445F21052934235
:103FF00054D0362045F21032934209D045F2105287
:10400000934205D041F66312934201D044F0080474
:1040100046F60402934244D02146FFF799FE554BE1
:104020009B8841F6631293420AD014F0200F3BD0D4
:10403000504A11885288914202D24E4802804180F3
:1040400045F21052934238D04A4C6089FFF76CFE1B
:104050000020FFF76FFE0020FFF76CFE208801387C
:10406000C0F30F20FFF766FE20880138C0B2FFF7CB
:1040700061FEA089FFF758FE0020FFF75BFE0020DD
:10408000FFF758FE60880138C0F30F20FFF752FE9B
:1040900060880138C0B2FFF74DFE10BD4FF4585094
:1040A000A8E744F00204B7E7324A118852889142E7
:1040B000C6D9304802804180C2E72E4C6089FFF7A4
:1040C00033FE0020FFF736FE6089013080B2FFF733
:1040D0002BFE0020FFF72EFE6089023080B2FFF732
:1040E00023FE20880138C0F30F20FFF723FE6089EC
:1040F000033080B2FFF718FE20880138C0B2FFF706
:1041000019FEA089FFF710FE0020FFF713FEA0891B
:10411000013080B2FFF708FE0020FFF70BFEA089F8
:10412000023080B2FFF700FE60880138C0F30F2034
:10413000FFF700FEA089033080B2FFF7F5FD60882D
:104140000138C0B2FFF7F6FDA7E700210CE010210F
:104150000AE0202108E0382106E0282104E01821A7
:1041600002E0082100E0302141F480510320FFF7F4
:10417000EFFD92E7601E002010B51446FFF704FE25
:10418000FFF7F8FD014BA3F8004110BD00FF0760E9
:1041900008B500285AD1604B00229A71F0221A808B
:1041A0004FF4A0725A809B8849F24132934217D053
:1041B00046F60402934213D045F2103293420FD0D8
:1041C00045F21052934222D041F6631293422FD00F
:1041D000514B22221A8120225A8121229A8170E099
:1041E0004D4A2C2111812A2151812B21918146F6A2
:1041F0000402934203D045F21032934261D1464B00
:104200004FF4A0721A804FF4F0725A8059E0424B7A
:104210004FF430521A814FF428525A814FF42C52E5
:104220009A814FF4F0721A804FF448725A8048E035
:10423000394B2C221A812B225A812A229A814FF43F
:10424000F0721A804FF448725A803AE0324B0122E1
:104250009A714FF4A0721A80F0225A809B8849F21A
:104260004132934217D045F21032934213D046F6B2
:104270000402934229D045F2105293422DD041F6C8
:10428000631293423AD0244A222111812121518183
:104290002021918106E0204A2C2111812A2151817F
:1042A0002B21918146F60402934203D045F210324D
:1042B000934206D1184B4FF4F0721A804FF4A0725B
:1042C0005A800020FFF728FE08BD134A2C211181D7
:1042D0002B2151812A219181E4E70F4A4FF430517B
:1042E00011814FF4285151814FF42C5191814FF499
:1042F000487111804FF4F0715180D3E7064A2C21A8
:1043000011812A2151812B2191814FF44871118013
:104310004FF4F0715180C5E7601E002010B53220C7
:10432000FDF736FE01210020FFF712FD3220FDF7D8
:104330002FFE0020FFF714FDB94B9880A0F1FF037A
:104340009BB2B3F57F4F80F00181B0F5134F00F0C1
:10435000FD80B34B9B8849F24132934200F0628169
:1043600046F60402934200F0758245F21032934201
:1043700000F0198345F21052934201F08D8249F208
:104380002532934202F0068249F22832934202F02B
:10439000D88249F22032934202F0C78349F2313287
:1043A000934202F06F8445F20842934202F04D8539
:1043B00041F20552934202F0EB854BF205529342D3
:1043C00002F0FA864CF20552934202F0F88748F662
:1043D0008912934203F0C38044F23152934203F0B6
:1043E0007A8144F23552934240F0308230211520D8
:1043F000FFF7AEFC10219A20FFF7AAFC2021112024
:10440000FFF7A6FC43F228411020FFF7A1FC022190
:104410001220FFF79DFC41F238011320FFF798FCB2
:104420002820FDF7B5FD12210846FFF791FC282052
:10443000FDF7AEFD43F220411020FFF789FC43F267
:1044400038011320FFF784FC4620FDF7A1FD002171
:104450003020FFF77DFC40F202413120FFF778FC6D
:1044600040F207313220FFF773FC4FF441713320E3
:10447000FFF76EFC04213420FFF76AFC40F2014193
:104480003520FFF765FC40F207713620FFF760FC2E
:1044900040F205313720FFF75BFC4FF4C261382052
:1044A000FFF756FC4FF4C2613920FFF751FC4FF47F
:1044B00080710120FFF74CFC4FF440710220FFF7A0
:1044C00047FC41F230010320FFF742FC40F60801AF
:1044D0000820FFF73DFC08210A20FFF739FC4FF4C4
:1044E0001C516020FFF734FC01216120FFF730FCF4
:1044F0004FF49F719020FFF72BFC4FF480719220B6
:10450000FFF726FC4FF480719320FFF721FC4FF456
:104510004051A020FFF71CFC1021A320FFF718FC3E
:1045200001210720FFF714FC21210720FFF710FCD1
:1045300023210720FFF70CFC33210720FFF708FC9D
:1045400040F233110720FFF703FC7FE1D320FFF790
:10455000EBFBFFF7F5FBFFF7F3FBFFF7F1FB304C4D
:10456000A0800002A080FFF7EBFBA388184380B275
:10457000A08049F2413398423FF4EBAEBF20FFF7F1
:10458000D3FBFFF7DDFBFFF7DBFBFFF7D9FBFFF703
:10459000D7FBA0800002A080FFF7D2FBA3881843BE
:1045A00080B2A08046F6040398423FF4D2AED420F5
:1045B000FFF7BAFBFFF7C4FBFFF7C2FBFFF7C0FB37
:1045C000A0800002A080FFF7BBFBA388184380B245
:1045D000A08045F2103398423FF4BBAE4FF45A40EE
:1045E000FFF7A2FBFFF7ACFB4FF45B40FFF79CFB30
:1045F000FFF7A6FBA0800002A0804FF45C40FFF70D
:1046000093FBFFF79DFBA388184380B2A080B0F511
:10461000004F7FF49EAE45F21052A28099E600BF93
:10462000601E0020CF20FFF77FFB0020FFF782FBFA
:10463000C120FFF77FFB3020FFF77CFBED20FFF769
:1046400073FB6420FFF776FB0320FFF773FB122058
:10465000FFF770FB8120FFF76DFBE820FFF764FB9D
:104660008520FFF767FB1020FFF764FB7A20FFF738
:1046700061FBCB20FFF758FB3920FFF75BFB2C20B9
:10468000FFF758FB0020FFF755FB3420FFF752FBE4
:104690000220FFF74FFBF720FFF746FB2020FFF734
:1046A00049FBEA20FFF740FB0020FFF743FB002017
:1046B000FFF740FBC020FFF737FB1B20FFF73AFB5B
:1046C000C120FFF731FB0120FFF734FBC520FFF7C6
:1046D0002BFB3020FFF72EFB3020FFF72BFBC720F2
:1046E000FFF722FBB720FFF725FB3620FFF71CFB67
:1046F0004820FFF71FFB3A20FFF716FB5520FFF776
:1047000019FBB120FFF710FB0020FFF713FB1A2065
:10471000FFF710FBB620FFF707FB0A20FFF70AFBA5
:10472000A220FFF707FBF220FFF7FEFA0020FFF7B9
:1047300001FB2620FFF7F8FA0120FFF7FBFAE02043
:10474000FFF7F2FA0F20FFF7F5FA2A20FFF7F2FA47
:104750002820FFF7EFFA0820FFF7ECFA0E20FFF70A
:10476000E9FA0820FFF7E6FA5420FFF7E3FAA92058
:10477000FFF7E0FA4320FFF7DDFA0A20FFF7DAFA45
:104780000F20FFF7D7FA0020FFF7D4FA0020FFF739
:10479000D1FA0020FFF7CEFA0020FFF7CBFAE12094
:1047A000FFF7C2FA0020FFF7C5FA1520FFF7C2FA9B
:1047B0001720FFF7BFFA0720FFF7BCFA1120FFF719
:1047C000B9FA0620FFF7B6FA2B20FFF7B3FA562006
:1047D000FFF7B0FA3C20FFF7ADFA0520FFF7AAFA81
:1047E0001020FFF7A7FA0F20FFF7A4FA3F20FFF7EA
:1047F000A1FA3F20FFF79EFA0F20FFF79BFA2B202C
:10480000FFF792FA0020FFF795FA0020FFF792FADF
:104810000120FFF78FFA3F20FFF78CFA2A20FFF7DD
:1048200083FA0020FFF786FA0020FFF783FA0020C2
:10483000FFF780FAEF20FFF77DFA1120FFF774FAF7
:104840007820FDF7A5FB2920FFF76EFA0020FFF77F
:104850009FFC10BD1120FFF767FA1420FDF798FBAD
:10486000D020FFF761FA0720FFF764FA4220FFF734
:1048700061FA1D20FFF75EFAD120FFF755FA0020FC
:10488000FFF758FA1A20FFF755FA0920FFF752FAF6
:10489000D220FFF749FA0120FFF74CFA2220FFF758
:1048A00049FAC020FFF740FA1020FFF743FA3B20F7
:1048B000FFF740FA0020FFF73DFA0220FFF73AFA2F
:1048C0001120FFF737FAC520FFF72EFA0320FFF774
:1048D00031FAC820FFF728FA0020FFF72BFA25202D
:1048E000FFF728FA2120FFF725FA0520FFF722FA23
:1048F0000020FFF71FFA0A20FFF71CFA6520FFF7D8
:1049000019FA2520FFF716FA7720FFF713FA50203F
:10491000FFF710FA0F20FFF70DFA0020FFF70AFA51
:10492000F820FFF701FA0120FFF704FAFE20FFF755
:10493000FBF90020FFF7FEF90220FFF7FBF920202A
:10494000FFF7F2F93620FFF7EFF90820FFF7F2F949
:104950003A20FFF7E9F95520FFF7ECF92B20FFF794
:10496000E3F90020FFF7E6F90020FFF7E3F9012063
:10497000FFF7E0F93F20FFF7DDF92A20FFF7D4F930
:104980000020FFF7D7F90020FFF7D4F90120FFF747
:10499000D1F9DF20FFF7CEF97820FDF7F9FA2920C9
:1049A000FFF7C2F952E7ED20FFF7BEF90120FFF74C
:1049B000C1F9FE20FFF7BEF9EE20FFF7B5F9DE20C2
:1049C000FFF7B8F92120FFF7B5F9F120FFF7ACF9AF
:1049D0000120FFF7AFF9DF20FFF7A6F91020FFF75E
:1049E000A9F9C420FFF7A0F98F20FFF7A3F9C6208B
:1049F000FFF79AF90020FFF79DF9E220FFF79AF9F7
:104A0000E220FFF797F9E220FFF794F9BF20FFF7C4
:104A10008BF9AA20FFF78EF9B020FFF785F90D205A
:104A2000FFF788F90020FFF785F90D20FFF782F9DD
:104A30000020FFF77FF91120FFF77CF90020FFF736
:104A400079F91920FFF776F90020FFF773F9212093
:104A5000FFF770F90020FFF76DF92D20FFF76AF9D5
:104A60000020FFF767F93D20FFF764F90020FFF70A
:104A700061F95D20FFF75EF90020FFF75BF95D202B
:104A8000FFF758F90020FFF755F9B120FFF74CF96F
:104A90008020FFF74FF90020FFF74CF98B20FFF73C
:104AA00049F90020FFF746F99620FFF743F9002067
:104AB000FFF740F9B220FFF737F90020FFF73AF986
:104AC0000020FFF737F90220FFF734F90020FFF745
:104AD00031F90320FFF72EF90020FFF72BF9B3205F
:104AE000FFF722F90020FFF725F90020FFF722F950
:104AF0000020FFF71FF90020FFF71CF90020FFF747
:104B000019F90020FFF716F90020FFF713F900202C
:104B1000FFF710F90020FFF70DF90020FFF70AF961
:104B20000020FFF707F90020FFF704F90020FFF746
:104B300001F90020FFF7FEF80020FFF7FBF8002046
:104B4000FFF7F8F80020FFF7F5F80020FFF7F2F87C
:104B50000020FFF7EFF80020FFF7ECF80020FFF748
:104B6000E9F80020FFF7E6F80020FFF7E3F800205F
:104B7000FFF7E0F8B420FFF7D7F88B20FFF7DAF85B
:104B80000020FFF7D7F89620FFF7D4F80020FFF7B2
:104B9000D1F8A120FFF7CEF80020FFF7CBF8B52021
:104BA000FFF7C2F80220FFF7C5F80020FFF7C2F8B0
:104BB0000320FFF7BFF80020FFF7BCF80420FFF741
:104BC000B9F80020FFF7B6F8B620FFF7ADF80020DF
:104BD000FFF7B0F80020FFF7ADF8B720FFF7A4F813
:104BE0000020FFF7A7F80020FFF7A4F83F20FFF709
:104BF000A1F80020FFF79EF85E20FFF79BF8002049
:104C0000FFF798F86420FFF795F80020FFF792F877
:104C10008C20FFF78FF80020FFF78CF8AC20FFF70F
:104C200089F80020FFF786F8DC20FFF783F80020E2
:104C3000FFF780F87020FFF77DF80020FFF77AF883
:104C40009020FFF777F80020FFF774F8EB20FFF7CC
:104C500071F80020FFF76EF8DC20FFF76BF80020FA
:104C6000FFF768F8B820FFF75FF80020FFF762F859
:104C70000020FFF75FF80020FFF75CF80020FFF747
:104C800059F80020FFF756F80020FFF753F80020EE
:104C9000FFF750F80020FFF74DF8BA20FFF744F86F
:104CA0002420FFF747F80020FFF744F80020FFF723
:104CB00041F80020FFF73EF8C120FFF735F820202B
:104CC000FFF738F80020FFF735F85420FFF732F8E7
:104CD0000020FFF72FF8FF20FFF72CF80020FFF748
:104CE00029F8C220FFF720F80A20FFF723F8002058
:104CF000FFF720F80420FFF71DF80020FFF71AF84F
:104D0000C320FFF711F83C20FFF714F80020FFF74D
:104D100011F83A20FFF70EF80020FFF70BF83920C2
:104D2000FFF708F80020FFF705F83720FFF702F833
:104D30000020FEF7FFFF3C20FEF7FCFF0020FEF7FF
:104D4000F9FF3620FEF7F6FF0020FEF7F3FF3220D2
:104D5000FEF7F0FF0020FEF7EDFF2F20FEF7EAFF41
:104D60000020FEF7E7FF2C20FEF7E4FF0020FEF70F
:104D7000E1FF2920FEF7DEFF0020FEF7DBFF262003
:104D8000FEF7D8FF0020FEF7D5FF2420FEF7D2FF64
:104D90000020FEF7CFFF2420FEF7CCFF0020FEF717
:104DA000C9FF2320FEF7C6FF0020FEF7C3FF3C200B
:104DB000FEF7C0FF0020FEF7BDFF3620FEF7BAFF6A
:104DC0000020FEF7B7FF3220FEF7B4FF0020FEF709
:104DD000B1FF2F20FEF7AEFF0020FEF7ABFF2C2027
:104DE000FEF7A8FF0020FEF7A5FF2920FEF7A2FF8F
:104DF0000020FEF79FFF2620FEF79CFF0020FEF715
:104E000099FF2420FEF796FF0020FEF793FF242051
:104E1000FEF790FF0020FEF78DFF2320FEF78AFFAC
:104E20000020FEF787FFC420FEF77EFF6220FEF71A
:104E300081FF0020FEF77EFF0520FEF77BFF0020AC
:104E4000FEF778FF8420FEF775FF0020FEF772FF63
:104E5000F020FEF76FFF0020FEF76CFF1820FEF732
:104E600069FF0020FEF766FFA420FEF763FF002025
:104E7000FEF760FF1820FEF75DFF0020FEF75AFFE7
:104E80005020FEF757FF0020FEF754FF0C20FEF7DE
:104E900051FF0020FEF74EFF1720FEF74BFF0020CA
:104EA000FEF748FF9520FEF745FF0020FEF742FF82
:104EB000F320FEF73FFF0020FEF73CFFE620FEF761
:104EC00039FF0020FEF736FFC520FEF72DFF322008
:104ED000FEF730FF0020FEF72DFF4420FEF72AFFEB
:104EE0000020FEF727FF6520FEF724FF0020FEF7D5
:104EF00021FF7620FEF71EFF0020FEF71BFF882013
:104F0000FEF718FF0020FEF715FFC620FEF70CFF86
:104F10002020FEF70FFF0020FEF70CFF1720FEF702
:104F200009FF0020FEF706FF0120FEF703FF002027
:104F3000FEF700FFC720FEF7F7FE0020FEF7FAFE9F
:104F40000020FEF7F7FE0020FEF7F4FE0020FEF73B
:104F5000F1FEC820FEF7E8FE0020FEF7EBFE002081
:104F6000FEF7E8FE0020FEF7E5FE0020FEF7E2FE79
:104F7000C920FEF7D9FE0020FEF7DCFE0020FEF778
:104F8000D9FE0020FEF7D6FE0020FEF7D3FE00205B
:104F9000FEF7D0FE0020FEF7CDFE0020FEF7CAFE91
:104FA0000020FEF7C7FE0020FEF7C4FE0020FEF73B
:104FB000C1FE0020FEF7BEFE0020FEF7BBFE002073
:104FC000FEF7B8FE0020FEF7B5FE0020FEF7B2FEA9
:104FD0000020FEF7AFFEE020FEF7A6FE1620FEF74B
:104FE000A9FE0020FEF7A6FE1C20FEF7A3FE00206F
:104FF000FEF7A0FE2120FEF79DFE0020FEF79AFEA0
:105000003620FEF797FE0020FEF794FE4620FEF7BE
:1050100091FE0020FEF78EFE5220FEF78BFE002050
:10502000FEF788FE6420FEF785FE0020FEF782FE74
:105030007A20FEF77FFE0020FEF77CFE8B20FEF735
:1050400079FE0020FEF776FE9920FEF773FE002021
:10505000FEF770FEA820FEF76DFE0020FEF76AFE48
:10506000B920FEF767FE0020FEF764FEC420FEF7BD
:1050700061FE0020FEF75EFECA20FEF75BFE002008
:10508000FEF758FED220FEF755FE0020FEF752FE36
:10509000D920FEF74FFE0020FEF74CFEE020FEF781
:1050A00049FE0020FEF746FEF320FEF743FE0020F7
:1050B000FEF740FEE120FEF737FE1620FEF73AFE2F
:1050C0000020FEF737FE1C20FEF734FE0020FEF71E
:1050D00031FE2220FEF72EFE0020FEF72BFE3620AA
:1050E000FEF728FE0020FEF725FE4520FEF722FEF3
:1050F0000020FEF71FFE5220FEF71CFE0020FEF7E8
:1051000019FE6420FEF716FE0020FEF713FE7A203B
:10511000FEF710FE0020FEF70DFE8B20FEF70AFEC4
:105120000020FEF707FE9920FEF704FE0020FEF7A0
:1051300001FEA820FEF7FEFD0020FEF7FBFDB920D2
:10514000FEF7F8FD0020FEF7F5FDC420FEF7F2FDA6
:105150000020FEF7EFFDCA20FEF7ECFD0020FEF771
:10516000E9FDD220FEF7E6FD0020FEF7E3FDD820A2
:10517000FEF7E0FD0020FEF7DDFDE020FEF7DAFDA2
:105180000020FEF7D7FDF320FEF7D4FD0020FEF748
:10519000D1FDE220FEF7C8FD0520FEF7CBFD002083
:1051A000FEF7C8FD0B20FEF7C5FD0020FEF7C2FD8F
:1051B0001B20FEF7BFFD0020FEF7BCFD3420FEF7EC
:1051C000B9FD0020FEF7B6FD4420FEF7B3FD002038
:1051D000FEF7B0FD4F20FEF7ADFD0020FEF7AAFD63
:1051E0006120FEF7A7FD0020FEF7A4FD7920FEF761
:1051F000A1FD0020FEF79EFD8820FEF79BFD00200C
:10520000FEF798FD9720FEF795FD0020FEF792FD32
:10521000A620FEF78FFD0020FEF78CFDB720FEF7DD
:1052200089FD0020FEF786FDC220FEF783FD0020E9
:10523000FEF780FDC720FEF77DFD0020FEF77AFD1A
:10524000D120FEF777FD0020FEF774FDD620FEF793
:1052500071FD0020FEF76EFDDD20FEF76BFD0020E6
:10526000FEF768FDF320FEF765FD0020FEF762FD06
:10527000E320FEF759FD0520FEF75CFD0020FEF758
:1052800059FD0A20FEF756FD0020FEF753FD1C20B5
:10529000FEF750FD0020FEF74DFD3320FEF74AFDDE
:1052A0000020FEF747FD4420FEF744FD0020FEF7F6
:1052B00041FD5020FEF73EFD0020FEF73BFD622041
:1052C000FEF738FD0020FEF735FD7820FEF732FDB1
:1052D0000020FEF72FFD8820FEF72CFD0020FEF7B2
:1052E00029FD9720FEF726FD0020FEF723FDA620CE
:1052F000FEF720FD0020FEF71DFDB720FEF71AFD8A
:105300000020FEF717FDC220FEF714FD0020FEF777
:1053100011FDC720FEF70EFD0020FEF70BFDD1208A
:10532000FEF708FD0020FEF705FDD520FEF702FD83
:105330000020FEF7FFFCDD20FEF7FCFC0020FEF75E
:10534000F9FCF320FEF7F6FC0020FEF7F3FCE42066
:10535000FEF7EAFC0120FEF7EDFC0020FEF7EAFC78
:105360000120FEF7E7FC0020FEF7E4FC0220FEF738
:10537000E1FC0020FEF7DEFC2A20FEF7DBFC00202B
:10538000FEF7D8FC3C20FEF7D5FC0020FEF7D2FC4F
:105390004B20FEF7CFFC0020FEF7CCFC5D20FEF793
:1053A000C9FC0020FEF7C6FC7420FEF7C3FC0020F9
:1053B000FEF7C0FC8420FEF7BDFC0020FEF7BAFC1F
:1053C0009320FEF7B7FC0020FEF7B4FCA220FEF706
:1053D000B1FC0020FEF7AEFCB320FEF7ABFC0020D2
:1053E000FEF7A8FCBE20FEF7A5FC0020FEF7A2FCFD
:1053F000C420FEF79FFC0020FEF79CFCCD20FEF7AA
:1054000099FC0020FEF796FCD320FEF793FC0020C9
:10541000FEF790FCDD20FEF78DFC0020FEF78AFCF5
:10542000F320FEF787FC0020FEF784FCE520FEF762
:105430007BFC0020FEF77EFC0020FEF77BFC0020BA
:10544000FEF778FC0020FEF775FC0220FEF772FCE8
:105450000020FEF76FFC2920FEF76CFC0020FEF711
:1054600069FC3C20FEF766FC0020FEF763FC4B2045
:10547000FEF760FC0020FEF75DFC5D20FEF75AFCA5
:105480000020FEF757FC7420FEF754FC0020FEF7C6
:1054900051FC8420FEF74EFC0020FEF74BFC9320CD
:1054A000FEF748FC0020FEF745FCA220FEF742FC78
:1054B0000020FEF73FFCB320FEF73CFC0020FEF787
:1054C00039FCBE20FEF736FC0020FEF733FCC4207A
:1054D000FEF730FC0020FEF72DFCCD20FEF72AFC65
:1054E0000020FEF727FCD320FEF724FC0020FEF767
:1054F00021FCDC20FEF71EFC0020FEF71BFCF32045
:10550000FEF718FC0020FEF715FCE620FEF70CFC69
:105510001120FEF70FFC0020FEF70CFC3420FEF7F4
:1055200009FC0020FEF706FC5620FEF703FC0020D5
:10553000FEF700FC7620FEF7FDFB0020FEF7FAFBED
:105540007720FEF7F7FB0020FEF7F4FB6620FEF75E
:10555000F1FB0020FEF7EEFB8820FEF7EBFB0020BE
:10556000FEF7E8FB9920FEF7E5FB0020FEF7E2FBE3
:10557000BB20FEF7DFFB0020FEF7DCFB9920FEF7E7
:10558000D9FB0020FEF7D6FB6620FEF7D3FB0020F8
:10559000FEF7D0FB5520FEF7CDFB0020FEF7CAFB3F
:1055A0005520FEF7C7FB0020FEF7C4FB4520FEF7A1
:1055B000C1FB0020FEF7BEFB4320FEF7BBFB002033
:1055C000FEF7B8FB4420FEF7B5FB0020FEF7B2FB68
:1055D000E720FEF7A9FB3220FEF7ACFB0020FEF728
:1055E000A9FB5520FEF7A6FB0020FEF7A3FB7620C3
:1055F000FEF7A0FB0020FEF79DFB6620FEF79AFB5E
:105600000020FEF797FB6720FEF794FB0020FEF7D3
:1056100091FB6720FEF78EFB0020FEF78BFB8720B7
:10562000FEF788FB0020FEF785FB9920FEF782FB42
:105630000020FEF77FFBBB20FEF77CFB0020FEF77F
:1056400079FB9920FEF776FB0020FEF773FB7720AD
:10565000FEF770FB0020FEF76DFB4420FEF76AFBAF
:105660000020FEF767FB5620FEF764FB0020FEF7E4
:1056700061FB2320FEF75EFB0020FEF75BFB33207F
:10568000FEF758FB0020FEF755FB4520FEF752FBC6
:105690000020FEF74FFBE820FEF746FB0020FEF758
:1056A00049FB0020FEF746FB9920FEF743FB002054
:1056B000FEF740FB8720FEF73DFB0020FEF73AFB9C
:1056C0008820FEF737FB0020FEF734FB7720FEF73B
:1056D00031FB0020FEF72EFB6620FEF72BFB00209F
:1056E000FEF728FB8820FEF725FB0020FEF722FBB3
:1056F000AA20FEF71FFB0020FEF71CFBBB20FEF7D5
:1057000019FB0020FEF716FB9920FEF713FB002083
:10571000FEF710FB6620FEF70DFB0020FEF70AFBEC
:105720005520FEF707FB0020FEF704FB5520FEF78F
:1057300001FB0020FEF7FEFA4420FEF7FBFA0020F2
:10574000FEF7F8FA4420FEF7F5FA0020FEF7F2FA29
:105750005520FEF7EFFA0020FEF7ECFAE920FEF7FD
:10576000E3FAAA20FEF7E6FA0020FEF7E3FA0020AB
:10577000FEF7E0FA0020FEF7DDFA0020FEF7D4FA8B
:10578000AA20FEF7D7FACF20FEF7CEFA0020FEF7C8
:10579000D1FA0020FEF7CEFA0020FEF7CBFA002067
:1057A000FEF7C8FA0020FEF7C5FA0020FEF7C2FA9D
:1057B0000020FEF7BFFA0020FEF7BCFA0020FEF73B
:1057C000B9FA0020FEF7B6FA0020FEF7B3FA00207F
:1057D000FEF7B0FA0020FEF7ADFA0020FEF7AAFAB5
:1057E0000020FEF7A7FA0020FEF7A4FA0020FEF73B
:1057F000A1FAF020FEF798FA0020FEF79BFA50205D
:10580000FEF798FA0020FEF795FA0020FEF792FACC
:105810000020FEF78FFAF320FEF786FA0020FEF74D
:1058200089FAF920FEF780FA0620FEF783FA1020A5
:10583000FEF780FA2920FEF77DFA0020FEF77AFABB
:105840003A20FEF771FA5520FEF774FA1120FEF7A0
:105850006BFA6420FCF79CFB2920FEF765FA3520E3
:10586000FEF762FA0020FEF765FA5120FEF75CFAB7
:10587000FF20FEF75FFA5320FEF756FA2C20FEF7C2
:1058800059FA5520FEF750FA8220FEF753FA2C20E1
:10589000FEF74AFAFEF7DABF55214FF47040FEF7E3
:1058A00057FAAA214FF20100FEF752FA52214FF2A5
:1058B0000200FEF74DFA08214FF20300FEF748FA06
:1058C00001214FF20400FEF743FA0D214FF430405E
:1058D000FEF73EFA0D214BF20100FEF739FA0D21D9
:1058E0004BF20200FEF734FA34214FF43640FEF753
:1058F0002FFA34214BF20160FEF72AFA34214BF2E1
:105900000260FEF725FA0D214FF43140FEF720FA30
:105910000D214BF20110FEF71BFA0D214BF2021084
:10592000FEF716FA34214FF43740FEF711FA34210E
:105930004BF20170FEF70CFA34214BF20270FEF7C5
:1059400007FA00214FF43240FEF702FA00214BF231
:105950000120FEF7FDF900214BF20220FEF7F8F9D5
:1059600024214FF43840FEF7F3F924214BF60100CF
:10597000FEF7EEF924214BF60200FEF7E9F90121CA
:105980004FF43F40FEF7E4F90F214FF43340FEF7A8
:10599000DFF90F214BF20130FEF7DAF90F214BF25C
:1059A0000230FEF7D5F934214FF43940FEF7D0F933
:1059B00034214BF60110FEF7CBF934214BF60210DF
:1059C000FEF7C6F908214FF43540FEF7C1F908216A
:1059D0004BF20150FEF7BCF908214BF20250FEF7E2
:1059E000B7F903214FF44240FEF7B2F924214FF4F6
:1059F0003A40FEF7ADF924214BF60120FEF7A8F955
:105A000024214BF60220FEF7A3F900214FF43C407D
:105A1000FEF79EF978214BF60140FEF799F9002137
:105A20004BF60240FEF794F900214FF43D40FEF79B
:105A30008FF978214BF60150FEF78AF900214BF6D9
:105A40000250FEF785F900214FF43E40FEF780F941
:105A500064214BF60160FEF77BF900214FF45140C1
:105A6000FEF776F933214DF20110FEF771F90021AE
:105A70004DF20210FEF76CF934214DF20310FEF7DF
:105A800067F900214DF20410FEF762F93A214DF258
:105A90000510FEF75DF900214DF20610FEF758F9EA
:105AA0004A214DF20710FEF753F900214DF208107C
:105AB000FEF74EF95C214DF20910FEF749F900217D
:105AC0004DF20A10FEF744F981214DF20B10FEF75A
:105AD0003FF900214DF20C10FEF73AF9A6214DF2E4
:105AE0000D10FEF735F900214DF20E10FEF730F9DA
